{
  "_format": "hh-sol-artifact-1",
  "contractName": "VoteVerifier",
  "sourceName": "contracts/noirVerifiers/plonk_vote.sol",
  "abi": [
    {
      "inputs": [],
      "name": "EC_SCALAR_MUL_FAILURE",
      "type": "error"
    },
    {
      "inputs": [],
      "name": "MOD_EXP_FAILURE",
      "type": "error"
    },
    {
      "inputs": [],
      "name": "PROOF_FAILURE",
      "type": "error"
    },
    {
      "inputs": [
        {
          "internalType": "uint256",
          "name": "expected",
          "type": "uint256"
        },
        {
          "internalType": "uint256",
          "name": "actual",
          "type": "uint256"
        }
      ],
      "name": "PUBLIC_INPUT_COUNT_INVALID",
      "type": "error"
    },
    {
      "inputs": [],
      "name": "PUBLIC_INPUT_GE_P",
      "type": "error"
    },
    {
      "inputs": [],
      "name": "PUBLIC_INPUT_INVALID_BN128_G1_POINT",
      "type": "error"
    },
    {
      "inputs": [],
      "name": "getVerificationKeyHash",
      "outputs": [
        {
          "internalType": "bytes32",
          "name": "",
          "type": "bytes32"
        }
      ],
      "stateMutability": "pure",
      "type": "function"
    },
    {
      "inputs": [
        {
          "internalType": "bytes",
          "name": "_proof",
          "type": "bytes"
        },
        {
          "internalType": "bytes32[]",
          "name": "_publicInputs",
          "type": "bytes32[]"
        }
      ],
      "name": "verify",
      "outputs": [
        {
          "internalType": "bool",
          "name": "",
          "type": "bool"
        }
      ],
      "stateMutability": "view",
      "type": "function"
    }
  ],
  "bytecode": "0x60806040523461001a57604051614d4e6100208239614d4e90f35b600080fdfe6080604052600436101561001257600080fd5b60003560e01c8063937f6a10146100325763ea50d0e40361004257610126565b610049565b600091031261004257565b600080fd5b565b3461004257610059366004610037565b610074610064614c8c565b6040519182918290815260200190565b0390f35b909182601f830112156100425781359167ffffffffffffffff831161004257602001926001830284011161004257565b909182601f830112156100425781359167ffffffffffffffff831161004257602001926020830284011161004257565b909160408284031261004257813567ffffffffffffffff81116100425783610101918401610078565b929093602082013567ffffffffffffffff81116100425761012292016100a8565b9091565b34610042576101363660046100d8565b92919091610178565b61014c61014c61014c9290565b90565b61014c61038061013f565b61014c61340061013f565b9081526040810192916100479160200152565b5050906109cd90610187600090565b506109c461019361014f565b61019b61015a565b906110008152600160208201527f0931d596de2fd10f01ddd073fd5a90a976f169c76f039bb91c4775720042d43a60408201527f3061482dfa038d0fb5b4c0b226194047a2616509f531d4fa3acdb77496c1000160608201527f26644fac0abfd3fc82f7e2cc10bf7e0c44d3fdf59e06818a8ae1007e4558f1a660808201527f09bcca86abab7ab7b8ae0b746751b0fff76a6c185663b82c0c11536c40418d8660a08201527f19af47023abe73f2c9f6e2ce94d8a6d4b7d0f25435f08c7906f7d229f25a285560c08201527f0e7840a1d9887789136a7fb88a35d5a13e248f269ee79b798343b0d29ead2fde60e08201527f289ed343758154aed8ff9d57e84946c1b31d14fe8d0568796e8d3675cb25da9e6101008201527f0ef72e2fd91ae40279a2ebd14dd47b7cce4610c76d8be3a581f253d0d084ae4c6101208201527f27bd69ff7bcf0a479ed060cda80b28cbebbcd367b908e877540446db27385daf6101408201527f1ec8e9d8259e4130e897168fb1fc86108069c70ac03a1518b70417e84111fae56101608201527f09fed3771e27865cf4f5ef2f88bc265c9b7cbf01eba5c2e0c309cb3c9c91f6116101808201527f24e454f40d20c32853b69918c8cd8c114f2eeb77d2c37f1d0d189ccd4fb45d3a6101a08201527f015ff8aa7da462117a139ed5467fa8855c1316d453e53cae1e130903075dd5926101c08201527f065ce8a580398a302541e7484116cb2b44710434e7bea311e21c9b9910bd94b76101e08201527f1a2fb4d4f128f9afcfa8d50c827e600312b32cd8175b2e51a7317c6950a2891a6102008201527f3058c8505cc861ac54e8a046906c1c246c326017492647b8f7b62b5de4108bf96102208201527f2440cf5ada938804f904ddd2b18b68af068d232b4e545d3bbbb58f77847f0b1d6102408201527f1d9a026537fdf986f5ed0ac7660b47de288a1f7960a3db542b07c831402f9cb76102608201527f13982fd0cf8da5082a77561113bb5ee51e2e82380da3da5ad0f24e49e5f322086102808201527f1aa5ffd5aa4c16d1c66e18c4574a3ab0b25e9b4e4e04ad1280d1a264237717e06102a08201527f1750f44d3f9dfad78a1e2127ef91051ce018f20536fe45ca28dcc7b248389fc06102c08201527f1a05418f502a965c39994cd3f83e39164b49c0f27d4f5ac4550751cc0a24bb586102e08201527f232f5b109de4020790a7521c34d7fbd3b692d5b2d4bfae294a7e7f9d8739a1a26103008201527f125fed6ffac3f75b9ff59365ac3eef3da0c8f6be0a9fb2ea1f74f476527a0c566103208201527f2ae1b219850bcbcd7bf5b326eede6f65473494fbcddd089affeb54e71688153b6103408201527f10ed8e1045145be0645e8f44b41f55b3ad9819e5bb7756f0d158e01c3d8e1ea96103608201527f0e0aa1ba3d189014a308b02f17ad9774b2d41660e5fb4c25238cbfabd73f791b6103808201527f1f84a2d0a5f0ff9306c43a89c613a6c50342260a88c8df5bac15870f56cc72486103a08201527f07582ee220e4a3ee7ba152e4292696c666348ca9656c914c89374af2fd587afd6103c08201527f10d4965aa525a5507e69d7b5e084836ad2d80de7ad8c3508bf4266274d3b57b96103e08201527f259f452dc7fd2dda4013dba2196852bcf43c285b1d1f7f85341f3615d25fe97b6104008201527f117500555dd886209c0b10ee8cd10e711e890a1c99a8f689419da8c52d2e8e9d6104208201527f2577f542178a07dac262fdabad6f55a84fca32b13b92e520bb91a7455f78ccf16104408201527f0fc87ae27122e60eaacc070bd59aafe12644a82ee1345497f8c0302e92925c686104608201527f1612f501335a4b72ac55dbe2fd1a75e5fe2c041687603b6577581d673d13be506104808201527f160e8ef7ff5315cb640ec82e965db270846e904bb7d1c7ff02f32823de6c1c716104a08201527f2d540ff1653b38acbcb9cda315442364007633f529476b2f169a0ff131bfb3196104c08201527f2198b9feb61f8160e357b8bb7ca329713898655cc94a0ac2d84944c737cf57e56104e08201527f11c8df52c3ef754f80d11792cea4b7ad74612e486596cbe7f7d6a05f19c694446105008201527f10c8a36cbb2fd9ed8875b5106a37162ac2932f3bd1b6942b132546d2110a63e26105208201527f216c8365ca809fedb821a49499265ed745af59f564b28fcbd9325faffe41abf66105408201527f017ba6482c17d450f4343e199d15e20d6d60f78f33d7027fdc6670fba487eae56105608201527f19f59e64f1a1d98a14544b3ce93d7e9e9b73e24013eef91faafc6a599a9592576105808201527f1ece53dcdd785509cead1778e86df4ce382fbb312972beb53b6cf6d3e84f38a26105a08201527f02cad982be9e8caa04dd3ec9cb6c3dd348071ed9bfa4642debfa67f09b56f0ab6105c08201527f122a182338a2eadb92d9268c3e8322c63ec736381cf0d21f05b1104b3d9bec936105e08201527f1a8a78d755d9bb9db2384bce047b2035578b0c7fde3eec25eca920aa8620720e6106008201527f1f4314e23e5e30fd08d571e6ee41693ee5a384c8acbf61541927e378239bcca4610620820152600061064082018190526106608201527f260e01b251f6f1c7e7ff4e580791dee8ea51d87a358e038b4efe30fac09383c16106808201527f0118c4d5b837bcc2bc89b5b398b5974e9f5944073b32078b7e231fec938883b06106a08201527f04fc6369f7110fe3d25156c1bb9a72859cf2a04641f99ba4ee413c80da6a5fe46106c08201527f22febda3c0c0632a56475b4214e5615e11e6dd3f96e6cea2854a87d4dacc5e556106e0909101527f1af864d211b88d9ccf2e371c2ba088d9269d3fdea04e05acb6f70f8dc79e0e579052565b6103a051925090565b90818103614c66577f30644e72e131a029b85045b68181585d97816a916871ca8d3c208c16d87cfd476024600435018181350661122052816020820135066112005281604082013506611260528160608201350661124052816080820135066112a0528160a082013506611280528160c0820135066112e0528160e0820135066112c05281610100820135066113205281610120820135066113005281610140820135066113605281610160820135066113405281610180820135066113a052816101a08201350661138052816101c0820135066113e052816101e0820135066113c05281610200820135066114205281610220820135066114005281610240820135066114605281610260820135066114405281610280820135066114a052816102a08201350661148052600080516020614cb98339815191526102c08201350661160052600080516020614cb98339815191526102e08201350661162052600080516020614cb98339815191526103008201350661164052600080516020614cb98339815191526103208201350661166052600080516020614cb98339815191526103408201350661168052600080516020614cb9833981519152610360820135066116a052600080516020614cb9833981519152610380820135066116c052600080516020614cb98339815191526103a0820135066116e052600080516020614cb98339815191526103c08201350661170052600080516020614cb98339815191526103e08201350661172052600080516020614cb98339815191526104008201350661174052600080516020614cb98339815191526104208201350661176052600080516020614cb98339815191526104408201350661178052600080516020614cb9833981519152610460820135066117a052600080516020614cb9833981519152610480820135066117c052600080516020614cb98339815191526104a0820135066117e052600080516020614cb98339815191526104c08201350661180052600080516020614cb98339815191526104e08201350661196052600080516020614cb98339815191526105008201350661198052600080516020614cb9833981519152610520820135066119a052600080516020614cb9833981519152610540820135066119c052600080516020614cb98339815191526105608201350661184052600080516020614cb98339815191526105808201350661186052600080516020614cb98339815191526105a08201350661188052600080516020614cb98339815191526105c0820135066118a052600080516020614cb98339815191526105e0820135066118c052600080516020614cb9833981519152610600820135066118e052600080516020614cb98339815191526106208201350661190052600080516020614cb98339815191526106408201350661192052600080516020614cb98339815191526106608201350661194052600080516020614cb9833981519152610680820135066119e052600080516020614cb98339815191526106a08201350661200052600080516020614cb98339815191526106c08201350661202052600080516020614cb98339815191526106e08201350661204052600080516020614cb98339815191526107008201350661206052600080516020614cb98339815191526107208201350661208052600080516020614cb9833981519152610740820135066120a052600080516020614cb9833981519152610760820135066120c052600080516020614cb9833981519152610780820135066120e052600080516020614cb98339815191526107a08201350661210052600080516020614cb98339815191526107c08201350661212052816107e082013506612320528161080082013506612300528161082082013506612360528161084082013506612340526109c051614b9c575b6103805160e01b6000526103a05160e01b600452600860002061358052602480350160c060206103a0510280836020613580013781846135a08301370160200161358020600080516020614cb98339815191528082068061266052818180096126805261268051096126a0526000526112e0516020526112c051604052611320516060526113005160805260a0600020600080516020614cb983398151915281066126005260005260016020536021600020600080516020614cb983398151915281066126205260005261136051602052611340516040526113a0516060526113805160805260a0600020600080516020614cb983398151915281066126405261264051600080516020614cb983398151915281800961342052600080516020614cb983398151915281613420510961344052600080516020614cb983398151915281613440510961346052613480526000526113e0516020526113c05160405261142051606052611400516080526114605160a0526114405160c0526114a05160e0526114805161010052610120600020600080516020614cb983398151915281066126c0526126e05261260051612620516103c05160019283946001938160206103a051020192600080516020614cb9833981519152600c81600584099209905b848410614b0d5750505050505015614afc576130005261302052600080516020614cb98339815191528060016126005108612620510980610380516001905b808210614adf575050600080516020614cb98339815191529182916131005280098009613120526126c0518061038051906001915b808310614ac25750613040819052600080516020614cb98339815191529150600080516020614cd9833981519152900861340051600080516020614cb983398151915283818084810394818082816103e0519981808481848d089309809a08900996099481868b0890099309860890096103c05193600080516020614cb98339815191528580099161302051600080516020614cb983398151915282820993600080516020614cb983398151915287860991600080516020614cb98339815191528381600080516020614cd98339815191528808900995600080516020614cb98339815191528761312051900993600080516020614cb9833981519152856020600052602080526020604052818d818b816001810393818c80090909089009606052600080516020614cf9833981519152608052600080516020614cb983398151915260a0526020600060c08160055afa15614ab157899486948860005192600080516020614cb98339815191529084099d600080516020614cd983398151915292600080516020614cb983398151915290800990600080516020614cb9833981519152910990600080516020614cb9833981519152910990600080516020614cb98339815191529108600080516020614cb9833981519152910997600080516020614cb98339815191529089099761312051600080516020614cb9833981519152910990600080516020614cb983398151915290820996600080516020614cb983398151915290600080516020614cd98339815191529008600080516020614cb9833981519152910990600080516020614cb983398151915290820993600080516020614cb9833981519152910990600080516020614cb983398151915290820991600080516020614cb98339815191529109613020519080600080516020614cb9833981519152910990600080516020614cb983398151915291096130005190600080516020614cb9833981519152910961306052600080516020614cb983398151915290870961308052600080516020614cb9833981519152910961378052600080516020614cb983398151915283850990600080516020614cb983398151915291096130a0526131005190600080516020614cb9833981519152910961314052600080516020614cb9833981519152910990600080516020614cb983398151915291096130c052612600516126205161190051600080516020614cb9833981519152908309816116205101016118e051600080516020614cb98339815191529084098261160051010190600080516020614cb9833981519152910961194051600080516020614cb98339815191529084098261166051010161192051600080516020614cb98339815191529085098361164051010190600080516020614cb98339815191529109600080516020614cb983398151915291096116a05190600080516020614cb983398151915291096134805190600080516020614cb983398151915291099161198051600080516020614cb98339815191529082098261162051010161196051600080516020614cb98339815191529083098361160051010190600080516020614cb98339815191529109916119c051600080516020614cb983398151915290830981611660510101916119a051600080516020614cb9833981519152910961164051600080516020614cb98339815191529392010109600080516020614cb983398151915291096120805190600080516020614cb983398151915291096134805190600080516020614cb98339815191529109600080516020614cb983398151915203600080516020614cb98339815191529108612640516134805190600080516020614cb983398151915291096134805261306051600080516020614cb9833981519152036120805190600080516020614cb983398151915291086130c05190600080516020614cb983398151915291096134805190600080516020614cb98339815191529109600080516020614cb98339815191529108612640516134805190600080516020614cb98339815191529109613480526116a051600080516020614cb983398151915290600080516020614cd983398151915290086130a05190600080516020614cb983398151915291096134805190600080516020614cb98339815191529109600080516020614cb9833981519152910861360052612640516134805190600080516020614cb9833981519152910961348052611720516126605190600080516020614cb98339815191529109612020516117805190600080516020614cb983398151915291096116405190600080516020614cb98339815191529108600080516020614cb9833981519152910861266051600080516020614cb98339815191529109612000516117605190600080516020614cb983398151915291096116205190600080516020614cb98339815191529108600080516020614cb9833981519152910861266051600080516020614cb983398151915291096119e0516117005190600080516020614cb983398151915291096116005190600080516020614cb98339815191529108600080516020614cb9833981519152910861184051612660516118605190600080516020614cb98339815191529109612680516118805190600080516020614cb983398151915291096126a0516118a05190600080516020614cb9833981519152910990600080516020614cb9833981519152910890600080516020614cb9833981519152910890600080516020614cb98339815191529108906120c051612660516120e05190600080516020614cb98339815191529109612680516121005190600080516020614cb983398151915291096126a0516121205190600080516020614cb9833981519152910990600080516020614cb9833981519152910890600080516020614cb9833981519152910890600080516020614cb9833981519152910890612600516001600080516020614cb983398151915291086126205190600080516020614cb9833981519152910992839161262051906118c051600080516020614cb9833981519152910990600080516020614cb983398151915291089261260051600080516020614cb98339815191529109600080516020614cb9833981519152910890600080516020614cb98339815191529108600080516020614cb98339815191529109612600516001600080516020614cb98339815191529108600080516020614cb983398151915291096130a0516126405190600080516020614cb983398151915291099081600080516020614cb983398151915291086116c051600080516020614cb9833981519152910990600080516020614cb983398151915203600080516020614cb9833981519152910890612600516120605190600080516020614cb983398151915291096116805190600080516020614cb9833981519152910890600080516020614cb983398151915291086130c0516134205190600080516020614cb983398151915291099081600080516020614cb983398151915203600080516020614cb983398151915291086120a051600080516020614cb983398151915291099061314051600080516020614cb98339815191529109600080516020614cb98339815191529108906134805191600080516020614cb983398151915203600080516020614cb9833981519152910890600080516020614cb9833981519152910961362052613440516134805190600080516020614cb98339815191529109613480526116e0516116005190600080516020614cb98339815191529109611700516116205190600080516020614cb98339815191529109611720516116405190600080516020614cb9833981519152910990611740516116605190600080516020614cb98339815191529109926003600080516020614cb9833981519152036117a05190600080516020614cb9833981519152910861176051611620516116005190600080516020614cb9833981519152910990600080516020614cb9833981519152910990600080516020614cb983398151915291097f183227397098d014dc2822db40c0ac2e9419f4243cdcb848a1f0fac9f8000000600080516020614cb98339815191529109600080516020614cb98339815191529108600080516020614cb98339815191529108600080516020614cb98339815191529108600080516020614cb983398151915291086117805190600080516020614cb98339815191529108611660516116005190600080516020614cb983398151915291086119e051600080516020614cb98339815191520390600080516020614cb983398151915291086117605190600080516020614cb983398151915291086117a051600080516020614cb983398151915290600080516020614cf9833981519152900890600080516020614cb983398151915291096126405190600080516020614cb983398151915291096120405190600080516020614cb983398151915291086117a051600080516020614cb983398151915290600080516020614cd9833981519152900890600080516020614cb98339815191529109600080516020614cb983398151915291086117a05190600080516020614cb983398151915291096134805190600080516020614cb9833981519152910961364052613420516134805190600080516020614cb98339815191529109613480526116005161162051600080516020614cf9833981519152917f30644e72e131a029b85045b68181585d2833e84879b9709143e1f593effffffe91600080516020614cb983398151915291820390089161162051600080516020614cb9833981519152036116405190600080516020614cb9833981519152910861164051600080516020614cb9833981519152036116605190600080516020614cb983398151915291089061166051600080516020614cb9833981519152036119e05190600080516020614cb98339815191529108946134805190600080516020614cb983398151915286820890600080516020614cb983398151915286820890600080516020614cb983398151915281810391800990600080516020614cb9833981519152910890600080516020614cb9833981519152910990600080516020614cb9833981519152910990600080516020614cb9833981519152910990612640516134805190600080516020614cb9833981519152910990600080516020614cb983398151915286820890600080516020614cb983398151915286820890600080516020614cb983398151915281810391800990600080516020614cb9833981519152910890600080516020614cb9833981519152910990600080516020614cb9833981519152910990600080516020614cb98339815191529109600080516020614cb9833981519152910890613420516134805190600080516020614cb9833981519152910990600080516020614cb983398151915285820890600080516020614cb983398151915285820890600080516020614cb983398151915281810391800990600080516020614cb9833981519152910890600080516020614cb9833981519152910990600080516020614cb9833981519152910990600080516020614cb98339815191529109600080516020614cb9833981519152910892613440516134805190600080516020614cb9833981519152910992600080516020614cb983398151915290820891600080516020614cb983398151915290820890600080516020614cb983398151915281810391800990600080516020614cb9833981519152910890600080516020614cb9833981519152910990600080516020614cb9833981519152910990600080516020614cb98339815191529109600080516020614cb983398151915291086117c051600080516020614cb9833981519152910961366052613460516134805190600080516020614cb9833981519152910961348052611720516116205161200051600080516020614cb983398151915290800890600080516020614cb98339815191529108611620516119e051600080516020614cb98339815191520390600080516020614cb9833981519152910990600080516020614cb9833981519152910990600080516020614cb983398151915291096119e051600080516020614cb983398151915290800961162051600080516020614cb9833981519152036120005190600080516020614cb98339815191529108600080516020614cb9833981519152910961174051600080516020614cb98339815191529109906119e0516119e05190600080516020614cb983398151915291096119e051600080516020614cb98339815191529109611620516120005190600080516020614cb9833981519152910861162051600080516020614cb983398151915290800990600080516020614cb98339815191529109600080516020614cb9833981519152910861164051600080516020614cb983398151915290800961204051600080516020614cb983398151915290800990600080516020614cb98339815191529108600080516020614cb983398151915203600080516020614cb98339815191529108611640516120405190600080516020614cb9833981519152910980600080516020614cb983398151915291086116e051600080516020614cb9833981519152910990600080516020614cb9833981519152910891600080516020614cb9833981519152910890600080516020614cb9833981519152910861348051600080516020614cb98339815191529109611640516120205190600080516020614cb98339815191529108611720516119e05190600080516020614cb9833981519152910990600080516020614cb9833981519152910961200051600080516020614cb9833981519152036116205190600080516020614cb983398151915291086116e0516120405190600080516020614cb9833981519152910990600080516020614cb98339815191529109600080516020614cb9833981519152039061200051600080516020614cb9833981519152036116205190600080516020614cb983398151915291086116405190600080516020614cb98339815191529109611640516120205190600080516020614cb983398151915291086116205190600080516020614cb98339815191529109600080516020614cb98339815191520390600080516020614cb9833981519152910890612640516134805190600080516020614cb9833981519152910992600080516020614cb9833981519152910890600080516020614cb9833981519152910890600080516020614cb98339815191529109906117e05191600080516020614cb9833981519152910890600080516020614cb9833981519152910961368052613460516134805190600080516020614cb9833981519152910961348052611620516119e05190600080516020614cb98339815191529109612000516116005190600080516020614cb9833981519152910990600080516020614cb983398151915291088061202051600080516020614cb983398151915203611640516116205190600080516020614cb98339815191529109611660516116005190600080516020614cb9833981519152910990600080516020614cb9833981519152910890600080516020614cb98339815191529108600080516020614cb983398151915290600160441b900961204051600080516020614cb983398151915203600080516020614cb9833981519152910890600080516020614cb9833981519152910861174051600080516020614cb9833981519152910990600080516020614cb983398151915290600160441b9009612000516119e05190600080516020614cb98339815191529109600080516020614cb9833981519152910861172051611660516116405190600080516020614cb98339815191529108600080516020614cb983398151915203600080516020614cb983398151915290830890600080516020614cb98339815191529109906117605190612040516120205190600080516020614cb98339815191529108600080516020614cb9833981519152039061166051600080516020614cb9833981519152910890600080516020614cb9833981519152910890600080516020614cb98339815191529109906117005192600080516020614cb9833981519152910890600080516020614cb9833981519152910890600080516020614cb983398151915291096136c05261200051614000600080516020614cb983398151915291096119e051600080516020614cb98339815191529108614000600080516020614cb9833981519152910961164051600080516020614cb98339815191529108614000600080516020614cb9833981519152910961162051600080516020614cb98339815191529108614000600080516020614cb9833981519152910961160051600080516020614cb9833981519152910861166051600080516020614cb983398151915203600080516020614cb9833981519152910861174051600080516020614cb9833981519152910961202051614000600080516020614cb9833981519152910961200051600080516020614cb98339815191529108614000600080516020614cb983398151915291096119e051600080516020614cb98339815191529108614000600080516020614cb9833981519152910961166051600080516020614cb98339815191529108614000600080516020614cb9833981519152910961164051600080516020614cb9833981519152910861204051600080516020614cb983398151915203600080516020614cb9833981519152910861176051600080516020614cb98339815191529109906117205191600080516020614cb9833981519152910890600080516020614cb983398151915291096136e052612660516116405190600080516020614cb9833981519152910961162051600080516020614cb9833981519152910861266051600080516020614cb9833981519152910961160051600080516020614cb9833981519152910861266051600080516020614cb9833981519152910961178051600080516020614cb983398151915291088061166051600080516020614cb983398151915203600080516020614cb98339815191529108806137405261160051600080516020614cb9833981519152036119e05190600080516020614cb983398151915291089161166051600080516020614cb9833981519152036120405190600080516020614cb9833981519152910891600080516020614cb9833981519152600080516020614cd98339815191528508600080516020614cb983398151915290850992600080516020614cb9833981519152858103600108600080516020614cb9833981519152910983612640519161264051600080516020614cb9833981519152910990600080516020614cb9833981519152910890600080516020614cb9833981519152910990600080516020614cb9833981519152910861372052612660516120205190600080516020614cb9833981519152910961200051600080516020614cb9833981519152910861266051600080516020614cb983398151915291096119e051600080516020614cb9833981519152910861266051600080516020614cb98339815191529109600080516020614cb9833981519152036120405190600080516020614cb983398151915291089161164051600080516020614cb9833981519152036120205190600080516020614cb98339815191529108600080516020614cb9833981519152848103600108600080516020614cb98339815191529109600080516020614cb983398151915285810360010890600080516020614cb9833981519152910991600080516020614cb9833981519152036116605190600080516020614cb98339815191529108600080516020614cb9833981519152600080516020614cd98339815191528208600080516020614cb9833981519152910992600080516020614cb9833981519152600080516020614cd98339815191528208600080516020614cb983398151915291099161264051600080516020614cb9833981519152910990600080516020614cb9833981519152910861264051600080516020614cb9833981519152910990600080516020614cb9833981519152910861264051600080516020614cb9833981519152910990600080516020614cb983398151915291086137005261162051600080516020614cb9833981519152036120005190600080516020614cb9833981519152910861164051600080516020614cb98339815191520391600080516020614cb983398151915203600080516020614cb983398151915290600108600080516020614cb9833981519152910990600080516020614cb98339815191529108611700516137205190600080516020614cb983398151915291099061174051600080516020614cb98339815191529109600080516020614cb98339815191529108611760516137405190600080516020614cb98339815191529109600080516020614cb983398151915291086116e051600080516020614cb983398151915291096117a0516137005190600080516020614cb98339815191529109600080516020614cb983398151915291086136c051600080516020614cb983398151915291086136e051600080516020614cb9833981519152910861180051600080516020614cb9833981519152910961348051600080516020614cb983398151915291096136a052613440516134805190600080516020614cb9833981519152910961348052613780516136a051613680516136605161364051613620516136005190600080516020614cb9833981519152910890600080516020614cb9833981519152910890600080516020614cb9833981519152910890600080516020614cb9833981519152910890600080516020614cb9833981519152910890600080516020614cb983398151915291096137608190526126e0516137a0526137c052610520906102c0016137e0376105606137a020600080516020614cb983398151915281066127005260005260016020536021600020600080516020614cb983398151915290066127205260026020536021600020600080516020614cb983398151915290066127405260036020536021600020600080516020614cb983398151915290066127605260046020536021600020600080516020614cb983398151915290066127805260056020536021600020600080516020614cb983398151915290066127a05260066020536021600020600080516020614cb983398151915290066127c05260076020536021600020600080516020614cb983398151915290066127e05260086020536021600020600080516020614cb983398151915290066128005260096020536021600020600080516020614cb9833981519152900661282052600a6020536021600020600080516020614cb9833981519152900661284052600b6020536021600020600080516020614cb9833981519152900661286052600c6020536021600020600080516020614cb9833981519152900661288052600d6020536021600020600080516020614cb983398151915290066128a052600e6020536021600020600080516020614cb983398151915290066128c052600f6020536021600020600080516020614cb983398151915290066128e05260106020536021600020600080516020614cb983398151915290066129005260116020536021600020600080516020614cb983398151915290066129205260126020536021600020600080516020614cb983398151915290066129405260136020536021600020600080516020614cb983398151915290066129605260146020536021600020600080516020614cb983398151915290066129805260156020536021600020600080516020614cb983398151915290066129a05260166020536021600020600080516020614cb983398151915290066129c05260176020536021600020600080516020614cb983398151915290066129e05260186020536021600020600080516020614cb98339815191529006612a005260196020536021600020600080516020614cb98339815191529006612a2052601a6020536021600020600080516020614cb98339815191529006612a4052601b6020536021600020600080516020614cb98339815191529006612a6052601c6020536021600020600080516020614cb98339815191529006612a8052601d6020536021600020600080516020614cb98339815191529006612aa052601d6020536021600020600080516020614cb98339815191528106612ac0526000526123205160205261230051604052612360516060526123405160805260a0600020600080516020614cb98339815191529006612b00526113c0516113e05182808084800984096003900883828009149161316052602061316001526114005190611420519083808085800985096003900884838009141691600052602052613040516040525a6131a0606060006007604094fa165a6131606080816006604094fa166114405190611460519083808085800985096003900884838009141691600052602052613040516130405190600080516020614cb983398151915291096040525a6131a0606060006007604094fa165a6131606080816006604094fa1661148051906114a051908380808580098509600390088483800914169160005260205261304051613040516130405190600080516020614cb9833981519152910990600080516020614cb983398151915291096040525a6131a0606060006007604094fa165a6131606080816006604094fa16611200519061122051908380808580098509600390088483800914169160005260205261270051612b00516001600080516020614cb9833981519152910890600080516020614cb983398151915291096040525a6131a0606060006007604094fa165a6131606080816006604094fa16611240519061126051908380808580098509600390088483800914169160005260205261272051612b00516001600080516020614cb9833981519152910890600080516020614cb983398151915291096040525a6131a0606060006007604094fa165a6131606080816006604094fa1661128051906112a051908380808580098509600390088483800914169160005260205261274051612b00516001600080516020614cb9833981519152910890600080516020614cb983398151915291096040525a6131a0606060006007604094fa165a6131606080816006604094fa166112c051906112e051908380808580098509600390088483800914169160005260205261276051612b00516001600080516020614cb9833981519152910890600080516020614cb983398151915291096040525a6131a0606060006007604094fa165a6131606080816006604094fa16611300519061132051908380808580098509600390088483800914169160005260205261278051612b00516001600080516020614cb9833981519152910890600080516020614cb983398151915291096040525a6131a0606060006007604094fa165a6131606080816006604094fa1661134051906113605190838080858009850960039008848380091416916000526020526127a051612b00516001600080516020614cb9833981519152910890600080516020614cb983398151915291096040525a6131a0606060006007604094fa165a6131606080816006604094fa1661138051906113a05190838080858009850960039008848380091416916000526020526127c051612b00516001600080516020614cb9833981519152910890600080516020614cb983398151915291096040525a6131a0606060006007604094fa165a6131606080816006604094fa1661040051906104205190838080858009850960039008848380091416916000526020526127e0516040525a6131a0606060006007604094fa165a6131606080816006604094fa166104405190610460519083808085800985096003900884838009141691600052602052612800516040525a6131a0606060006007604094fa165a6131606080816006604094fa1661048051906104a0519083808085800985096003900884838009141691600052602052612820516040525a6131a0606060006007604094fa165a6131606080816006604094fa166104c051906104e0519083808085800985096003900884838009141691600052602052612840516040525a6131a0606060006007604094fa165a6131606080816006604094fa166105005190610520519083808085800985096003900884838009141691600052602052612860516040525a6131a0606060006007604094fa165a6131606080816006604094fa166105405190610560519083808085800985096003900884838009141691600052602052612880516040525a6131a0606060006007604094fa165a6131606080816006604094fa1661058051906105a05190838080858009850960039008848380091416916000526020526128a0516040525a6131a0606060006007604094fa165a6131606080816006604094fa166105c051906105e05190838080858009850960039008848380091416916000526020526128c0516040525a6131a0606060006007604094fa165a6131606080816006604094fa1661060051906106205190838080858009850960039008848380091416916000526020526128e0516040525a6131a0606060006007604094fa165a6131606080816006604094fa166106405190610660519083808085800985096003900884838009141691600052602052612900516040525a6131a0606060006007604094fa165a6131606080816006604094fa1661068051906106a0519083808085800985096003900884838009141691600052602052612920516040525a6131a0606060006007604094fa165a6131606080816006604094fa166106c051906106e0519083808085800985096003900884838009141691600052602052612940516040525a6131a0606060006007604094fa165a6131606080816006604094fa166107005190610720519083808085800985096003900884838009141691600052602052612960516040525a6131a0606060006007604094fa165a6131606080816006604094fa166107405190610760519083808085800985096003900884838009141691600052602052612980516040525a6131a0606060006007604094fa165a6131606080816006604094fa1661078051906107a05190838080858009850960039008848380091416916000526020526129a051612b00516001600080516020614cb9833981519152910890600080516020614cb983398151915291096040525a6131a0606060006007604094fa165a6131606080816006604094fa166107c051906107e05190838080858009850960039008848380091416916000526020526129c051612b00516001600080516020614cb9833981519152910890600080516020614cb983398151915291096040525a6131a0606060006007604094fa165a6131606080816006604094fa1661080051906108205190838080858009850960039008848380091416916000526020526129e051612b00516001600080516020614cb9833981519152910890600080516020614cb983398151915291096040525a6131a0606060006007604094fa165a6131606080816006604094fa166108405190610860519083808085800985096003900884838009141691600052602052612a0051612b00516001600080516020614cb9833981519152910890600080516020614cb983398151915291096040525a6131a0606060006007604094fa165a6131606080816006604094fa1661088051906108a0519083808085800985096003900884838009141691600052602052612a20516040525a6131a0606060006007604094fa165a6131606080816006604094fa166108c051906108e0519083808085800985096003900884838009141691600052602052612a40516040525a6131a0606060006007604094fa165a6131606080816006604094fa166109005190610920519083808085800985096003900884838009141691600052602052612a60516040525a6131a0606060006007604094fa165a6131606080816006604094fa166109405190610960519083808085800985096003900884838009141691600052602052612a80516040525a6131a0606060006007604094fa165a6131606080816006604094fa1661098051906109a0519083808085800985096003900884838009141691600052602052612aa0516040525a6131a0606060006007604094fa165a6131606080816006604094fa1661160051612b00516119e05190600080516020614cb9833981519152910990600080516020614cb983398151915291086127005190600080516020614cb9833981519152910961162051612b00516120005190600080516020614cb9833981519152910990600080516020614cb983398151915291086127205190600080516020614cb98339815191529109600080516020614cb9833981519152910861164051612b00516120205190600080516020614cb9833981519152910990600080516020614cb983398151915291086127405190600080516020614cb98339815191529109600080516020614cb9833981519152910861166051612b00516120405190600080516020614cb9833981519152910990600080516020614cb983398151915291086127605190600080516020614cb98339815191529109600080516020614cb9833981519152910861168051612b00516120605190600080516020614cb9833981519152910990600080516020614cb983398151915291086127805190600080516020614cb98339815191529109600080516020614cb983398151915291086116a051612b00516120805190600080516020614cb9833981519152910990600080516020614cb983398151915291086127a05190600080516020614cb98339815191529109600080516020614cb983398151915291086116c051612b00516120a05190600080516020614cb9833981519152910990600080516020614cb983398151915291086127c05190600080516020614cb98339815191529109600080516020614cb983398151915291086116e0516127e05190600080516020614cb98339815191529109600080516020614cb98339815191529108611700516128005190600080516020614cb98339815191529109600080516020614cb98339815191529108611720516128205190600080516020614cb98339815191529109600080516020614cb98339815191529108611740516128405190600080516020614cb98339815191529109600080516020614cb98339815191529108611760516128605190600080516020614cb98339815191529109600080516020614cb98339815191529108611780516128805190600080516020614cb98339815191529109600080516020614cb983398151915291086117a0516128a05190600080516020614cb98339815191529109600080516020614cb983398151915291086117c0516128c05190600080516020614cb98339815191529109600080516020614cb983398151915291086117e0516128e05190600080516020614cb98339815191529109600080516020614cb98339815191529108611800516129005190600080516020614cb98339815191529109600080516020614cb98339815191529108611960516129205190600080516020614cb98339815191529109600080516020614cb98339815191529108611980516129405190600080516020614cb98339815191529109600080516020614cb983398151915291086119a0516129605190600080516020614cb98339815191529109600080516020614cb983398151915291086119c0516129805190600080516020614cb98339815191529109600080516020614cb9833981519152910861184051612b00516120c05190600080516020614cb9833981519152910990600080516020614cb983398151915291086129a05190600080516020614cb98339815191529109600080516020614cb9833981519152910861186051612b00516120e05190600080516020614cb9833981519152910990600080516020614cb983398151915291086129c05190600080516020614cb98339815191529109600080516020614cb9833981519152910861188051612b00516121005190600080516020614cb9833981519152910990600080516020614cb983398151915291086129e05190600080516020614cb98339815191529109600080516020614cb983398151915291086118a051612b00516121205190600080516020614cb9833981519152910990600080516020614cb98339815191529108612a005190600080516020614cb98339815191529109600080516020614cb983398151915291086118c051612a205190600080516020614cb98339815191529109600080516020614cb983398151915291086118e051612a405190600080516020614cb98339815191529109600080516020614cb9833981519152910861190051612a605190600080516020614cb98339815191529109600080516020614cb9833981519152910861192051612a805190600080516020614cb98339815191529109600080516020614cb9833981519152910861194051612aa05190600080516020614cb98339815191529109600080516020614cb9833981519152910861376051600080516020614cb9833981519152910860016000526002602052600080516020614cb9833981519152036040525a6131a0606060006007604094fa165a6131606080816006604094fa1661336052612b00516126c0516123005161232051848080848009840960039008858280091491600052602052816040525a6131a0606060006007604094fa165a6131606080816006604094fa169061234051916123605190858080868009860960039008868380091416926000526020526103c05190600080516020614cb983398151915290840990600080516020614cb983398151915291096040525a6131a0606060006007604094fa165a61322060806131606006604094fa1661230051600052612320516020526123405160405261236051606052816080525a604060608160078194fa165a6131e0608060006006604094fa1690613200518303613200526109c051614a00575b50809150156149ef576133805261322051600052613240516020527f198e9393920d483a7260bfb731fb5d25f1aa493335a9e71297e485b7aef312c26040527f1800deef121f1e76426a00665e5c4479674322d4f75edadd46debd5cd992f6ed6060527f090689d0585ff075ec9e99ad690c3395bc4b313370b38ef355acdadcd122975b6080527f12c85ea5db8c6deb4aab71808dcb408fe3d1e7690c43d37b4ce6cc0166fa7daa60a0526131e05160c0526132005160e052610a005161010052610a205161012052610a405161014052610a605161016052602060006101808160085afa6133a0526000516133c05261336051613380516133c0516133a051161616156149de57600160005260206000f35b6301c47f3b60e21b60005260046000fd5b63f755f36960e01b60005260046000fd5b600080516020614cb9833981519152906135005192613520519085600381808880098809088683800914169360005260205280096040526040606080600060075afa1690613540519161356051918060038180878009870908908380091416916000526020526040600060608160075afa166132205160a0526132405160c05260406132206080606060065afa166131e0516040526132005160605260406131e06080600060065afa1680826148cb565b633e2529ef60e21b60005260046000fd5b9080600080516020614cb9833981519152910991800191906111b3565b909180600080516020614cb983398151915291099180019061117e565b63374a972f60e01b60005260046000fd5b908598969186959693928535600080516020614cb983398151915211169783863590600080516020614cb98339815191529108998a8301600080516020614cb98339815191529109998301600080516020614cb9833981519152910999600080516020614cb9833981519152910992600080516020614cb983398151915291099260200192909194939461113f565b60248035016109e05160051b018035602082013560441b01604082013560881b01606082013560cc1b018380608084013560a085013560441b0160c085013560881b0160e085013560cc1b01818061010087013561012088013560441b0161014088013560881b0161016088013560cc1b01966101e06101808201356101a083013560441b016101c083013560881b0191013560cc1b01866135005283613520528761354052806135605210911016931091101616610f5c576375d4fa5360e11b60005260046000fd5b614c88614c7260405190565b637667dc9b60e01b815292839260048401610165565b0390fd5b61014c61014c7f466116b9ee167fba01c99a72a6c6010740727a9a1b65485901b8a7b5633a7cf961013f56fe30644e72e131a029b85045b68181585d2833e84879b9709143e1f593f000000130644e72e131a029b85045b68181585d2833e84879b9709143e1f593f000000030644e72e131a029b85045b68181585d2833e84879b9709143e1f593efffffffa2646970667358221220652bb389fc48651fb17a7b35d9285b48a3fbac28204a965bc3558f319e74400664736f6c63430008140033",
  "linkReferences": {},
  "deployedLinkReferences": {}
}