{"contracts/dao/DAOs.sol":{"Daos":{"abi":[{"inputs":[{"internalType":"address","name":"_verifier","type":"address"}],"stateMutability":"nonpayable","type":"constructor"},{"inputs":[{"components":[{"internalType":"string","name":"name","type":"string"},{"internalType":"string","name":"minInvestment","type":"string"},{"internalType":"string","name":"zkkyc","type":"string"},{"internalType":"address","name":"treasuryAddress","type":"address"}],"internalType":"struct dao_details","name":"_dao","type":"tuple"}],"name":"_deterministicDaoId","outputs":[{"internalType":"uint256","name":"","type":"uint256"}],"stateMutability":"pure","type":"function"},{"inputs":[{"components":[{"internalType":"string","name":"name","type":"string"},{"internalType":"string","name":"description","type":"string"},{"internalType":"uint256","name":"votingEnd","type":"uint256"}],"internalType":"struct proposal","name":"_proposal","type":"tuple"},{"internalType":"uint256","name":"daoId","type":"uint256"}],"name":"_deterministicProposalId","outputs":[{"internalType":"uint256","name":"","type":"uint256"}],"stateMutability":"pure","type":"function"},{"inputs":[{"internalType":"uint256","name":"","type":"uint256"}],"name":"allDaos","outputs":[{"internalType":"string","name":"name","type":"string"},{"internalType":"string","name":"minInvestment","type":"string"},{"internalType":"string","name":"zkkyc","type":"string"},{"internalType":"address","name":"treasuryAddress","type":"address"}],"stateMutability":"view","type":"function"},{"inputs":[{"internalType":"address","name":"","type":"address"}],"name":"commitment","outputs":[{"internalType":"bytes32","name":"","type":"bytes32"}],"stateMutability":"view","type":"function"},{"inputs":[{"components":[{"internalType":"string","name":"name","type":"string"},{"internalType":"string","name":"description","type":"string"},{"internalType":"uint256","name":"votingEnd","type":"uint256"}],"internalType":"struct proposal","name":"_proposal","type":"tuple"},{"internalType":"uint256","name":"daoId","type":"uint256"}],"name":"createProposal","outputs":[],"stateMutability":"nonpayable","type":"function"},{"inputs":[{"internalType":"uint256","name":"","type":"uint256"}],"name":"daos","outputs":[{"internalType":"string","name":"name","type":"string"},{"internalType":"string","name":"minInvestment","type":"string"},{"internalType":"string","name":"zkkyc","type":"string"},{"internalType":"address","name":"treasuryAddress","type":"address"}],"stateMutability":"view","type":"function"},{"inputs":[],"name":"getDaos","outputs":[{"components":[{"internalType":"string","name":"name","type":"string"},{"internalType":"string","name":"minInvestment","type":"string"},{"internalType":"string","name":"zkkyc","type":"string"},{"internalType":"address","name":"treasuryAddress","type":"address"}],"internalType":"struct dao_details[]","name":"","type":"tuple[]"}],"stateMutability":"view","type":"function"},{"inputs":[{"internalType":"uint256","name":"proposalId","type":"uint256"}],"name":"getProposalVotes","outputs":[{"internalType":"uint256[2]","name":"","type":"uint256[2]"}],"stateMutability":"view","type":"function"},{"inputs":[{"internalType":"uint256","name":"daoId","type":"uint256"}],"name":"getProposals","outputs":[{"components":[{"internalType":"string","name":"name","type":"string"},{"internalType":"string","name":"description","type":"string"},{"internalType":"uint256","name":"votingEnd","type":"uint256"}],"internalType":"struct proposal[]","name":"","type":"tuple[]"}],"stateMutability":"view","type":"function"},{"inputs":[{"internalType":"uint256","name":"proposalId","type":"uint256"}],"name":"getVotingResult","outputs":[{"internalType":"bool","name":"","type":"bool"}],"stateMutability":"view","type":"function"},{"inputs":[{"internalType":"bytes32","name":"","type":"bytes32"}],"name":"hasVoted","outputs":[{"internalType":"bool","name":"","type":"bool"}],"stateMutability":"view","type":"function"},{"inputs":[{"internalType":"address","name":"","type":"address"}],"name":"nullifiers","outputs":[{"internalType":"bytes32","name":"","type":"bytes32"}],"stateMutability":"view","type":"function"},{"inputs":[{"internalType":"uint256","name":"","type":"uint256"},{"internalType":"uint256","name":"","type":"uint256"}],"name":"proposalVotes","outputs":[{"internalType":"uint256","name":"","type":"uint256"}],"stateMutability":"view","type":"function"},{"inputs":[{"internalType":"uint256","name":"","type":"uint256"}],"name":"proposals","outputs":[{"internalType":"string","name":"name","type":"string"},{"internalType":"string","name":"description","type":"string"},{"internalType":"uint256","name":"votingEnd","type":"uint256"}],"stateMutability":"view","type":"function"},{"inputs":[{"internalType":"uint256","name":"","type":"uint256"},{"internalType":"uint256","name":"","type":"uint256"}],"name":"proposalsByDao","outputs":[{"internalType":"uint256","name":"","type":"uint256"}],"stateMutability":"view","type":"function"},{"inputs":[],"name":"verifier","outputs":[{"internalType":"contract VoteVerifier","name":"","type":"address"}],"stateMutability":"view","type":"function"}],"evm":{"bytecode":{"linkReferences":{},"object":"60806040523462000030576200001e62000018620000d3565b6200018e565b6040516113d4620001b382396113d490f35b600080fd5b634e487b7160e01b600052604160045260246000fd5b90601f01601f191681019081106001600160401b038211176200006d57604052565b62000035565b906200008a6200008260405190565b92836200004b565b565b6001600160a01b031690565b90565b6001600160a01b038116036200003057565b905051906200008a826200009b565b9060208282031262000030576200009891620000ad565b620000986200158780380380620000ea8162000073565b928339810190620000bc565b90600019905b9181191691161790565b6200009862000098620000989290565b906200012a62000098620001329262000106565b8254620000f6565b9055565b62000098906200008c906001600160a01b031682565b620000989062000136565b62000098906200014c565b906001600160a01b0390620000fc565b906200018662000098620001329262000157565b825462000162565b620001aa6200008a91620001a460008062000116565b62000157565b60096200017256fe6080604052600436101561001257600080fd5b60003560e01c8063013cf08b146101125780630d68eb9e1461010d5780630faccaf11461010857806310ba5497146101035780631b4613cb146100fe5780631c0d850e146100f95780632b7ac3f3146100f45780632c72fdfc146100ef57806347c66140146100ea5780637089b312146100e55780637092d2c0146100e0578063a1d36ce7146100db578063b18f0de2146100d6578063bba7055e146100d1578063ccbbd260146100cc5763e85f857e0361012057610c22565b610ba7565b610aec565b610abf565b610a63565b610975565b610911565b6108ea565b61086f565b610783565b6106f3565b6106c6565b610675565b610580565b610434565b61036d565b805b0361012057565b600080fd5b9050359061013282610117565b565b906020828203126101205761014891610125565b90565b6101486101486101489290565b906101629061014b565b600052602052604060002090565b634e487b7160e01b600052602260045260246000fd5b90600160028304921680156101a6575b60208310146101a157565b610170565b91607f1691610196565b805460009392916101cd6101c383610186565b8085529360200190565b916001811690811561021f57506001146101e657505050565b6101f99192939450600052602060002090565b916000925b81841061020b5750500190565b8054848401526020909301926001016101fe565b92949550505060ff1916825215156020020190565b90610148916101b0565b634e487b7160e01b600052604160045260246000fd5b90601f01601f191681019081106001600160401b0382111761027557604052565b61023e565b906101326102949261028b60405190565b93848092610234565b0383610254565b6101489081565b610148905461029b565b6102b7906003610158565b6102c08161027a565b9161014860026102d26001850161027a565b93016102a2565b60005b8381106102ec5750506000910152565b81810151838201526020016102dc565b61031d61032660209361033093610311815190565b80835293849260200190565b958691016102d9565b601f01601f191690565b0190565b9052565b9392906103686101329361035a604093606089019089820360008b01526102fc565b9087820360208901526102fc565b940152565b3461012057610397610388610383366004610134565b6102ac565b60405191939193849384610338565b0390f35b919060408382031261012057610148906103b58185610125565b93602001610125565b634e487b7160e01b600052603260045260246000fd5b60028210156103ea576001905b91020190600090565b6103be565b610148916008021c81565b9061014891546103ef565b610413600491600092610158565b90600283101561043157506101489161042b916103d4565b906103fa565b80fd5b346101205761039761045061044a36600461039b565b90610405565b6040519182918290815260200190565b9061013261046d60405190565b9283610254565b6001600160401b03811161027557602090601f01601f19160190565b90826000939282370152565b909291926104b16104ac82610474565b610460565b938185526020850190828401116101205761013292610490565b9080601f83011215610120578160206101489335910161049c565b919091606081840312610120576104fd6060610460565b9281356001600160401b038111610120578161051a9184016104cb565b84526020820135906001600160401b0382116101205761053f8161054e9385016104cb565b60208601526040809301610125565b90830152565b9190604083820312610120578235906001600160401b038211610120576103b5816101489386016104e6565b3461012057610397610450610596366004610554565b90610dc0565b6001600160a01b031690565b6001600160a01b038116610119565b90503590610132826105a8565b919091608081840312610120576105db6080610460565b9281356001600160401b03811161012057816105f89184016104cb565b845260208201356001600160401b03811161012057816106199184016104cb565b60208501526040820135906001600160401b038211610120576106418161054e9385016104cb565b604086015260608093016105b7565b906020828203126101205781356001600160401b0381116101205761014892016105c4565b346101205761039761045061068b366004610650565b610c57565b90610162565b610148916008021c60ff1690565b906101489154610696565b610148906106c1600891600092610690565b6106a4565b34610120576103976106e16106dc366004610134565b6106af565b60405191829182901515815260200190565b34610120576103976106e1610709366004610134565b6110d8565b600091031261012057565b610148916008021c6001600160a01b031690565b906101489154610719565b6101486000600961072d565b6101489061059c906001600160a01b031682565b61014890610744565b61014890610758565b61033490610761565b602081019291610132919061076a565b346101205761079336600461070e565b61039761079e610738565b60405191829182610773565b90610148906040806107e06107ce60608501600088015186820360008801526102fc565b602087015185820360208701526102fc565b940151910152565b90610148916107aa565b906108086107fe835190565b8083529160200190565b908161081a6020830284019460200190565b926000915b83831061082e57505050505090565b9091929394602061085161084a838560019503875289516107e8565b9760200190565b930193019193929061081f565b6020808252610148929101906107f2565b346101205761039761088a610885366004610134565b6112b2565b6040519182918261085e565b6108a66108a260029390565b9190565b6000915b8383106108b75750505050565b6108d16108ca6001928451815260200190565b9260200190565b920191906108aa565b6040810192916101329190610896565b3461012057610397610905610900366004610134565b61138f565b604051918291826108da565b346101205761092a610924366004610554565b9061101c565b604051005b80548210156103ea576103e1600191600052602060002090565b610957600591600092610158565b90610960825490565b83101561043157506101489161042b9161092f565b346101205761039761045061098b36600461039b565b90610949565b90610148906060806109dc6109ca6109b860808601600089015187820360008901526102fc565b602088015186820360208801526102fc565b604087015185820360408701526102fc565b9401516001600160a01b0316910152565b9061014891610991565b90610a036107fe835190565b9081610a156020830284019460200190565b926000915b838310610a2957505050505090565b90919293946020610a4561084a838560019503875289516109ed565b9301930191939290610a1a565b6020808252610148929101906109f7565b3461012057610a7336600461070e565b610397610a7e610d99565b60405191829182610a52565b9060208282031261012057610148916105b7565b9061016290610761565b61014890610aba600791600092610a9e565b6103fa565b3461012057610397610450610ad5366004610a8a565b610aa8565b61014890610aba600691600092610a9e565b3461012057610397610450610b02366004610a8a565b610ada565b6101489061059c565b6101489054610b07565b610b25906002610158565b90610b2f8261027a565b91610b3c6001820161027a565b916101486003610b4e6002850161027a565b9301610b10565b94939161013293610b89610b9792610b7b60609560808b01908b820360008d01526102fc565b9089820360208b01526102fc565b9087820360408901526102fc565b9401906001600160a01b03169052565b3461012057610397610bc2610bbd366004610134565b610b1a565b90610bcf94929460405190565b94859485610b55565b80548210156103ea576103e1600491600052602060002090565b90600191600092610c01815490565b821015610c1e57610c13929350610bd8565b5090610b2f8261027a565b8380fd5b3461012057610397610bc2610c38366004610134565b610bf2565b602080825261014892910190610991565b6101489061014b565b61014890610c83610c6760405190565b8092610c77602083019182610c3d565b90810382520382610254565b610c95610c8e825190565b9160200190565b20610c4e565b6001600160401b0381116102755760208091020190565b90610cbf6104ac83610c9b565b918252565b6101486080610460565b90610132610d226003610cdf610cc4565b94610cf0610cec8261027a565b8752565b610d06610cff6001830161027a565b6020880152565b610d1c610d156002830161027a565b6040880152565b01610b10565b6001600160a01b03166060840152565b61014890610cce565b90610d44825490565b610d4d81610cb2565b92610d616020850191600052602060002090565b6000915b838310610d725750505050565b60046020600192610d8285610d32565b815201920192019190610d65565b61014890610d3b565b6101486001610d90565b9291602061036861013293604087019087820360008901526107aa565b610c8361014892610c7792610dd3600090565b50604051938492602084019283610da3565b9160001960089290920291821b911b5b9181191691161790565b9190610e10610148610e189361014b565b908354610de5565b9055565b61013291600091610dff565b818110610e33575050565b80610e416000600193610e1c565b01610e28565b9190601f8111610e5657505050565b610e6861013293600052602060002090565b906020601f840181900483019310610e8a575b6020601f909101040190610e28565b9091508190610e7b565b9060001960089091021c191690565b81610ead91610e94565b906002021790565b90610ebe815190565b906001600160401b03821161027557610ee182610edb8554610186565b85610e47565b602090601f8311600114610f0f57610e18929160009183610f04575b5050610ea3565b015190503880610efd565b601f19831691610f2485600052602060002090565b9260005b818110610f6357509160029391856001969410610f49575b50505002019055565b610f59910151601f841690610e94565b9055388080610f40565b91936020600181928787015181550195019201610f28565b9061013291610eb5565b9060001990610df5565b90610f9f610148610e189261014b565b8254610f85565b90610fe36040600261013294610fca60008201610fc4600088015190565b90610f7b565b610fdc60018201610fc4602088015190565b0192015190565b90610f8f565b9061013291610fa6565b80549190600160401b83101561027557826110169160016101329501815561092f565b90610dff565b61104b610148610132936110446110338286610dc0565b9461103f866003610158565b610fe9565b6005610158565b610ff3565b61105c6108a260029390565b6000915b83831061106d5750505050565b61108e61108760019261107f856102a2565b815260200190565b9260010190565b92019190611060565b9061033081604093611050565b90610132610294926110b560405190565b93848092611097565b610148906110a4565b9060028110156103ea576020020190565b6110ef6110f4916110e7600090565b506004610158565b6110be565b61112b6108a261014861111661111a611116611110600161014b565b876110c7565b5190565b94611125600061014b565b906110c7565b1190565b9061115461114861113e845490565b8084529260200190565b92600052602060002090565b9060005b8181106111655750505090565b90919261118161117a60019261107f876102a2565b9460010190565b929101611158565b906101489161112f565b90610132610294926111a460405190565b93848092611189565b61014890611193565b6101486060610460565b6111c86111b6565b606080825260208201526000604082015290565b6101486111c0565b60005b8281106111f357505050565b6020906111fe6111dc565b81840152016111e7565b9061013261121e61121884610cb2565b93610c9b565b601f1901602084016111e4565b634e487b7160e01b600052601160045260246000fd5b60001981146112505760010190565b61122b565b9061125e825190565b8110156103ea576020809102010190565b906101326112a260026112806111b6565b9461128d610cec8261027a565b61129c610cff6001830161027a565b016102a2565b6040840152565b6101489061126f565b6112c96112ce916112c1606090565b506005610158565b6111ad565b6112de6112d9825190565b611208565b906112e9600061014b565b6112f4610148835190565b81101561133f5761133a9061131f61131a60036113146111168588611255565b90610158565b6112a9565b6113298286611255565b526113348185611255565b50611241565b6112e9565b505090565b6001600160401b0381116102755760200290565b6104ac61014891611344565b369037565b9061013261137f61137984611358565b93611344565b83611364565b6101486002611369565b6110ef610148916110e761138556fea2646970667358221220da7cc7d87c4b74f11e960eb0cf732e2a5c1ba54f94bd75c7694aeacfb294031764736f6c63430008140033","opcodes":"PUSH1 0x80 PUSH1 0x40 MSTORE CALLVALUE PUSH3 0x30 JUMPI PUSH3 0x1E PUSH3 0x18 PUSH3 0xD3 JUMP JUMPDEST PUSH3 0x18E JUMP JUMPDEST PUSH1 0x40 MLOAD PUSH2 0x13D4 PUSH3 0x1B3 DUP3 CODECOPY PUSH2 0x13D4 SWAP1 RETURN JUMPDEST PUSH1 0x0 DUP1 REVERT JUMPDEST PUSH4 0x4E487B71 PUSH1 0xE0 SHL PUSH1 0x0 MSTORE PUSH1 0x41 PUSH1 0x4 MSTORE PUSH1 0x24 PUSH1 0x0 REVERT JUMPDEST SWAP1 PUSH1 0x1F ADD PUSH1 0x1F NOT AND DUP2 ADD SWAP1 DUP2 LT PUSH1 0x1 PUSH1 0x1 PUSH1 0x40 SHL SUB DUP3 GT OR PUSH3 0x6D JUMPI PUSH1 0x40 MSTORE JUMP JUMPDEST PUSH3 0x35 JUMP JUMPDEST SWAP1 PUSH3 0x8A PUSH3 0x82 PUSH1 0x40 MLOAD SWAP1 JUMP JUMPDEST SWAP3 DUP4 PUSH3 0x4B JUMP JUMPDEST JUMP JUMPDEST PUSH1 0x1 PUSH1 0x1 PUSH1 0xA0 SHL SUB AND SWAP1 JUMP JUMPDEST SWAP1 JUMP JUMPDEST PUSH1 0x1 PUSH1 0x1 PUSH1 0xA0 SHL SUB DUP2 AND SUB PUSH3 0x30 JUMPI JUMP JUMPDEST SWAP1 POP MLOAD SWAP1 PUSH3 0x8A DUP3 PUSH3 0x9B JUMP JUMPDEST SWAP1 PUSH1 0x20 DUP3 DUP3 SUB SLT PUSH3 0x30 JUMPI PUSH3 0x98 SWAP2 PUSH3 0xAD JUMP JUMPDEST PUSH3 0x98 PUSH3 0x1587 DUP1 CODESIZE SUB DUP1 PUSH3 0xEA DUP2 PUSH3 0x73 JUMP JUMPDEST SWAP3 DUP4 CODECOPY DUP2 ADD SWAP1 PUSH3 0xBC JUMP JUMPDEST SWAP1 PUSH1 0x0 NOT SWAP1 JUMPDEST SWAP2 DUP2 NOT AND SWAP2 AND OR SWAP1 JUMP JUMPDEST PUSH3 0x98 PUSH3 0x98 PUSH3 0x98 SWAP3 SWAP1 JUMP JUMPDEST SWAP1 PUSH3 0x12A PUSH3 0x98 PUSH3 0x132 SWAP3 PUSH3 0x106 JUMP JUMPDEST DUP3 SLOAD PUSH3 0xF6 JUMP JUMPDEST SWAP1 SSTORE JUMP JUMPDEST PUSH3 0x98 SWAP1 PUSH3 0x8C SWAP1 PUSH1 0x1 PUSH1 0x1 PUSH1 0xA0 SHL SUB AND DUP3 JUMP JUMPDEST PUSH3 0x98 SWAP1 PUSH3 0x136 JUMP JUMPDEST PUSH3 0x98 SWAP1 PUSH3 0x14C JUMP JUMPDEST SWAP1 PUSH1 0x1 PUSH1 0x1 PUSH1 0xA0 SHL SUB SWAP1 PUSH3 0xFC JUMP JUMPDEST SWAP1 PUSH3 0x186 PUSH3 0x98 PUSH3 0x132 SWAP3 PUSH3 0x157 JUMP JUMPDEST DUP3 SLOAD PUSH3 0x162 JUMP JUMPDEST PUSH3 0x1AA PUSH3 0x8A SWAP2 PUSH3 0x1A4 PUSH1 0x0 DUP1 PUSH3 0x116 JUMP JUMPDEST PUSH3 0x157 JUMP JUMPDEST PUSH1 0x9 PUSH3 0x172 JUMP INVALID PUSH1 0x80 PUSH1 0x40 MSTORE PUSH1 0x4 CALLDATASIZE LT ISZERO PUSH2 0x12 JUMPI PUSH1 0x0 DUP1 REVERT JUMPDEST PUSH1 0x0 CALLDATALOAD PUSH1 0xE0 SHR DUP1 PUSH4 0x13CF08B EQ PUSH2 0x112 JUMPI DUP1 PUSH4 0xD68EB9E EQ PUSH2 0x10D JUMPI DUP1 PUSH4 0xFACCAF1 EQ PUSH2 0x108 JUMPI DUP1 PUSH4 0x10BA5497 EQ PUSH2 0x103 JUMPI DUP1 PUSH4 0x1B4613CB EQ PUSH2 0xFE JUMPI DUP1 PUSH4 0x1C0D850E EQ PUSH2 0xF9 JUMPI DUP1 PUSH4 0x2B7AC3F3 EQ PUSH2 0xF4 JUMPI DUP1 PUSH4 0x2C72FDFC EQ PUSH2 0xEF JUMPI DUP1 PUSH4 0x47C66140 EQ PUSH2 0xEA JUMPI DUP1 PUSH4 0x7089B312 EQ PUSH2 0xE5 JUMPI DUP1 PUSH4 0x7092D2C0 EQ PUSH2 0xE0 JUMPI DUP1 PUSH4 0xA1D36CE7 EQ PUSH2 0xDB JUMPI DUP1 PUSH4 0xB18F0DE2 EQ PUSH2 0xD6 JUMPI DUP1 PUSH4 0xBBA7055E EQ PUSH2 0xD1 JUMPI DUP1 PUSH4 0xCCBBD260 EQ PUSH2 0xCC JUMPI PUSH4 0xE85F857E SUB PUSH2 0x120 JUMPI PUSH2 0xC22 JUMP JUMPDEST PUSH2 0xBA7 JUMP JUMPDEST PUSH2 0xAEC JUMP JUMPDEST PUSH2 0xABF JUMP JUMPDEST PUSH2 0xA63 JUMP JUMPDEST PUSH2 0x975 JUMP JUMPDEST PUSH2 0x911 JUMP JUMPDEST PUSH2 0x8EA JUMP JUMPDEST PUSH2 0x86F JUMP JUMPDEST PUSH2 0x783 JUMP JUMPDEST PUSH2 0x6F3 JUMP JUMPDEST PUSH2 0x6C6 JUMP JUMPDEST PUSH2 0x675 JUMP JUMPDEST PUSH2 0x580 JUMP JUMPDEST PUSH2 0x434 JUMP JUMPDEST PUSH2 0x36D JUMP JUMPDEST DUP1 JUMPDEST SUB PUSH2 0x120 JUMPI JUMP JUMPDEST PUSH1 0x0 DUP1 REVERT JUMPDEST SWAP1 POP CALLDATALOAD SWAP1 PUSH2 0x132 DUP3 PUSH2 0x117 JUMP JUMPDEST JUMP JUMPDEST SWAP1 PUSH1 0x20 DUP3 DUP3 SUB SLT PUSH2 0x120 JUMPI PUSH2 0x148 SWAP2 PUSH2 0x125 JUMP JUMPDEST SWAP1 JUMP JUMPDEST PUSH2 0x148 PUSH2 0x148 PUSH2 0x148 SWAP3 SWAP1 JUMP JUMPDEST SWAP1 PUSH2 0x162 SWAP1 PUSH2 0x14B JUMP JUMPDEST PUSH1 0x0 MSTORE PUSH1 0x20 MSTORE PUSH1 0x40 PUSH1 0x0 KECCAK256 SWAP1 JUMP JUMPDEST PUSH4 0x4E487B71 PUSH1 0xE0 SHL PUSH1 0x0 MSTORE PUSH1 0x22 PUSH1 0x4 MSTORE PUSH1 0x24 PUSH1 0x0 REVERT JUMPDEST SWAP1 PUSH1 0x1 PUSH1 0x2 DUP4 DIV SWAP3 AND DUP1 ISZERO PUSH2 0x1A6 JUMPI JUMPDEST PUSH1 0x20 DUP4 LT EQ PUSH2 0x1A1 JUMPI JUMP JUMPDEST PUSH2 0x170 JUMP JUMPDEST SWAP2 PUSH1 0x7F AND SWAP2 PUSH2 0x196 JUMP JUMPDEST DUP1 SLOAD PUSH1 0x0 SWAP4 SWAP3 SWAP2 PUSH2 0x1CD PUSH2 0x1C3 DUP4 PUSH2 0x186 JUMP JUMPDEST DUP1 DUP6 MSTORE SWAP4 PUSH1 0x20 ADD SWAP1 JUMP JUMPDEST SWAP2 PUSH1 0x1 DUP2 AND SWAP1 DUP2 ISZERO PUSH2 0x21F JUMPI POP PUSH1 0x1 EQ PUSH2 0x1E6 JUMPI POP POP POP JUMP JUMPDEST PUSH2 0x1F9 SWAP2 SWAP3 SWAP4 SWAP5 POP PUSH1 0x0 MSTORE PUSH1 0x20 PUSH1 0x0 KECCAK256 SWAP1 JUMP JUMPDEST SWAP2 PUSH1 0x0 SWAP3 JUMPDEST DUP2 DUP5 LT PUSH2 0x20B JUMPI POP POP ADD SWAP1 JUMP JUMPDEST DUP1 SLOAD DUP5 DUP5 ADD MSTORE PUSH1 0x20 SWAP1 SWAP4 ADD SWAP3 PUSH1 0x1 ADD PUSH2 0x1FE JUMP JUMPDEST SWAP3 SWAP5 SWAP6 POP POP POP PUSH1 0xFF NOT AND DUP3 MSTORE ISZERO ISZERO PUSH1 0x20 MUL ADD SWAP1 JUMP JUMPDEST SWAP1 PUSH2 0x148 SWAP2 PUSH2 0x1B0 JUMP JUMPDEST PUSH4 0x4E487B71 PUSH1 0xE0 SHL PUSH1 0x0 MSTORE PUSH1 0x41 PUSH1 0x4 MSTORE PUSH1 0x24 PUSH1 0x0 REVERT JUMPDEST SWAP1 PUSH1 0x1F ADD PUSH1 0x1F NOT AND DUP2 ADD SWAP1 DUP2 LT PUSH1 0x1 PUSH1 0x1 PUSH1 0x40 SHL SUB DUP3 GT OR PUSH2 0x275 JUMPI PUSH1 0x40 MSTORE JUMP JUMPDEST PUSH2 0x23E JUMP JUMPDEST SWAP1 PUSH2 0x132 PUSH2 0x294 SWAP3 PUSH2 0x28B PUSH1 0x40 MLOAD SWAP1 JUMP JUMPDEST SWAP4 DUP5 DUP1 SWAP3 PUSH2 0x234 JUMP JUMPDEST SUB DUP4 PUSH2 0x254 JUMP JUMPDEST PUSH2 0x148 SWAP1 DUP2 JUMP JUMPDEST PUSH2 0x148 SWAP1 SLOAD PUSH2 0x29B JUMP JUMPDEST PUSH2 0x2B7 SWAP1 PUSH1 0x3 PUSH2 0x158 JUMP JUMPDEST PUSH2 0x2C0 DUP2 PUSH2 0x27A JUMP JUMPDEST SWAP2 PUSH2 0x148 PUSH1 0x2 PUSH2 0x2D2 PUSH1 0x1 DUP6 ADD PUSH2 0x27A JUMP JUMPDEST SWAP4 ADD PUSH2 0x2A2 JUMP JUMPDEST PUSH1 0x0 JUMPDEST DUP4 DUP2 LT PUSH2 0x2EC JUMPI POP POP PUSH1 0x0 SWAP2 ADD MSTORE JUMP JUMPDEST DUP2 DUP2 ADD MLOAD DUP4 DUP3 ADD MSTORE PUSH1 0x20 ADD PUSH2 0x2DC JUMP JUMPDEST PUSH2 0x31D PUSH2 0x326 PUSH1 0x20 SWAP4 PUSH2 0x330 SWAP4 PUSH2 0x311 DUP2 MLOAD SWAP1 JUMP JUMPDEST DUP1 DUP4 MSTORE SWAP4 DUP5 SWAP3 PUSH1 0x20 ADD SWAP1 JUMP JUMPDEST SWAP6 DUP7 SWAP2 ADD PUSH2 0x2D9 JUMP JUMPDEST PUSH1 0x1F ADD PUSH1 0x1F NOT AND SWAP1 JUMP JUMPDEST ADD SWAP1 JUMP JUMPDEST SWAP1 MSTORE JUMP JUMPDEST SWAP4 SWAP3 SWAP1 PUSH2 0x368 PUSH2 0x132 SWAP4 PUSH2 0x35A PUSH1 0x40 SWAP4 PUSH1 0x60 DUP10 ADD SWAP1 DUP10 DUP3 SUB PUSH1 0x0 DUP12 ADD MSTORE PUSH2 0x2FC JUMP JUMPDEST SWAP1 DUP8 DUP3 SUB PUSH1 0x20 DUP10 ADD MSTORE PUSH2 0x2FC JUMP JUMPDEST SWAP5 ADD MSTORE JUMP JUMPDEST CALLVALUE PUSH2 0x120 JUMPI PUSH2 0x397 PUSH2 0x388 PUSH2 0x383 CALLDATASIZE PUSH1 0x4 PUSH2 0x134 JUMP JUMPDEST PUSH2 0x2AC JUMP JUMPDEST PUSH1 0x40 MLOAD SWAP2 SWAP4 SWAP2 SWAP4 DUP5 SWAP4 DUP5 PUSH2 0x338 JUMP JUMPDEST SUB SWAP1 RETURN JUMPDEST SWAP2 SWAP1 PUSH1 0x40 DUP4 DUP3 SUB SLT PUSH2 0x120 JUMPI PUSH2 0x148 SWAP1 PUSH2 0x3B5 DUP2 DUP6 PUSH2 0x125 JUMP JUMPDEST SWAP4 PUSH1 0x20 ADD PUSH2 0x125 JUMP JUMPDEST PUSH4 0x4E487B71 PUSH1 0xE0 SHL PUSH1 0x0 MSTORE PUSH1 0x32 PUSH1 0x4 MSTORE PUSH1 0x24 PUSH1 0x0 REVERT JUMPDEST PUSH1 0x2 DUP3 LT ISZERO PUSH2 0x3EA JUMPI PUSH1 0x1 SWAP1 JUMPDEST SWAP2 MUL ADD SWAP1 PUSH1 0x0 SWAP1 JUMP JUMPDEST PUSH2 0x3BE JUMP JUMPDEST PUSH2 0x148 SWAP2 PUSH1 0x8 MUL SHR DUP2 JUMP JUMPDEST SWAP1 PUSH2 0x148 SWAP2 SLOAD PUSH2 0x3EF JUMP JUMPDEST PUSH2 0x413 PUSH1 0x4 SWAP2 PUSH1 0x0 SWAP3 PUSH2 0x158 JUMP JUMPDEST SWAP1 PUSH1 0x2 DUP4 LT ISZERO PUSH2 0x431 JUMPI POP PUSH2 0x148 SWAP2 PUSH2 0x42B SWAP2 PUSH2 0x3D4 JUMP JUMPDEST SWAP1 PUSH2 0x3FA JUMP JUMPDEST DUP1 REVERT JUMPDEST CALLVALUE PUSH2 0x120 JUMPI PUSH2 0x397 PUSH2 0x450 PUSH2 0x44A CALLDATASIZE PUSH1 0x4 PUSH2 0x39B JUMP JUMPDEST SWAP1 PUSH2 0x405 JUMP JUMPDEST PUSH1 0x40 MLOAD SWAP2 DUP3 SWAP2 DUP3 SWAP1 DUP2 MSTORE PUSH1 0x20 ADD SWAP1 JUMP JUMPDEST SWAP1 PUSH2 0x132 PUSH2 0x46D PUSH1 0x40 MLOAD SWAP1 JUMP JUMPDEST SWAP3 DUP4 PUSH2 0x254 JUMP JUMPDEST PUSH1 0x1 PUSH1 0x1 PUSH1 0x40 SHL SUB DUP2 GT PUSH2 0x275 JUMPI PUSH1 0x20 SWAP1 PUSH1 0x1F ADD PUSH1 0x1F NOT AND ADD SWAP1 JUMP JUMPDEST SWAP1 DUP3 PUSH1 0x0 SWAP4 SWAP3 DUP3 CALLDATACOPY ADD MSTORE JUMP JUMPDEST SWAP1 SWAP3 SWAP2 SWAP3 PUSH2 0x4B1 PUSH2 0x4AC DUP3 PUSH2 0x474 JUMP JUMPDEST PUSH2 0x460 JUMP JUMPDEST SWAP4 DUP2 DUP6 MSTORE PUSH1 0x20 DUP6 ADD SWAP1 DUP3 DUP5 ADD GT PUSH2 0x120 JUMPI PUSH2 0x132 SWAP3 PUSH2 0x490 JUMP JUMPDEST SWAP1 DUP1 PUSH1 0x1F DUP4 ADD SLT ISZERO PUSH2 0x120 JUMPI DUP2 PUSH1 0x20 PUSH2 0x148 SWAP4 CALLDATALOAD SWAP2 ADD PUSH2 0x49C JUMP JUMPDEST SWAP2 SWAP1 SWAP2 PUSH1 0x60 DUP2 DUP5 SUB SLT PUSH2 0x120 JUMPI PUSH2 0x4FD PUSH1 0x60 PUSH2 0x460 JUMP JUMPDEST SWAP3 DUP2 CALLDATALOAD PUSH1 0x1 PUSH1 0x1 PUSH1 0x40 SHL SUB DUP2 GT PUSH2 0x120 JUMPI DUP2 PUSH2 0x51A SWAP2 DUP5 ADD PUSH2 0x4CB JUMP JUMPDEST DUP5 MSTORE PUSH1 0x20 DUP3 ADD CALLDATALOAD SWAP1 PUSH1 0x1 PUSH1 0x1 PUSH1 0x40 SHL SUB DUP3 GT PUSH2 0x120 JUMPI PUSH2 0x53F DUP2 PUSH2 0x54E SWAP4 DUP6 ADD PUSH2 0x4CB JUMP JUMPDEST PUSH1 0x20 DUP7 ADD MSTORE PUSH1 0x40 DUP1 SWAP4 ADD PUSH2 0x125 JUMP JUMPDEST SWAP1 DUP4 ADD MSTORE JUMP JUMPDEST SWAP2 SWAP1 PUSH1 0x40 DUP4 DUP3 SUB SLT PUSH2 0x120 JUMPI DUP3 CALLDATALOAD SWAP1 PUSH1 0x1 PUSH1 0x1 PUSH1 0x40 SHL SUB DUP3 GT PUSH2 0x120 JUMPI PUSH2 0x3B5 DUP2 PUSH2 0x148 SWAP4 DUP7 ADD PUSH2 0x4E6 JUMP JUMPDEST CALLVALUE PUSH2 0x120 JUMPI PUSH2 0x397 PUSH2 0x450 PUSH2 0x596 CALLDATASIZE PUSH1 0x4 PUSH2 0x554 JUMP JUMPDEST SWAP1 PUSH2 0xDC0 JUMP JUMPDEST PUSH1 0x1 PUSH1 0x1 PUSH1 0xA0 SHL SUB AND SWAP1 JUMP JUMPDEST PUSH1 0x1 PUSH1 0x1 PUSH1 0xA0 SHL SUB DUP2 AND PUSH2 0x119 JUMP JUMPDEST SWAP1 POP CALLDATALOAD SWAP1 PUSH2 0x132 DUP3 PUSH2 0x5A8 JUMP JUMPDEST SWAP2 SWAP1 SWAP2 PUSH1 0x80 DUP2 DUP5 SUB SLT PUSH2 0x120 JUMPI PUSH2 0x5DB PUSH1 0x80 PUSH2 0x460 JUMP JUMPDEST SWAP3 DUP2 CALLDATALOAD PUSH1 0x1 PUSH1 0x1 PUSH1 0x40 SHL SUB DUP2 GT PUSH2 0x120 JUMPI DUP2 PUSH2 0x5F8 SWAP2 DUP5 ADD PUSH2 0x4CB JUMP JUMPDEST DUP5 MSTORE PUSH1 0x20 DUP3 ADD CALLDATALOAD PUSH1 0x1 PUSH1 0x1 PUSH1 0x40 SHL SUB DUP2 GT PUSH2 0x120 JUMPI DUP2 PUSH2 0x619 SWAP2 DUP5 ADD PUSH2 0x4CB JUMP JUMPDEST PUSH1 0x20 DUP6 ADD MSTORE PUSH1 0x40 DUP3 ADD CALLDATALOAD SWAP1 PUSH1 0x1 PUSH1 0x1 PUSH1 0x40 SHL SUB DUP3 GT PUSH2 0x120 JUMPI PUSH2 0x641 DUP2 PUSH2 0x54E SWAP4 DUP6 ADD PUSH2 0x4CB JUMP JUMPDEST PUSH1 0x40 DUP7 ADD MSTORE PUSH1 0x60 DUP1 SWAP4 ADD PUSH2 0x5B7 JUMP JUMPDEST SWAP1 PUSH1 0x20 DUP3 DUP3 SUB SLT PUSH2 0x120 JUMPI DUP2 CALLDATALOAD PUSH1 0x1 PUSH1 0x1 PUSH1 0x40 SHL SUB DUP2 GT PUSH2 0x120 JUMPI PUSH2 0x148 SWAP3 ADD PUSH2 0x5C4 JUMP JUMPDEST CALLVALUE PUSH2 0x120 JUMPI PUSH2 0x397 PUSH2 0x450 PUSH2 0x68B CALLDATASIZE PUSH1 0x4 PUSH2 0x650 JUMP JUMPDEST PUSH2 0xC57 JUMP JUMPDEST SWAP1 PUSH2 0x162 JUMP JUMPDEST PUSH2 0x148 SWAP2 PUSH1 0x8 MUL SHR PUSH1 0xFF AND SWAP1 JUMP JUMPDEST SWAP1 PUSH2 0x148 SWAP2 SLOAD PUSH2 0x696 JUMP JUMPDEST PUSH2 0x148 SWAP1 PUSH2 0x6C1 PUSH1 0x8 SWAP2 PUSH1 0x0 SWAP3 PUSH2 0x690 JUMP JUMPDEST PUSH2 0x6A4 JUMP JUMPDEST CALLVALUE PUSH2 0x120 JUMPI PUSH2 0x397 PUSH2 0x6E1 PUSH2 0x6DC CALLDATASIZE PUSH1 0x4 PUSH2 0x134 JUMP JUMPDEST PUSH2 0x6AF JUMP JUMPDEST PUSH1 0x40 MLOAD SWAP2 DUP3 SWAP2 DUP3 SWAP1 ISZERO ISZERO DUP2 MSTORE PUSH1 0x20 ADD SWAP1 JUMP JUMPDEST CALLVALUE PUSH2 0x120 JUMPI PUSH2 0x397 PUSH2 0x6E1 PUSH2 0x709 CALLDATASIZE PUSH1 0x4 PUSH2 0x134 JUMP JUMPDEST PUSH2 0x10D8 JUMP JUMPDEST PUSH1 0x0 SWAP2 SUB SLT PUSH2 0x120 JUMPI JUMP JUMPDEST PUSH2 0x148 SWAP2 PUSH1 0x8 MUL SHR PUSH1 0x1 PUSH1 0x1 PUSH1 0xA0 SHL SUB AND SWAP1 JUMP JUMPDEST SWAP1 PUSH2 0x148 SWAP2 SLOAD PUSH2 0x719 JUMP JUMPDEST PUSH2 0x148 PUSH1 0x0 PUSH1 0x9 PUSH2 0x72D JUMP JUMPDEST PUSH2 0x148 SWAP1 PUSH2 0x59C SWAP1 PUSH1 0x1 PUSH1 0x1 PUSH1 0xA0 SHL SUB AND DUP3 JUMP JUMPDEST PUSH2 0x148 SWAP1 PUSH2 0x744 JUMP JUMPDEST PUSH2 0x148 SWAP1 PUSH2 0x758 JUMP JUMPDEST PUSH2 0x334 SWAP1 PUSH2 0x761 JUMP JUMPDEST PUSH1 0x20 DUP2 ADD SWAP3 SWAP2 PUSH2 0x132 SWAP2 SWAP1 PUSH2 0x76A JUMP JUMPDEST CALLVALUE PUSH2 0x120 JUMPI PUSH2 0x793 CALLDATASIZE PUSH1 0x4 PUSH2 0x70E JUMP JUMPDEST PUSH2 0x397 PUSH2 0x79E PUSH2 0x738 JUMP JUMPDEST PUSH1 0x40 MLOAD SWAP2 DUP3 SWAP2 DUP3 PUSH2 0x773 JUMP JUMPDEST SWAP1 PUSH2 0x148 SWAP1 PUSH1 0x40 DUP1 PUSH2 0x7E0 PUSH2 0x7CE PUSH1 0x60 DUP6 ADD PUSH1 0x0 DUP9 ADD MLOAD DUP7 DUP3 SUB PUSH1 0x0 DUP9 ADD MSTORE PUSH2 0x2FC JUMP JUMPDEST PUSH1 0x20 DUP8 ADD MLOAD DUP6 DUP3 SUB PUSH1 0x20 DUP8 ADD MSTORE PUSH2 0x2FC JUMP JUMPDEST SWAP5 ADD MLOAD SWAP2 ADD MSTORE JUMP JUMPDEST SWAP1 PUSH2 0x148 SWAP2 PUSH2 0x7AA JUMP JUMPDEST SWAP1 PUSH2 0x808 PUSH2 0x7FE DUP4 MLOAD SWAP1 JUMP JUMPDEST DUP1 DUP4 MSTORE SWAP2 PUSH1 0x20 ADD SWAP1 JUMP JUMPDEST SWAP1 DUP2 PUSH2 0x81A PUSH1 0x20 DUP4 MUL DUP5 ADD SWAP5 PUSH1 0x20 ADD SWAP1 JUMP JUMPDEST SWAP3 PUSH1 0x0 SWAP2 JUMPDEST DUP4 DUP4 LT PUSH2 0x82E JUMPI POP POP POP POP POP SWAP1 JUMP JUMPDEST SWAP1 SWAP2 SWAP3 SWAP4 SWAP5 PUSH1 0x20 PUSH2 0x851 PUSH2 0x84A DUP4 DUP6 PUSH1 0x1 SWAP6 SUB DUP8 MSTORE DUP10 MLOAD PUSH2 0x7E8 JUMP JUMPDEST SWAP8 PUSH1 0x20 ADD SWAP1 JUMP JUMPDEST SWAP4 ADD SWAP4 ADD SWAP2 SWAP4 SWAP3 SWAP1 PUSH2 0x81F JUMP JUMPDEST PUSH1 0x20 DUP1 DUP3 MSTORE PUSH2 0x148 SWAP3 SWAP2 ADD SWAP1 PUSH2 0x7F2 JUMP JUMPDEST CALLVALUE PUSH2 0x120 JUMPI PUSH2 0x397 PUSH2 0x88A PUSH2 0x885 CALLDATASIZE PUSH1 0x4 PUSH2 0x134 JUMP JUMPDEST PUSH2 0x12B2 JUMP JUMPDEST PUSH1 0x40 MLOAD SWAP2 DUP3 SWAP2 DUP3 PUSH2 0x85E JUMP JUMPDEST PUSH2 0x8A6 PUSH2 0x8A2 PUSH1 0x2 SWAP4 SWAP1 JUMP JUMPDEST SWAP2 SWAP1 JUMP JUMPDEST PUSH1 0x0 SWAP2 JUMPDEST DUP4 DUP4 LT PUSH2 0x8B7 JUMPI POP POP POP POP JUMP JUMPDEST PUSH2 0x8D1 PUSH2 0x8CA PUSH1 0x1 SWAP3 DUP5 MLOAD DUP2 MSTORE PUSH1 0x20 ADD SWAP1 JUMP JUMPDEST SWAP3 PUSH1 0x20 ADD SWAP1 JUMP JUMPDEST SWAP3 ADD SWAP2 SWAP1 PUSH2 0x8AA JUMP JUMPDEST PUSH1 0x40 DUP2 ADD SWAP3 SWAP2 PUSH2 0x132 SWAP2 SWAP1 PUSH2 0x896 JUMP JUMPDEST CALLVALUE PUSH2 0x120 JUMPI PUSH2 0x397 PUSH2 0x905 PUSH2 0x900 CALLDATASIZE PUSH1 0x4 PUSH2 0x134 JUMP JUMPDEST PUSH2 0x138F JUMP JUMPDEST PUSH1 0x40 MLOAD SWAP2 DUP3 SWAP2 DUP3 PUSH2 0x8DA JUMP JUMPDEST CALLVALUE PUSH2 0x120 JUMPI PUSH2 0x92A PUSH2 0x924 CALLDATASIZE PUSH1 0x4 PUSH2 0x554 JUMP JUMPDEST SWAP1 PUSH2 0x101C JUMP JUMPDEST PUSH1 0x40 MLOAD STOP JUMPDEST DUP1 SLOAD DUP3 LT ISZERO PUSH2 0x3EA JUMPI PUSH2 0x3E1 PUSH1 0x1 SWAP2 PUSH1 0x0 MSTORE PUSH1 0x20 PUSH1 0x0 KECCAK256 SWAP1 JUMP JUMPDEST PUSH2 0x957 PUSH1 0x5 SWAP2 PUSH1 0x0 SWAP3 PUSH2 0x158 JUMP JUMPDEST SWAP1 PUSH2 0x960 DUP3 SLOAD SWAP1 JUMP JUMPDEST DUP4 LT ISZERO PUSH2 0x431 JUMPI POP PUSH2 0x148 SWAP2 PUSH2 0x42B SWAP2 PUSH2 0x92F JUMP JUMPDEST CALLVALUE PUSH2 0x120 JUMPI PUSH2 0x397 PUSH2 0x450 PUSH2 0x98B CALLDATASIZE PUSH1 0x4 PUSH2 0x39B JUMP JUMPDEST SWAP1 PUSH2 0x949 JUMP JUMPDEST SWAP1 PUSH2 0x148 SWAP1 PUSH1 0x60 DUP1 PUSH2 0x9DC PUSH2 0x9CA PUSH2 0x9B8 PUSH1 0x80 DUP7 ADD PUSH1 0x0 DUP10 ADD MLOAD DUP8 DUP3 SUB PUSH1 0x0 DUP10 ADD MSTORE PUSH2 0x2FC JUMP JUMPDEST PUSH1 0x20 DUP9 ADD MLOAD DUP7 DUP3 SUB PUSH1 0x20 DUP9 ADD MSTORE PUSH2 0x2FC JUMP JUMPDEST PUSH1 0x40 DUP8 ADD MLOAD DUP6 DUP3 SUB PUSH1 0x40 DUP8 ADD MSTORE PUSH2 0x2FC JUMP JUMPDEST SWAP5 ADD MLOAD PUSH1 0x1 PUSH1 0x1 PUSH1 0xA0 SHL SUB AND SWAP2 ADD MSTORE JUMP JUMPDEST SWAP1 PUSH2 0x148 SWAP2 PUSH2 0x991 JUMP JUMPDEST SWAP1 PUSH2 0xA03 PUSH2 0x7FE DUP4 MLOAD SWAP1 JUMP JUMPDEST SWAP1 DUP2 PUSH2 0xA15 PUSH1 0x20 DUP4 MUL DUP5 ADD SWAP5 PUSH1 0x20 ADD SWAP1 JUMP JUMPDEST SWAP3 PUSH1 0x0 SWAP2 JUMPDEST DUP4 DUP4 LT PUSH2 0xA29 JUMPI POP POP POP POP POP SWAP1 JUMP JUMPDEST SWAP1 SWAP2 SWAP3 SWAP4 SWAP5 PUSH1 0x20 PUSH2 0xA45 PUSH2 0x84A DUP4 DUP6 PUSH1 0x1 SWAP6 SUB DUP8 MSTORE DUP10 MLOAD PUSH2 0x9ED JUMP JUMPDEST SWAP4 ADD SWAP4 ADD SWAP2 SWAP4 SWAP3 SWAP1 PUSH2 0xA1A JUMP JUMPDEST PUSH1 0x20 DUP1 DUP3 MSTORE PUSH2 0x148 SWAP3 SWAP2 ADD SWAP1 PUSH2 0x9F7 JUMP JUMPDEST CALLVALUE PUSH2 0x120 JUMPI PUSH2 0xA73 CALLDATASIZE PUSH1 0x4 PUSH2 0x70E JUMP JUMPDEST PUSH2 0x397 PUSH2 0xA7E PUSH2 0xD99 JUMP JUMPDEST PUSH1 0x40 MLOAD SWAP2 DUP3 SWAP2 DUP3 PUSH2 0xA52 JUMP JUMPDEST SWAP1 PUSH1 0x20 DUP3 DUP3 SUB SLT PUSH2 0x120 JUMPI PUSH2 0x148 SWAP2 PUSH2 0x5B7 JUMP JUMPDEST SWAP1 PUSH2 0x162 SWAP1 PUSH2 0x761 JUMP JUMPDEST PUSH2 0x148 SWAP1 PUSH2 0xABA PUSH1 0x7 SWAP2 PUSH1 0x0 SWAP3 PUSH2 0xA9E JUMP JUMPDEST PUSH2 0x3FA JUMP JUMPDEST CALLVALUE PUSH2 0x120 JUMPI PUSH2 0x397 PUSH2 0x450 PUSH2 0xAD5 CALLDATASIZE PUSH1 0x4 PUSH2 0xA8A JUMP JUMPDEST PUSH2 0xAA8 JUMP JUMPDEST PUSH2 0x148 SWAP1 PUSH2 0xABA PUSH1 0x6 SWAP2 PUSH1 0x0 SWAP3 PUSH2 0xA9E JUMP JUMPDEST CALLVALUE PUSH2 0x120 JUMPI PUSH2 0x397 PUSH2 0x450 PUSH2 0xB02 CALLDATASIZE PUSH1 0x4 PUSH2 0xA8A JUMP JUMPDEST PUSH2 0xADA JUMP JUMPDEST PUSH2 0x148 SWAP1 PUSH2 0x59C JUMP JUMPDEST PUSH2 0x148 SWAP1 SLOAD PUSH2 0xB07 JUMP JUMPDEST PUSH2 0xB25 SWAP1 PUSH1 0x2 PUSH2 0x158 JUMP JUMPDEST SWAP1 PUSH2 0xB2F DUP3 PUSH2 0x27A JUMP JUMPDEST SWAP2 PUSH2 0xB3C PUSH1 0x1 DUP3 ADD PUSH2 0x27A JUMP JUMPDEST SWAP2 PUSH2 0x148 PUSH1 0x3 PUSH2 0xB4E PUSH1 0x2 DUP6 ADD PUSH2 0x27A JUMP JUMPDEST SWAP4 ADD PUSH2 0xB10 JUMP JUMPDEST SWAP5 SWAP4 SWAP2 PUSH2 0x132 SWAP4 PUSH2 0xB89 PUSH2 0xB97 SWAP3 PUSH2 0xB7B PUSH1 0x60 SWAP6 PUSH1 0x80 DUP12 ADD SWAP1 DUP12 DUP3 SUB PUSH1 0x0 DUP14 ADD MSTORE PUSH2 0x2FC JUMP JUMPDEST SWAP1 DUP10 DUP3 SUB PUSH1 0x20 DUP12 ADD MSTORE PUSH2 0x2FC JUMP JUMPDEST SWAP1 DUP8 DUP3 SUB PUSH1 0x40 DUP10 ADD MSTORE PUSH2 0x2FC JUMP JUMPDEST SWAP5 ADD SWAP1 PUSH1 0x1 PUSH1 0x1 PUSH1 0xA0 SHL SUB AND SWAP1 MSTORE JUMP JUMPDEST CALLVALUE PUSH2 0x120 JUMPI PUSH2 0x397 PUSH2 0xBC2 PUSH2 0xBBD CALLDATASIZE PUSH1 0x4 PUSH2 0x134 JUMP JUMPDEST PUSH2 0xB1A JUMP JUMPDEST SWAP1 PUSH2 0xBCF SWAP5 SWAP3 SWAP5 PUSH1 0x40 MLOAD SWAP1 JUMP JUMPDEST SWAP5 DUP6 SWAP5 DUP6 PUSH2 0xB55 JUMP JUMPDEST DUP1 SLOAD DUP3 LT ISZERO PUSH2 0x3EA JUMPI PUSH2 0x3E1 PUSH1 0x4 SWAP2 PUSH1 0x0 MSTORE PUSH1 0x20 PUSH1 0x0 KECCAK256 SWAP1 JUMP JUMPDEST SWAP1 PUSH1 0x1 SWAP2 PUSH1 0x0 SWAP3 PUSH2 0xC01 DUP2 SLOAD SWAP1 JUMP JUMPDEST DUP3 LT ISZERO PUSH2 0xC1E JUMPI PUSH2 0xC13 SWAP3 SWAP4 POP PUSH2 0xBD8 JUMP JUMPDEST POP SWAP1 PUSH2 0xB2F DUP3 PUSH2 0x27A JUMP JUMPDEST DUP4 DUP1 REVERT JUMPDEST CALLVALUE PUSH2 0x120 JUMPI PUSH2 0x397 PUSH2 0xBC2 PUSH2 0xC38 CALLDATASIZE PUSH1 0x4 PUSH2 0x134 JUMP JUMPDEST PUSH2 0xBF2 JUMP JUMPDEST PUSH1 0x20 DUP1 DUP3 MSTORE PUSH2 0x148 SWAP3 SWAP2 ADD SWAP1 PUSH2 0x991 JUMP JUMPDEST PUSH2 0x148 SWAP1 PUSH2 0x14B JUMP JUMPDEST PUSH2 0x148 SWAP1 PUSH2 0xC83 PUSH2 0xC67 PUSH1 0x40 MLOAD SWAP1 JUMP JUMPDEST DUP1 SWAP3 PUSH2 0xC77 PUSH1 0x20 DUP4 ADD SWAP2 DUP3 PUSH2 0xC3D JUMP JUMPDEST SWAP1 DUP2 SUB DUP3 MSTORE SUB DUP3 PUSH2 0x254 JUMP JUMPDEST PUSH2 0xC95 PUSH2 0xC8E DUP3 MLOAD SWAP1 JUMP JUMPDEST SWAP2 PUSH1 0x20 ADD SWAP1 JUMP JUMPDEST KECCAK256 PUSH2 0xC4E JUMP JUMPDEST PUSH1 0x1 PUSH1 0x1 PUSH1 0x40 SHL SUB DUP2 GT PUSH2 0x275 JUMPI PUSH1 0x20 DUP1 SWAP2 MUL ADD SWAP1 JUMP JUMPDEST SWAP1 PUSH2 0xCBF PUSH2 0x4AC DUP4 PUSH2 0xC9B JUMP JUMPDEST SWAP2 DUP3 MSTORE JUMP JUMPDEST PUSH2 0x148 PUSH1 0x80 PUSH2 0x460 JUMP JUMPDEST SWAP1 PUSH2 0x132 PUSH2 0xD22 PUSH1 0x3 PUSH2 0xCDF PUSH2 0xCC4 JUMP JUMPDEST SWAP5 PUSH2 0xCF0 PUSH2 0xCEC DUP3 PUSH2 0x27A JUMP JUMPDEST DUP8 MSTORE JUMP JUMPDEST PUSH2 0xD06 PUSH2 0xCFF PUSH1 0x1 DUP4 ADD PUSH2 0x27A JUMP JUMPDEST PUSH1 0x20 DUP9 ADD MSTORE JUMP JUMPDEST PUSH2 0xD1C PUSH2 0xD15 PUSH1 0x2 DUP4 ADD PUSH2 0x27A JUMP JUMPDEST PUSH1 0x40 DUP9 ADD MSTORE JUMP JUMPDEST ADD PUSH2 0xB10 JUMP JUMPDEST PUSH1 0x1 PUSH1 0x1 PUSH1 0xA0 SHL SUB AND PUSH1 0x60 DUP5 ADD MSTORE JUMP JUMPDEST PUSH2 0x148 SWAP1 PUSH2 0xCCE JUMP JUMPDEST SWAP1 PUSH2 0xD44 DUP3 SLOAD SWAP1 JUMP JUMPDEST PUSH2 0xD4D DUP2 PUSH2 0xCB2 JUMP JUMPDEST SWAP3 PUSH2 0xD61 PUSH1 0x20 DUP6 ADD SWAP2 PUSH1 0x0 MSTORE PUSH1 0x20 PUSH1 0x0 KECCAK256 SWAP1 JUMP JUMPDEST PUSH1 0x0 SWAP2 JUMPDEST DUP4 DUP4 LT PUSH2 0xD72 JUMPI POP POP POP POP JUMP JUMPDEST PUSH1 0x4 PUSH1 0x20 PUSH1 0x1 SWAP3 PUSH2 0xD82 DUP6 PUSH2 0xD32 JUMP JUMPDEST DUP2 MSTORE ADD SWAP3 ADD SWAP3 ADD SWAP2 SWAP1 PUSH2 0xD65 JUMP JUMPDEST PUSH2 0x148 SWAP1 PUSH2 0xD3B JUMP JUMPDEST PUSH2 0x148 PUSH1 0x1 PUSH2 0xD90 JUMP JUMPDEST SWAP3 SWAP2 PUSH1 0x20 PUSH2 0x368 PUSH2 0x132 SWAP4 PUSH1 0x40 DUP8 ADD SWAP1 DUP8 DUP3 SUB PUSH1 0x0 DUP10 ADD MSTORE PUSH2 0x7AA JUMP JUMPDEST PUSH2 0xC83 PUSH2 0x148 SWAP3 PUSH2 0xC77 SWAP3 PUSH2 0xDD3 PUSH1 0x0 SWAP1 JUMP JUMPDEST POP PUSH1 0x40 MLOAD SWAP4 DUP5 SWAP3 PUSH1 0x20 DUP5 ADD SWAP3 DUP4 PUSH2 0xDA3 JUMP JUMPDEST SWAP2 PUSH1 0x0 NOT PUSH1 0x8 SWAP3 SWAP1 SWAP3 MUL SWAP2 DUP3 SHL SWAP2 SHL JUMPDEST SWAP2 DUP2 NOT AND SWAP2 AND OR SWAP1 JUMP JUMPDEST SWAP2 SWAP1 PUSH2 0xE10 PUSH2 0x148 PUSH2 0xE18 SWAP4 PUSH2 0x14B JUMP JUMPDEST SWAP1 DUP4 SLOAD PUSH2 0xDE5 JUMP JUMPDEST SWAP1 SSTORE JUMP JUMPDEST PUSH2 0x132 SWAP2 PUSH1 0x0 SWAP2 PUSH2 0xDFF JUMP JUMPDEST DUP2 DUP2 LT PUSH2 0xE33 JUMPI POP POP JUMP JUMPDEST DUP1 PUSH2 0xE41 PUSH1 0x0 PUSH1 0x1 SWAP4 PUSH2 0xE1C JUMP JUMPDEST ADD PUSH2 0xE28 JUMP JUMPDEST SWAP2 SWAP1 PUSH1 0x1F DUP2 GT PUSH2 0xE56 JUMPI POP POP POP JUMP JUMPDEST PUSH2 0xE68 PUSH2 0x132 SWAP4 PUSH1 0x0 MSTORE PUSH1 0x20 PUSH1 0x0 KECCAK256 SWAP1 JUMP JUMPDEST SWAP1 PUSH1 0x20 PUSH1 0x1F DUP5 ADD DUP2 SWAP1 DIV DUP4 ADD SWAP4 LT PUSH2 0xE8A JUMPI JUMPDEST PUSH1 0x20 PUSH1 0x1F SWAP1 SWAP2 ADD DIV ADD SWAP1 PUSH2 0xE28 JUMP JUMPDEST SWAP1 SWAP2 POP DUP2 SWAP1 PUSH2 0xE7B JUMP JUMPDEST SWAP1 PUSH1 0x0 NOT PUSH1 0x8 SWAP1 SWAP2 MUL SHR NOT AND SWAP1 JUMP JUMPDEST DUP2 PUSH2 0xEAD SWAP2 PUSH2 0xE94 JUMP JUMPDEST SWAP1 PUSH1 0x2 MUL OR SWAP1 JUMP JUMPDEST SWAP1 PUSH2 0xEBE DUP2 MLOAD SWAP1 JUMP JUMPDEST SWAP1 PUSH1 0x1 PUSH1 0x1 PUSH1 0x40 SHL SUB DUP3 GT PUSH2 0x275 JUMPI PUSH2 0xEE1 DUP3 PUSH2 0xEDB DUP6 SLOAD PUSH2 0x186 JUMP JUMPDEST DUP6 PUSH2 0xE47 JUMP JUMPDEST PUSH1 0x20 SWAP1 PUSH1 0x1F DUP4 GT PUSH1 0x1 EQ PUSH2 0xF0F JUMPI PUSH2 0xE18 SWAP3 SWAP2 PUSH1 0x0 SWAP2 DUP4 PUSH2 0xF04 JUMPI JUMPDEST POP POP PUSH2 0xEA3 JUMP JUMPDEST ADD MLOAD SWAP1 POP CODESIZE DUP1 PUSH2 0xEFD JUMP JUMPDEST PUSH1 0x1F NOT DUP4 AND SWAP2 PUSH2 0xF24 DUP6 PUSH1 0x0 MSTORE PUSH1 0x20 PUSH1 0x0 KECCAK256 SWAP1 JUMP JUMPDEST SWAP3 PUSH1 0x0 JUMPDEST DUP2 DUP2 LT PUSH2 0xF63 JUMPI POP SWAP2 PUSH1 0x2 SWAP4 SWAP2 DUP6 PUSH1 0x1 SWAP7 SWAP5 LT PUSH2 0xF49 JUMPI JUMPDEST POP POP POP MUL ADD SWAP1 SSTORE JUMP JUMPDEST PUSH2 0xF59 SWAP2 ADD MLOAD PUSH1 0x1F DUP5 AND SWAP1 PUSH2 0xE94 JUMP JUMPDEST SWAP1 SSTORE CODESIZE DUP1 DUP1 PUSH2 0xF40 JUMP JUMPDEST SWAP2 SWAP4 PUSH1 0x20 PUSH1 0x1 DUP2 SWAP3 DUP8 DUP8 ADD MLOAD DUP2 SSTORE ADD SWAP6 ADD SWAP3 ADD PUSH2 0xF28 JUMP JUMPDEST SWAP1 PUSH2 0x132 SWAP2 PUSH2 0xEB5 JUMP JUMPDEST SWAP1 PUSH1 0x0 NOT SWAP1 PUSH2 0xDF5 JUMP JUMPDEST SWAP1 PUSH2 0xF9F PUSH2 0x148 PUSH2 0xE18 SWAP3 PUSH2 0x14B JUMP JUMPDEST DUP3 SLOAD PUSH2 0xF85 JUMP JUMPDEST SWAP1 PUSH2 0xFE3 PUSH1 0x40 PUSH1 0x2 PUSH2 0x132 SWAP5 PUSH2 0xFCA PUSH1 0x0 DUP3 ADD PUSH2 0xFC4 PUSH1 0x0 DUP9 ADD MLOAD SWAP1 JUMP JUMPDEST SWAP1 PUSH2 0xF7B JUMP JUMPDEST PUSH2 0xFDC PUSH1 0x1 DUP3 ADD PUSH2 0xFC4 PUSH1 0x20 DUP9 ADD MLOAD SWAP1 JUMP JUMPDEST ADD SWAP3 ADD MLOAD SWAP1 JUMP JUMPDEST SWAP1 PUSH2 0xF8F JUMP JUMPDEST SWAP1 PUSH2 0x132 SWAP2 PUSH2 0xFA6 JUMP JUMPDEST DUP1 SLOAD SWAP2 SWAP1 PUSH1 0x1 PUSH1 0x40 SHL DUP4 LT ISZERO PUSH2 0x275 JUMPI DUP3 PUSH2 0x1016 SWAP2 PUSH1 0x1 PUSH2 0x132 SWAP6 ADD DUP2 SSTORE PUSH2 0x92F JUMP JUMPDEST SWAP1 PUSH2 0xDFF JUMP JUMPDEST PUSH2 0x104B PUSH2 0x148 PUSH2 0x132 SWAP4 PUSH2 0x1044 PUSH2 0x1033 DUP3 DUP7 PUSH2 0xDC0 JUMP JUMPDEST SWAP5 PUSH2 0x103F DUP7 PUSH1 0x3 PUSH2 0x158 JUMP JUMPDEST PUSH2 0xFE9 JUMP JUMPDEST PUSH1 0x5 PUSH2 0x158 JUMP JUMPDEST PUSH2 0xFF3 JUMP JUMPDEST PUSH2 0x105C PUSH2 0x8A2 PUSH1 0x2 SWAP4 SWAP1 JUMP JUMPDEST PUSH1 0x0 SWAP2 JUMPDEST DUP4 DUP4 LT PUSH2 0x106D JUMPI POP POP POP POP JUMP JUMPDEST PUSH2 0x108E PUSH2 0x1087 PUSH1 0x1 SWAP3 PUSH2 0x107F DUP6 PUSH2 0x2A2 JUMP JUMPDEST DUP2 MSTORE PUSH1 0x20 ADD SWAP1 JUMP JUMPDEST SWAP3 PUSH1 0x1 ADD SWAP1 JUMP JUMPDEST SWAP3 ADD SWAP2 SWAP1 PUSH2 0x1060 JUMP JUMPDEST SWAP1 PUSH2 0x330 DUP2 PUSH1 0x40 SWAP4 PUSH2 0x1050 JUMP JUMPDEST SWAP1 PUSH2 0x132 PUSH2 0x294 SWAP3 PUSH2 0x10B5 PUSH1 0x40 MLOAD SWAP1 JUMP JUMPDEST SWAP4 DUP5 DUP1 SWAP3 PUSH2 0x1097 JUMP JUMPDEST PUSH2 0x148 SWAP1 PUSH2 0x10A4 JUMP JUMPDEST SWAP1 PUSH1 0x2 DUP2 LT ISZERO PUSH2 0x3EA JUMPI PUSH1 0x20 MUL ADD SWAP1 JUMP JUMPDEST PUSH2 0x10EF PUSH2 0x10F4 SWAP2 PUSH2 0x10E7 PUSH1 0x0 SWAP1 JUMP JUMPDEST POP PUSH1 0x4 PUSH2 0x158 JUMP JUMPDEST PUSH2 0x10BE JUMP JUMPDEST PUSH2 0x112B PUSH2 0x8A2 PUSH2 0x148 PUSH2 0x1116 PUSH2 0x111A PUSH2 0x1116 PUSH2 0x1110 PUSH1 0x1 PUSH2 0x14B JUMP JUMPDEST DUP8 PUSH2 0x10C7 JUMP JUMPDEST MLOAD SWAP1 JUMP JUMPDEST SWAP5 PUSH2 0x1125 PUSH1 0x0 PUSH2 0x14B JUMP JUMPDEST SWAP1 PUSH2 0x10C7 JUMP JUMPDEST GT SWAP1 JUMP JUMPDEST SWAP1 PUSH2 0x1154 PUSH2 0x1148 PUSH2 0x113E DUP5 SLOAD SWAP1 JUMP JUMPDEST DUP1 DUP5 MSTORE SWAP3 PUSH1 0x20 ADD SWAP1 JUMP JUMPDEST SWAP3 PUSH1 0x0 MSTORE PUSH1 0x20 PUSH1 0x0 KECCAK256 SWAP1 JUMP JUMPDEST SWAP1 PUSH1 0x0 JUMPDEST DUP2 DUP2 LT PUSH2 0x1165 JUMPI POP POP POP SWAP1 JUMP JUMPDEST SWAP1 SWAP2 SWAP3 PUSH2 0x1181 PUSH2 0x117A PUSH1 0x1 SWAP3 PUSH2 0x107F DUP8 PUSH2 0x2A2 JUMP JUMPDEST SWAP5 PUSH1 0x1 ADD SWAP1 JUMP JUMPDEST SWAP3 SWAP2 ADD PUSH2 0x1158 JUMP JUMPDEST SWAP1 PUSH2 0x148 SWAP2 PUSH2 0x112F JUMP JUMPDEST SWAP1 PUSH2 0x132 PUSH2 0x294 SWAP3 PUSH2 0x11A4 PUSH1 0x40 MLOAD SWAP1 JUMP JUMPDEST SWAP4 DUP5 DUP1 SWAP3 PUSH2 0x1189 JUMP JUMPDEST PUSH2 0x148 SWAP1 PUSH2 0x1193 JUMP JUMPDEST PUSH2 0x148 PUSH1 0x60 PUSH2 0x460 JUMP JUMPDEST PUSH2 0x11C8 PUSH2 0x11B6 JUMP JUMPDEST PUSH1 0x60 DUP1 DUP3 MSTORE PUSH1 0x20 DUP3 ADD MSTORE PUSH1 0x0 PUSH1 0x40 DUP3 ADD MSTORE SWAP1 JUMP JUMPDEST PUSH2 0x148 PUSH2 0x11C0 JUMP JUMPDEST PUSH1 0x0 JUMPDEST DUP3 DUP2 LT PUSH2 0x11F3 JUMPI POP POP POP JUMP JUMPDEST PUSH1 0x20 SWAP1 PUSH2 0x11FE PUSH2 0x11DC JUMP JUMPDEST DUP2 DUP5 ADD MSTORE ADD PUSH2 0x11E7 JUMP JUMPDEST SWAP1 PUSH2 0x132 PUSH2 0x121E PUSH2 0x1218 DUP5 PUSH2 0xCB2 JUMP JUMPDEST SWAP4 PUSH2 0xC9B JUMP JUMPDEST PUSH1 0x1F NOT ADD PUSH1 0x20 DUP5 ADD PUSH2 0x11E4 JUMP JUMPDEST PUSH4 0x4E487B71 PUSH1 0xE0 SHL PUSH1 0x0 MSTORE PUSH1 0x11 PUSH1 0x4 MSTORE PUSH1 0x24 PUSH1 0x0 REVERT JUMPDEST PUSH1 0x0 NOT DUP2 EQ PUSH2 0x1250 JUMPI PUSH1 0x1 ADD SWAP1 JUMP JUMPDEST PUSH2 0x122B JUMP JUMPDEST SWAP1 PUSH2 0x125E DUP3 MLOAD SWAP1 JUMP JUMPDEST DUP2 LT ISZERO PUSH2 0x3EA JUMPI PUSH1 0x20 DUP1 SWAP2 MUL ADD ADD SWAP1 JUMP JUMPDEST SWAP1 PUSH2 0x132 PUSH2 0x12A2 PUSH1 0x2 PUSH2 0x1280 PUSH2 0x11B6 JUMP JUMPDEST SWAP5 PUSH2 0x128D PUSH2 0xCEC DUP3 PUSH2 0x27A JUMP JUMPDEST PUSH2 0x129C PUSH2 0xCFF PUSH1 0x1 DUP4 ADD PUSH2 0x27A JUMP JUMPDEST ADD PUSH2 0x2A2 JUMP JUMPDEST PUSH1 0x40 DUP5 ADD MSTORE JUMP JUMPDEST PUSH2 0x148 SWAP1 PUSH2 0x126F JUMP JUMPDEST PUSH2 0x12C9 PUSH2 0x12CE SWAP2 PUSH2 0x12C1 PUSH1 0x60 SWAP1 JUMP JUMPDEST POP PUSH1 0x5 PUSH2 0x158 JUMP JUMPDEST PUSH2 0x11AD JUMP JUMPDEST PUSH2 0x12DE PUSH2 0x12D9 DUP3 MLOAD SWAP1 JUMP JUMPDEST PUSH2 0x1208 JUMP JUMPDEST SWAP1 PUSH2 0x12E9 PUSH1 0x0 PUSH2 0x14B JUMP JUMPDEST PUSH2 0x12F4 PUSH2 0x148 DUP4 MLOAD SWAP1 JUMP JUMPDEST DUP2 LT ISZERO PUSH2 0x133F JUMPI PUSH2 0x133A SWAP1 PUSH2 0x131F PUSH2 0x131A PUSH1 0x3 PUSH2 0x1314 PUSH2 0x1116 DUP6 DUP9 PUSH2 0x1255 JUMP JUMPDEST SWAP1 PUSH2 0x158 JUMP JUMPDEST PUSH2 0x12A9 JUMP JUMPDEST PUSH2 0x1329 DUP3 DUP7 PUSH2 0x1255 JUMP JUMPDEST MSTORE PUSH2 0x1334 DUP2 DUP6 PUSH2 0x1255 JUMP JUMPDEST POP PUSH2 0x1241 JUMP JUMPDEST PUSH2 0x12E9 JUMP JUMPDEST POP POP SWAP1 JUMP JUMPDEST PUSH1 0x1 PUSH1 0x1 PUSH1 0x40 SHL SUB DUP2 GT PUSH2 0x275 JUMPI PUSH1 0x20 MUL SWAP1 JUMP JUMPDEST PUSH2 0x4AC PUSH2 0x148 SWAP2 PUSH2 0x1344 JUMP JUMPDEST CALLDATASIZE SWAP1 CALLDATACOPY JUMP JUMPDEST SWAP1 PUSH2 0x132 PUSH2 0x137F PUSH2 0x1379 DUP5 PUSH2 0x1358 JUMP JUMPDEST SWAP4 PUSH2 0x1344 JUMP JUMPDEST DUP4 PUSH2 0x1364 JUMP JUMPDEST PUSH2 0x148 PUSH1 0x2 PUSH2 0x1369 JUMP JUMPDEST PUSH2 0x10EF PUSH2 0x148 SWAP2 PUSH2 0x10E7 PUSH2 0x1385 JUMP INVALID LOG2 PUSH5 0x6970667358 0x22 SLT KECCAK256 0xDA PUSH29 0xC7D87C4B74F11E960EB0CF732E2A5C1BA54F94BD75C7694AEACFB29403 OR PUSH5 0x736F6C6343 STOP ADDMOD EQ STOP CALLER "},"methodIdentifiers":{"_deterministicDaoId((string,string,string,address))":"10ba5497","_deterministicProposalId((string,string,uint256),uint256)":"0faccaf1","allDaos(uint256)":"e85f857e","commitment(address)":"b18f0de2","createProposal((string,string,uint256),uint256)":"7089b312","daos(uint256)":"ccbbd260","getDaos()":"a1d36ce7","getProposalVotes(uint256)":"47c66140","getProposals(uint256)":"2c72fdfc","getVotingResult(uint256)":"1c0d850e","hasVoted(bytes32)":"1b4613cb","nullifiers(address)":"bba7055e","proposalVotes(uint256,uint256)":"0d68eb9e","proposals(uint256)":"013cf08b","proposalsByDao(uint256,uint256)":"7092d2c0","verifier()":"2b7ac3f3"}}}}}