{"@axelar-network/axelar-gmp-sdk-solidity/contracts/executable/AxelarExecutable.sol":{"AxelarExecutable":{"abi":[{"inputs":[{"internalType":"address","name":"gateway_","type":"address"}],"stateMutability":"nonpayable","type":"constructor"},{"inputs":[],"name":"InvalidAddress","type":"error"},{"inputs":[],"name":"NotApprovedByGateway","type":"error"},{"inputs":[{"internalType":"bytes32","name":"commandId","type":"bytes32"},{"internalType":"string","name":"sourceChain","type":"string"},{"internalType":"string","name":"sourceAddress","type":"string"},{"internalType":"bytes","name":"payload","type":"bytes"}],"name":"execute","outputs":[],"stateMutability":"nonpayable","type":"function"},{"inputs":[{"internalType":"bytes32","name":"commandId","type":"bytes32"},{"internalType":"string","name":"sourceChain","type":"string"},{"internalType":"string","name":"sourceAddress","type":"string"},{"internalType":"bytes","name":"payload","type":"bytes"},{"internalType":"string","name":"tokenSymbol","type":"string"},{"internalType":"uint256","name":"amount","type":"uint256"}],"name":"executeWithToken","outputs":[],"stateMutability":"nonpayable","type":"function"},{"inputs":[],"name":"gateway","outputs":[{"internalType":"contract IAxelarGateway","name":"","type":"address"}],"stateMutability":"view","type":"function"}],"evm":{"bytecode":{"linkReferences":{},"object":"60a060405234610040576100196100146100d8565b610132565b6040516105e561016f823960805181818160c401528181610428015261056301526105e590f35b600080fd5b634e487b7160e01b600052604160045260246000fd5b90601f01601f191681019081106001600160401b0382111761007c57604052565b610045565b9061009561008e60405190565b928361005b565b565b6001600160a01b031690565b90565b6001600160a01b0381160361004057565b90505190610095826100a6565b90602082820312610040576100a3916100b7565b6100a3610754803803806100eb81610081565b9283398101906100c4565b6100976100a36100a39290565b6100a3906100f6565b6100a390610097906001600160a01b031682565b6100a39061010c565b6100a390610120565b61013f6100976000610103565b6001600160a01b0382161461015c5761015790610129565b608052565b60405163e6c4247b60e01b8152600490fdfe6080604052600436101561001257600080fd5b60003560e01c8063116191b6146100425780631a98b2e01461003d5763491606580361005257610283565b6101dc565b6100ab565b600091031261005257565b600080fd5b61006b9061006e906001600160a01b031682565b90565b6001600160a01b031690565b61006b90610057565b61006b9061007a565b61009590610083565b9052565b6020810192916100a9919061008c565b565b34610052576100bb366004610047565b604051806100e97f000000000000000000000000000000000000000000000000000000000000000082610099565b0390f35b805b0361005257565b905035906100a9826100ed565b909182601f83011215610052578135916001600160401b03831161005257602001926001830284011161005257565b919060c0838203126100525761014881846100f6565b9260208101356001600160401b0381116100525782610168918301610103565b92909360408301356001600160401b038111610052578261018a918501610103565b92909360608101356001600160401b03811161005257826101ac918301610103565b92909360808301356001600160401b038111610052576101d18361006b928601610103565b93909460a0016100f6565b34610052576102016101ef366004610132565b98979097969196959295949394610534565b604051005b9190916080818403126100525761021d83826100f6565b9260208201356001600160401b038111610052578161023d918401610103565b92909360408201356001600160401b038111610052578361025f918401610103565b92909360608201356001600160401b0381116100525761027f9201610103565b9091565b3461005257610201610296366004610206565b959490949391936103f7565b634e487b7160e01b600052604160045260246000fd5b90601f01601f191681019081106001600160401b038211176102d957604052565b6102a2565b906100a96102eb60405190565b92836102b8565b6001600160401b0381116102d957602090601f01601f19160190565b0190565b90826000939282370152565b9092919261033361032e826102f2565b6102de565b93818552602085019082840111610052576100a992610312565b61006b91369161031e565b8015156100ef565b905051906100a982610358565b906020828203126100525761006b91610360565b919061039f816103988161030e9560209181520190565b8095610312565b601f01601f191690565b96959390946103d8886060956103e6956103cb6100a99a600060808601950152565b8b830360208d0152610381565b9188830360408a0152610381565b940152565b6040513d6000823e3d90fd5b93916104746104699361040f6000949960209961034d565b61042161041a825190565b9160200190565b209061044c7f0000000000000000000000000000000000000000000000000000000000000000610083565b96635f6970c39461045c60405190565b9b8c9a8b998a9860e01b90565b8852600488016103a9565b03925af180156104d25761048e916000916104a657501590565b61049457565b604051631403112d60e21b8152600490fd5b6104c7915060203d81116104cb575b6104bf81836102b8565b81019061036d565b1590565b503d6104b5565b6103eb565b9998969160a096946103e696610511610527946100a99c978f9561051f9661050460c08201946000830152565b6020818503910152610381565b8d810360408f015291610381565b9360608b0152565b88830360808a0152610381565b96976020986000956105516104749596996105a4999d959d61034d565b61055c61041a825190565b20906105877f0000000000000000000000000000000000000000000000000000000000000000610083565b99631876eed99761059760405190565b9e8f9d8e9c8d9b60e01b90565b8b5260048b016104d756fea26469706673582212207cf8276c1b5e1e285a2614b8978d49d62a6db6b4bac9cab1514ccdc60fee66f264736f6c63430008140033","opcodes":"PUSH1 0xA0 PUSH1 0x40 MSTORE CALLVALUE PUSH2 0x40 JUMPI PUSH2 0x19 PUSH2 0x14 PUSH2 0xD8 JUMP JUMPDEST PUSH2 0x132 JUMP JUMPDEST PUSH1 0x40 MLOAD PUSH2 0x5E5 PUSH2 0x16F DUP3 CODECOPY PUSH1 0x80 MLOAD DUP2 DUP2 DUP2 PUSH1 0xC4 ADD MSTORE DUP2 DUP2 PUSH2 0x428 ADD MSTORE PUSH2 0x563 ADD MSTORE PUSH2 0x5E5 SWAP1 RETURN JUMPDEST PUSH1 0x0 DUP1 REVERT JUMPDEST PUSH4 0x4E487B71 PUSH1 0xE0 SHL PUSH1 0x0 MSTORE PUSH1 0x41 PUSH1 0x4 MSTORE PUSH1 0x24 PUSH1 0x0 REVERT JUMPDEST SWAP1 PUSH1 0x1F ADD PUSH1 0x1F NOT AND DUP2 ADD SWAP1 DUP2 LT PUSH1 0x1 PUSH1 0x1 PUSH1 0x40 SHL SUB DUP3 GT OR PUSH2 0x7C JUMPI PUSH1 0x40 MSTORE JUMP JUMPDEST PUSH2 0x45 JUMP JUMPDEST SWAP1 PUSH2 0x95 PUSH2 0x8E PUSH1 0x40 MLOAD SWAP1 JUMP JUMPDEST SWAP3 DUP4 PUSH2 0x5B JUMP JUMPDEST JUMP JUMPDEST PUSH1 0x1 PUSH1 0x1 PUSH1 0xA0 SHL SUB AND SWAP1 JUMP JUMPDEST SWAP1 JUMP JUMPDEST PUSH1 0x1 PUSH1 0x1 PUSH1 0xA0 SHL SUB DUP2 AND SUB PUSH2 0x40 JUMPI JUMP JUMPDEST SWAP1 POP MLOAD SWAP1 PUSH2 0x95 DUP3 PUSH2 0xA6 JUMP JUMPDEST SWAP1 PUSH1 0x20 DUP3 DUP3 SUB SLT PUSH2 0x40 JUMPI PUSH2 0xA3 SWAP2 PUSH2 0xB7 JUMP JUMPDEST PUSH2 0xA3 PUSH2 0x754 DUP1 CODESIZE SUB DUP1 PUSH2 0xEB DUP2 PUSH2 0x81 JUMP JUMPDEST SWAP3 DUP4 CODECOPY DUP2 ADD SWAP1 PUSH2 0xC4 JUMP JUMPDEST PUSH2 0x97 PUSH2 0xA3 PUSH2 0xA3 SWAP3 SWAP1 JUMP JUMPDEST PUSH2 0xA3 SWAP1 PUSH2 0xF6 JUMP JUMPDEST PUSH2 0xA3 SWAP1 PUSH2 0x97 SWAP1 PUSH1 0x1 PUSH1 0x1 PUSH1 0xA0 SHL SUB AND DUP3 JUMP JUMPDEST PUSH2 0xA3 SWAP1 PUSH2 0x10C JUMP JUMPDEST PUSH2 0xA3 SWAP1 PUSH2 0x120 JUMP JUMPDEST PUSH2 0x13F PUSH2 0x97 PUSH1 0x0 PUSH2 0x103 JUMP JUMPDEST PUSH1 0x1 PUSH1 0x1 PUSH1 0xA0 SHL SUB DUP3 AND EQ PUSH2 0x15C JUMPI PUSH2 0x157 SWAP1 PUSH2 0x129 JUMP JUMPDEST PUSH1 0x80 MSTORE JUMP JUMPDEST PUSH1 0x40 MLOAD PUSH4 0xE6C4247B PUSH1 0xE0 SHL DUP2 MSTORE PUSH1 0x4 SWAP1 REVERT INVALID PUSH1 0x80 PUSH1 0x40 MSTORE PUSH1 0x4 CALLDATASIZE LT ISZERO PUSH2 0x12 JUMPI PUSH1 0x0 DUP1 REVERT JUMPDEST PUSH1 0x0 CALLDATALOAD PUSH1 0xE0 SHR DUP1 PUSH4 0x116191B6 EQ PUSH2 0x42 JUMPI DUP1 PUSH4 0x1A98B2E0 EQ PUSH2 0x3D JUMPI PUSH4 0x49160658 SUB PUSH2 0x52 JUMPI PUSH2 0x283 JUMP JUMPDEST PUSH2 0x1DC JUMP JUMPDEST PUSH2 0xAB JUMP JUMPDEST PUSH1 0x0 SWAP2 SUB SLT PUSH2 0x52 JUMPI JUMP JUMPDEST PUSH1 0x0 DUP1 REVERT JUMPDEST PUSH2 0x6B SWAP1 PUSH2 0x6E SWAP1 PUSH1 0x1 PUSH1 0x1 PUSH1 0xA0 SHL SUB AND DUP3 JUMP JUMPDEST SWAP1 JUMP JUMPDEST PUSH1 0x1 PUSH1 0x1 PUSH1 0xA0 SHL SUB AND SWAP1 JUMP JUMPDEST PUSH2 0x6B SWAP1 PUSH2 0x57 JUMP JUMPDEST PUSH2 0x6B SWAP1 PUSH2 0x7A JUMP JUMPDEST PUSH2 0x95 SWAP1 PUSH2 0x83 JUMP JUMPDEST SWAP1 MSTORE JUMP JUMPDEST PUSH1 0x20 DUP2 ADD SWAP3 SWAP2 PUSH2 0xA9 SWAP2 SWAP1 PUSH2 0x8C JUMP JUMPDEST JUMP JUMPDEST CALLVALUE PUSH2 0x52 JUMPI PUSH2 0xBB CALLDATASIZE PUSH1 0x4 PUSH2 0x47 JUMP JUMPDEST PUSH1 0x40 MLOAD DUP1 PUSH2 0xE9 PUSH32 0x0 DUP3 PUSH2 0x99 JUMP JUMPDEST SUB SWAP1 RETURN JUMPDEST DUP1 JUMPDEST SUB PUSH2 0x52 JUMPI JUMP JUMPDEST SWAP1 POP CALLDATALOAD SWAP1 PUSH2 0xA9 DUP3 PUSH2 0xED JUMP JUMPDEST SWAP1 SWAP2 DUP3 PUSH1 0x1F DUP4 ADD SLT ISZERO PUSH2 0x52 JUMPI DUP2 CALLDATALOAD SWAP2 PUSH1 0x1 PUSH1 0x1 PUSH1 0x40 SHL SUB DUP4 GT PUSH2 0x52 JUMPI PUSH1 0x20 ADD SWAP3 PUSH1 0x1 DUP4 MUL DUP5 ADD GT PUSH2 0x52 JUMPI JUMP JUMPDEST SWAP2 SWAP1 PUSH1 0xC0 DUP4 DUP3 SUB SLT PUSH2 0x52 JUMPI PUSH2 0x148 DUP2 DUP5 PUSH2 0xF6 JUMP JUMPDEST SWAP3 PUSH1 0x20 DUP2 ADD CALLDATALOAD PUSH1 0x1 PUSH1 0x1 PUSH1 0x40 SHL SUB DUP2 GT PUSH2 0x52 JUMPI DUP3 PUSH2 0x168 SWAP2 DUP4 ADD PUSH2 0x103 JUMP JUMPDEST SWAP3 SWAP1 SWAP4 PUSH1 0x40 DUP4 ADD CALLDATALOAD PUSH1 0x1 PUSH1 0x1 PUSH1 0x40 SHL SUB DUP2 GT PUSH2 0x52 JUMPI DUP3 PUSH2 0x18A SWAP2 DUP6 ADD PUSH2 0x103 JUMP JUMPDEST SWAP3 SWAP1 SWAP4 PUSH1 0x60 DUP2 ADD CALLDATALOAD PUSH1 0x1 PUSH1 0x1 PUSH1 0x40 SHL SUB DUP2 GT PUSH2 0x52 JUMPI DUP3 PUSH2 0x1AC SWAP2 DUP4 ADD PUSH2 0x103 JUMP JUMPDEST SWAP3 SWAP1 SWAP4 PUSH1 0x80 DUP4 ADD CALLDATALOAD PUSH1 0x1 PUSH1 0x1 PUSH1 0x40 SHL SUB DUP2 GT PUSH2 0x52 JUMPI PUSH2 0x1D1 DUP4 PUSH2 0x6B SWAP3 DUP7 ADD PUSH2 0x103 JUMP JUMPDEST SWAP4 SWAP1 SWAP5 PUSH1 0xA0 ADD PUSH2 0xF6 JUMP JUMPDEST CALLVALUE PUSH2 0x52 JUMPI PUSH2 0x201 PUSH2 0x1EF CALLDATASIZE PUSH1 0x4 PUSH2 0x132 JUMP JUMPDEST SWAP9 SWAP8 SWAP1 SWAP8 SWAP7 SWAP2 SWAP7 SWAP6 SWAP3 SWAP6 SWAP5 SWAP4 SWAP5 PUSH2 0x534 JUMP JUMPDEST PUSH1 0x40 MLOAD STOP JUMPDEST SWAP2 SWAP1 SWAP2 PUSH1 0x80 DUP2 DUP5 SUB SLT PUSH2 0x52 JUMPI PUSH2 0x21D DUP4 DUP3 PUSH2 0xF6 JUMP JUMPDEST SWAP3 PUSH1 0x20 DUP3 ADD CALLDATALOAD PUSH1 0x1 PUSH1 0x1 PUSH1 0x40 SHL SUB DUP2 GT PUSH2 0x52 JUMPI DUP2 PUSH2 0x23D SWAP2 DUP5 ADD PUSH2 0x103 JUMP JUMPDEST SWAP3 SWAP1 SWAP4 PUSH1 0x40 DUP3 ADD CALLDATALOAD PUSH1 0x1 PUSH1 0x1 PUSH1 0x40 SHL SUB DUP2 GT PUSH2 0x52 JUMPI DUP4 PUSH2 0x25F SWAP2 DUP5 ADD PUSH2 0x103 JUMP JUMPDEST SWAP3 SWAP1 SWAP4 PUSH1 0x60 DUP3 ADD CALLDATALOAD PUSH1 0x1 PUSH1 0x1 PUSH1 0x40 SHL SUB DUP2 GT PUSH2 0x52 JUMPI PUSH2 0x27F SWAP3 ADD PUSH2 0x103 JUMP JUMPDEST SWAP1 SWAP2 JUMP JUMPDEST CALLVALUE PUSH2 0x52 JUMPI PUSH2 0x201 PUSH2 0x296 CALLDATASIZE PUSH1 0x4 PUSH2 0x206 JUMP JUMPDEST SWAP6 SWAP5 SWAP1 SWAP5 SWAP4 SWAP2 SWAP4 PUSH2 0x3F7 JUMP JUMPDEST PUSH4 0x4E487B71 PUSH1 0xE0 SHL PUSH1 0x0 MSTORE PUSH1 0x41 PUSH1 0x4 MSTORE PUSH1 0x24 PUSH1 0x0 REVERT JUMPDEST SWAP1 PUSH1 0x1F ADD PUSH1 0x1F NOT AND DUP2 ADD SWAP1 DUP2 LT PUSH1 0x1 PUSH1 0x1 PUSH1 0x40 SHL SUB DUP3 GT OR PUSH2 0x2D9 JUMPI PUSH1 0x40 MSTORE JUMP JUMPDEST PUSH2 0x2A2 JUMP JUMPDEST SWAP1 PUSH2 0xA9 PUSH2 0x2EB PUSH1 0x40 MLOAD SWAP1 JUMP JUMPDEST SWAP3 DUP4 PUSH2 0x2B8 JUMP JUMPDEST PUSH1 0x1 PUSH1 0x1 PUSH1 0x40 SHL SUB DUP2 GT PUSH2 0x2D9 JUMPI PUSH1 0x20 SWAP1 PUSH1 0x1F ADD PUSH1 0x1F NOT AND ADD SWAP1 JUMP JUMPDEST ADD SWAP1 JUMP JUMPDEST SWAP1 DUP3 PUSH1 0x0 SWAP4 SWAP3 DUP3 CALLDATACOPY ADD MSTORE JUMP JUMPDEST SWAP1 SWAP3 SWAP2 SWAP3 PUSH2 0x333 PUSH2 0x32E DUP3 PUSH2 0x2F2 JUMP JUMPDEST PUSH2 0x2DE JUMP JUMPDEST SWAP4 DUP2 DUP6 MSTORE PUSH1 0x20 DUP6 ADD SWAP1 DUP3 DUP5 ADD GT PUSH2 0x52 JUMPI PUSH2 0xA9 SWAP3 PUSH2 0x312 JUMP JUMPDEST PUSH2 0x6B SWAP2 CALLDATASIZE SWAP2 PUSH2 0x31E JUMP JUMPDEST DUP1 ISZERO ISZERO PUSH2 0xEF JUMP JUMPDEST SWAP1 POP MLOAD SWAP1 PUSH2 0xA9 DUP3 PUSH2 0x358 JUMP JUMPDEST SWAP1 PUSH1 0x20 DUP3 DUP3 SUB SLT PUSH2 0x52 JUMPI PUSH2 0x6B SWAP2 PUSH2 0x360 JUMP JUMPDEST SWAP2 SWAP1 PUSH2 0x39F DUP2 PUSH2 0x398 DUP2 PUSH2 0x30E SWAP6 PUSH1 0x20 SWAP2 DUP2 MSTORE ADD SWAP1 JUMP JUMPDEST DUP1 SWAP6 PUSH2 0x312 JUMP JUMPDEST PUSH1 0x1F ADD PUSH1 0x1F NOT AND SWAP1 JUMP JUMPDEST SWAP7 SWAP6 SWAP4 SWAP1 SWAP5 PUSH2 0x3D8 DUP9 PUSH1 0x60 SWAP6 PUSH2 0x3E6 SWAP6 PUSH2 0x3CB PUSH2 0xA9 SWAP11 PUSH1 0x0 PUSH1 0x80 DUP7 ADD SWAP6 ADD MSTORE JUMP JUMPDEST DUP12 DUP4 SUB PUSH1 0x20 DUP14 ADD MSTORE PUSH2 0x381 JUMP JUMPDEST SWAP2 DUP9 DUP4 SUB PUSH1 0x40 DUP11 ADD MSTORE PUSH2 0x381 JUMP JUMPDEST SWAP5 ADD MSTORE JUMP JUMPDEST PUSH1 0x40 MLOAD RETURNDATASIZE PUSH1 0x0 DUP3 RETURNDATACOPY RETURNDATASIZE SWAP1 REVERT JUMPDEST SWAP4 SWAP2 PUSH2 0x474 PUSH2 0x469 SWAP4 PUSH2 0x40F PUSH1 0x0 SWAP5 SWAP10 PUSH1 0x20 SWAP10 PUSH2 0x34D JUMP JUMPDEST PUSH2 0x421 PUSH2 0x41A DUP3 MLOAD SWAP1 JUMP JUMPDEST SWAP2 PUSH1 0x20 ADD SWAP1 JUMP JUMPDEST KECCAK256 SWAP1 PUSH2 0x44C PUSH32 0x0 PUSH2 0x83 JUMP JUMPDEST SWAP7 PUSH4 0x5F6970C3 SWAP5 PUSH2 0x45C PUSH1 0x40 MLOAD SWAP1 JUMP JUMPDEST SWAP12 DUP13 SWAP11 DUP12 SWAP10 DUP11 SWAP9 PUSH1 0xE0 SHL SWAP1 JUMP JUMPDEST DUP9 MSTORE PUSH1 0x4 DUP9 ADD PUSH2 0x3A9 JUMP JUMPDEST SUB SWAP3 GAS CALL DUP1 ISZERO PUSH2 0x4D2 JUMPI PUSH2 0x48E SWAP2 PUSH1 0x0 SWAP2 PUSH2 0x4A6 JUMPI POP ISZERO SWAP1 JUMP JUMPDEST PUSH2 0x494 JUMPI JUMP JUMPDEST PUSH1 0x40 MLOAD PUSH4 0x1403112D PUSH1 0xE2 SHL DUP2 MSTORE PUSH1 0x4 SWAP1 REVERT JUMPDEST PUSH2 0x4C7 SWAP2 POP PUSH1 0x20 RETURNDATASIZE DUP2 GT PUSH2 0x4CB JUMPI JUMPDEST PUSH2 0x4BF DUP2 DUP4 PUSH2 0x2B8 JUMP JUMPDEST DUP2 ADD SWAP1 PUSH2 0x36D JUMP JUMPDEST ISZERO SWAP1 JUMP JUMPDEST POP RETURNDATASIZE PUSH2 0x4B5 JUMP JUMPDEST PUSH2 0x3EB JUMP JUMPDEST SWAP10 SWAP9 SWAP7 SWAP2 PUSH1 0xA0 SWAP7 SWAP5 PUSH2 0x3E6 SWAP7 PUSH2 0x511 PUSH2 0x527 SWAP5 PUSH2 0xA9 SWAP13 SWAP8 DUP16 SWAP6 PUSH2 0x51F SWAP7 PUSH2 0x504 PUSH1 0xC0 DUP3 ADD SWAP5 PUSH1 0x0 DUP4 ADD MSTORE JUMP JUMPDEST PUSH1 0x20 DUP2 DUP6 SUB SWAP2 ADD MSTORE PUSH2 0x381 JUMP JUMPDEST DUP14 DUP2 SUB PUSH1 0x40 DUP16 ADD MSTORE SWAP2 PUSH2 0x381 JUMP JUMPDEST SWAP4 PUSH1 0x60 DUP12 ADD MSTORE JUMP JUMPDEST DUP9 DUP4 SUB PUSH1 0x80 DUP11 ADD MSTORE PUSH2 0x381 JUMP JUMPDEST SWAP7 SWAP8 PUSH1 0x20 SWAP9 PUSH1 0x0 SWAP6 PUSH2 0x551 PUSH2 0x474 SWAP6 SWAP7 SWAP10 PUSH2 0x5A4 SWAP10 SWAP14 SWAP6 SWAP14 PUSH2 0x34D JUMP JUMPDEST PUSH2 0x55C PUSH2 0x41A DUP3 MLOAD SWAP1 JUMP JUMPDEST KECCAK256 SWAP1 PUSH2 0x587 PUSH32 0x0 PUSH2 0x83 JUMP JUMPDEST SWAP10 PUSH4 0x1876EED9 SWAP8 PUSH2 0x597 PUSH1 0x40 MLOAD SWAP1 JUMP JUMPDEST SWAP15 DUP16 SWAP14 DUP15 SWAP13 DUP14 SWAP12 PUSH1 0xE0 SHL SWAP1 JUMP JUMPDEST DUP12 MSTORE PUSH1 0x4 DUP12 ADD PUSH2 0x4D7 JUMP INVALID LOG2 PUSH5 0x6970667358 0x22 SLT KECCAK256 PUSH29 0xF8276C1B5E1E285A2614B8978D49D62A6DB6B4BAC9CAB1514CCDC60FEE PUSH7 0xF264736F6C6343 STOP ADDMOD EQ STOP CALLER "},"methodIdentifiers":{"execute(bytes32,string,string,bytes)":"49160658","executeWithToken(bytes32,string,string,bytes,string,uint256)":"1a98b2e0","gateway()":"116191b6"}}}}}