{"contracts/dao/CrosschainDAO.sol":{"CrosschainDAO":{"abi":[{"inputs":[{"internalType":"address","name":"_gateway","type":"address"},{"internalType":"address","name":"_gasService","type":"address"},{"internalType":"address","name":"_verifier","type":"address"}],"stateMutability":"nonpayable","type":"constructor"},{"inputs":[],"name":"InvalidAddress","type":"error"},{"inputs":[],"name":"NotApprovedByGateway","type":"error"},{"inputs":[{"components":[{"internalType":"string","name":"name","type":"string"},{"internalType":"string","name":"minInvestment","type":"string"},{"internalType":"string","name":"zkkyc","type":"string"},{"internalType":"address","name":"treasuryAddress","type":"address"}],"internalType":"struct dao_details","name":"_dao","type":"tuple"}],"name":"_deterministicDaoId","outputs":[{"internalType":"uint256","name":"","type":"uint256"}],"stateMutability":"pure","type":"function"},{"inputs":[{"components":[{"internalType":"string","name":"name","type":"string"},{"internalType":"string","name":"description","type":"string"},{"internalType":"uint256","name":"votingEnd","type":"uint256"}],"internalType":"struct proposal","name":"_proposal","type":"tuple"},{"internalType":"uint256","name":"daoId","type":"uint256"}],"name":"_deterministicProposalId","outputs":[{"internalType":"uint256","name":"","type":"uint256"}],"stateMutability":"pure","type":"function"},{"inputs":[{"internalType":"uint256","name":"","type":"uint256"}],"name":"allDaos","outputs":[{"internalType":"string","name":"name","type":"string"},{"internalType":"string","name":"minInvestment","type":"string"},{"internalType":"string","name":"zkkyc","type":"string"},{"internalType":"address","name":"treasuryAddress","type":"address"}],"stateMutability":"view","type":"function"},{"inputs":[{"internalType":"string","name":"destinationChain","type":"string"},{"internalType":"string","name":"destinationAddress","type":"string"},{"internalType":"uint256","name":"pid","type":"uint256"},{"components":[{"internalType":"bytes","name":"zkProof","type":"bytes"},{"internalType":"bytes32[]","name":"publicInputs","type":"bytes32[]"},{"internalType":"bytes32","name":"nullifierHash","type":"bytes32"},{"internalType":"bytes32","name":"voteCommitment","type":"bytes32"}],"internalType":"struct zkVoting","name":"_zkVoting","type":"tuple"}],"name":"castVoteCrosschain","outputs":[],"stateMutability":"payable","type":"function"},{"inputs":[{"internalType":"address","name":"","type":"address"}],"name":"commitment","outputs":[{"internalType":"bytes32","name":"","type":"bytes32"}],"stateMutability":"view","type":"function"},{"inputs":[{"internalType":"string","name":"destinationChain","type":"string"},{"internalType":"string","name":"destinationAddress","type":"string"},{"components":[{"internalType":"string","name":"name","type":"string"},{"internalType":"string","name":"minInvestment","type":"string"},{"internalType":"string","name":"zkkyc","type":"string"},{"internalType":"address","name":"treasuryAddress","type":"address"}],"internalType":"struct dao_details","name":"_dao_details","type":"tuple"}],"name":"createCrosschainDao","outputs":[],"stateMutability":"payable","type":"function"},{"inputs":[{"internalType":"uint256","name":"","type":"uint256"}],"name":"daos","outputs":[{"internalType":"string","name":"name","type":"string"},{"internalType":"string","name":"minInvestment","type":"string"},{"internalType":"string","name":"zkkyc","type":"string"},{"internalType":"address","name":"treasuryAddress","type":"address"}],"stateMutability":"view","type":"function"},{"inputs":[{"internalType":"bytes32","name":"commandId","type":"bytes32"},{"internalType":"string","name":"sourceChain","type":"string"},{"internalType":"string","name":"sourceAddress","type":"string"},{"internalType":"bytes","name":"payload","type":"bytes"}],"name":"execute","outputs":[],"stateMutability":"nonpayable","type":"function"},{"inputs":[{"internalType":"bytes32","name":"commandId","type":"bytes32"},{"internalType":"string","name":"sourceChain","type":"string"},{"internalType":"string","name":"sourceAddress","type":"string"},{"internalType":"bytes","name":"payload","type":"bytes"},{"internalType":"string","name":"tokenSymbol","type":"string"},{"internalType":"uint256","name":"amount","type":"uint256"}],"name":"executeWithToken","outputs":[],"stateMutability":"nonpayable","type":"function"},{"inputs":[],"name":"gasService","outputs":[{"internalType":"contract IAxelarGasService","name":"","type":"address"}],"stateMutability":"view","type":"function"},{"inputs":[],"name":"gateway","outputs":[{"internalType":"contract IAxelarGateway","name":"","type":"address"}],"stateMutability":"view","type":"function"},{"inputs":[],"name":"getDaos","outputs":[{"components":[{"internalType":"string","name":"name","type":"string"},{"internalType":"string","name":"minInvestment","type":"string"},{"internalType":"string","name":"zkkyc","type":"string"},{"internalType":"address","name":"treasuryAddress","type":"address"}],"internalType":"struct dao_details[]","name":"","type":"tuple[]"}],"stateMutability":"view","type":"function"},{"inputs":[{"internalType":"uint256","name":"proposalId","type":"uint256"}],"name":"getProposalVotes","outputs":[{"internalType":"uint256[2]","name":"","type":"uint256[2]"}],"stateMutability":"view","type":"function"},{"inputs":[{"internalType":"uint256","name":"daoId","type":"uint256"}],"name":"getProposals","outputs":[{"components":[{"internalType":"string","name":"name","type":"string"},{"internalType":"string","name":"description","type":"string"},{"internalType":"uint256","name":"votingEnd","type":"uint256"}],"internalType":"struct proposal[]","name":"","type":"tuple[]"}],"stateMutability":"view","type":"function"},{"inputs":[{"internalType":"uint256","name":"proposalId","type":"uint256"}],"name":"getVotingResult","outputs":[{"internalType":"bool","name":"","type":"bool"}],"stateMutability":"view","type":"function"},{"inputs":[{"internalType":"bytes32","name":"","type":"bytes32"}],"name":"hasVoted","outputs":[{"internalType":"bool","name":"","type":"bool"}],"stateMutability":"view","type":"function"},{"inputs":[{"internalType":"address","name":"","type":"address"}],"name":"nullifiers","outputs":[{"internalType":"bytes32","name":"","type":"bytes32"}],"stateMutability":"view","type":"function"},{"inputs":[{"internalType":"uint256","name":"","type":"uint256"},{"internalType":"uint256","name":"","type":"uint256"}],"name":"proposalVotes","outputs":[{"internalType":"uint256","name":"","type":"uint256"}],"stateMutability":"view","type":"function"},{"inputs":[{"internalType":"uint256","name":"","type":"uint256"}],"name":"proposals","outputs":[{"internalType":"string","name":"name","type":"string"},{"internalType":"string","name":"description","type":"string"},{"internalType":"uint256","name":"votingEnd","type":"uint256"}],"stateMutability":"view","type":"function"},{"inputs":[{"internalType":"uint256","name":"","type":"uint256"},{"internalType":"uint256","name":"","type":"uint256"}],"name":"proposalsByDao","outputs":[{"internalType":"uint256","name":"","type":"uint256"}],"stateMutability":"view","type":"function"},{"inputs":[{"internalType":"string","name":"destinationChain","type":"string"},{"internalType":"string","name":"destinationAddress","type":"string"},{"internalType":"bytes32","name":"hash","type":"bytes32"},{"internalType":"uint256","name":"pid","type":"uint256"},{"internalType":"uint256","name":"vote","type":"uint256"}],"name":"revealVoteCrosschain","outputs":[],"stateMutability":"payable","type":"function"},{"inputs":[],"name":"verifier","outputs":[{"internalType":"contract VoteVerifier","name":"","type":"address"}],"stateMutability":"view","type":"function"}],"evm":{"bytecode":{"linkReferences":{},"object":"60c0604052346200005f576200001f6200001862000122565b9162000176565b60405161257262000290823960805181818161074f0152818161110101528181611249015261155f015260a051818181610c7501526114dd015261257290f35b600080fd5b634e487b7160e01b600052604160045260246000fd5b90601f01601f191681019081106001600160401b038211176200009c57604052565b62000064565b90620000b9620000b160405190565b92836200007a565b565b6001600160a01b031690565b90565b6001600160a01b038116036200005f57565b90505190620000b982620000ca565b90916060828403126200005f57620000c7620001088484620000dc565b93620001188160208601620000dc565b93604001620000dc565b6200014562002802803803806200013981620000a2565b928339810190620000eb565b909192565b620000c790620000bb906001600160a01b031682565b620000c7906200014a565b620000c79062000160565b6200018c926200018691620001ac565b6200016b565b60a052565b620000bb620000c7620000c79290565b620000c79062000191565b90620001b890620001fa565b620001c8620000bb6000620001a1565b6001600160a01b03821614620001e857620001e3906200016b565b608052565b60405163e6c4247b60e01b8152600490fd5b620000b99062000271565b90600019905b9181191691161790565b620000c7620000c7620000c79290565b9062000239620000c7620002419262000215565b825462000205565b9055565b906001600160a01b03906200020b565b9062000269620000c762000241926200016b565b825462000245565b62000287620000b9916200018660008062000225565b60096200025556fe6080604052600436101561001257600080fd5b60003560e01c8063013cf08b146101725780630d68eb9e1461016d5780630faccaf11461016857806310ba549714610163578063116191b61461015e5780631a98b2e0146101595780631b4613cb146101545780631c0d850e1461014f5780631f9735e51461014a5780632b7ac3f3146101455780632c72fdfc1461014057806347c661401461013b57806349160658146101365780635de59280146101315780636a22d8cc1461012c5780637092d2c014610127578063a1d36ce714610122578063b18f0de21461011d578063bba7055e14610118578063ccbbd26014610113578063e85f857e1461010e5763f8f8059a036101805761101b565b610f8c565b610f11565b610e56565b610e29565b610dcd565b610cdf565b610c60565b610c46565b610bae565b610b0a565b610a8f565b6109af565b610974565b6108e2565b6108b5565b610854565b61073a565b6106d5565b6105e0565b610494565b6103cd565b805b0361018057565b600080fd5b9050359061019282610177565b565b90602082820312610180576101a891610185565b90565b6101a86101a86101a89290565b906101c2906101ab565b600052602052604060002090565b634e487b7160e01b600052602260045260246000fd5b9060016002830492168015610206575b602083101461020157565b6101d0565b91607f16916101f6565b8054600093929161022d610223836101e6565b8085529360200190565b916001811690811561027f575060011461024657505050565b6102599192939450600052602060002090565b916000925b81841061026b5750500190565b80548484015260209093019260010161025e565b92949550505060ff1916825215156020020190565b906101a891610210565b634e487b7160e01b600052604160045260246000fd5b90601f01601f191681019081106001600160401b038211176102d557604052565b61029e565b906101926102f4926102eb60405190565b93848092610294565b03836102b4565b6101a89081565b6101a890546102fb565b6103179060036101b8565b610320816102da565b916101a86002610332600185016102da565b9301610302565b60005b83811061034c5750506000910152565b818101518382015260200161033c565b61037d61038660209361039093610371815190565b80835293849260200190565b95869101610339565b601f01601f191690565b0190565b9052565b9392906103c8610192936103ba604093606089019089820360008b015261035c565b90878203602089015261035c565b940152565b34610180576103f76103e86103e3366004610194565b61030c565b60405191939193849384610398565b0390f35b9190604083820312610180576101a8906104158185610185565b93602001610185565b634e487b7160e01b600052603260045260246000fd5b600282101561044a576001905b91020190600090565b61041e565b6101a8916008021c81565b906101a8915461044f565b6104736004916000926101b8565b90600283101561049157506101a89161048b91610434565b9061045a565b80fd5b34610180576103f76104b06104aa3660046103fb565b90610465565b6040519182918290815260200190565b906101926104cd60405190565b92836102b4565b6001600160401b0381116102d557602090601f01601f19160190565b90826000939282370152565b9092919261051161050c826104d4565b6104c0565b9381855260208501908284011161018057610192926104f0565b9080601f83011215610180578160206101a8933591016104fc565b9190916060818403126101805761055d60606104c0565b9281356001600160401b038111610180578161057a91840161052b565b84526020820135906001600160401b0382116101805761059f816105ae93850161052b565b60208601526040809301610185565b90830152565b9190604083820312610180578235906001600160401b03821161018057610415816101a8938601610546565b34610180576103f76104b06105f63660046105b4565b90611e6e565b6001600160a01b031690565b6001600160a01b038116610179565b9050359061019282610608565b9190916080818403126101805761063b60806104c0565b9281356001600160401b038111610180578161065891840161052b565b845260208201356001600160401b038111610180578161067991840161052b565b60208501526040820135906001600160401b038211610180576106a1816105ae93850161052b565b60408601526060809301610617565b906020828203126101805781356001600160401b038111610180576101a89201610624565b34610180576103f76104b06106eb3660046106b0565b611a13565b600091031261018057565b6101a8906105fc906001600160a01b031682565b6101a8906106fb565b6101a89061070f565b61039490610718565b6020810192916101929190610721565b346101805761074a3660046106f0565b6103f77f00000000000000000000000000000000000000000000000000000000000000005b6040519182918261072a565b909182601f83011215610180578135916001600160401b03831161018057602001926001830284011161018057565b919060c083820312610180576107c08184610185565b9260208101356001600160401b03811161018057826107e091830161077b565b92909360408301356001600160401b038111610180578261080291850161077b565b92909360608101356001600160401b038111610180578261082491830161077b565b92909360808301356001600160401b03811161018057610849836101a892860161077b565b93909460a001610185565b34610180576108796108673660046107aa565b9897909796919695929594939461121a565b604051005b906101c2565b6101a8916008021c5b60ff1690565b906101a89154610884565b6101a8906108b060089160009261087e565b610893565b34610180576103f76108d06108cb366004610194565b61089e565b60405191829182901515815260200190565b34610180576103f76108d06108f8366004610194565b6122b0565b908160809103126101805790565b906060828203126101805781356001600160401b038111610180578161093291840161077b565b92909360208201356001600160401b038111610180578361095491840161077b565b92909360408201356001600160401b038111610180576101a892016108fd565b61087961098236600461090b565b93929092611482565b6101a8916008021c6105fc565b906101a8915461098b565b6101a860006009610998565b34610180576109bf3660046106f0565b6103f761076f6109a3565b906101a890604080610a006109ee606085016000880151868203600088015261035c565b6020870151858203602087015261035c565b940151910152565b906101a8916109ca565b90610a28610a1e835190565b8083529160200190565b9081610a3a6020830284019460200190565b926000915b838310610a4e57505050505090565b90919293946020610a71610a6a83856001950387528951610a08565b9760200190565b9301930191939290610a3f565b60208082526101a892910190610a12565b34610180576103f7610aaa610aa5366004610194565b612450565b60405191829182610a7e565b610ac6610ac260029390565b9190565b6000915b838310610ad75750505050565b610af1610aea6001928451815260200190565b9260200190565b92019190610aca565b6040810192916101929190610ab6565b34610180576103f7610b25610b20366004610194565b61252d565b60405191829182610afa565b91909160808184031261018057610b488382610185565b9260208201356001600160401b0381116101805781610b6891840161077b565b92909360408201356001600160401b0381116101805783610b8a91840161077b565b92909360608201356001600160401b03811161018057610baa920161077b565b9091565b3461018057610879610bc1366004610b31565b959490949391936110d0565b9190916080818403126101805780356001600160401b0381116101805783610bf691830161077b565b92909360208301356001600160401b0381116101805781610c1891850161077b565b929093610c288360408301610185565b9260608201356001600160401b038111610180576101a892016108fd565b610879610c54366004610bcd565b94939093929192611717565b3461018057610c703660046106f0565b6103f77f000000000000000000000000000000000000000000000000000000000000000061076f565b805482101561044a57610441600191600052602060002090565b610cc16005916000926101b8565b90610cca825490565b83101561049157506101a89161048b91610c99565b34610180576103f76104b0610cf53660046103fb565b90610cb3565b906101a890606080610d46610d34610d22608086016000890151878203600089015261035c565b6020880151868203602088015261035c565b6040870151858203604087015261035c565b9401516001600160a01b0316910152565b906101a891610cfb565b90610d6d610a1e835190565b9081610d7f6020830284019460200190565b926000915b838310610d9357505050505090565b90919293946020610daf610a6a83856001950387528951610d57565b9301930191939290610d84565b60208082526101a892910190610d61565b3461018057610ddd3660046106f0565b6103f7610de8611e47565b60405191829182610dbc565b90602082820312610180576101a891610617565b906101c290610718565b6101a890610e24600791600092610e08565b61045a565b34610180576103f76104b0610e3f366004610df4565b610e12565b6101a890610e24600691600092610e08565b34610180576103f76104b0610e6c366004610df4565b610e44565b6101a8906105fc565b6101a89054610e71565b610e8f9060026101b8565b90610e99826102da565b91610ea6600182016102da565b916101a86003610eb8600285016102da565b9301610e7a565b94939161019293610ef3610f0192610ee560609560808b01908b820360008d015261035c565b9089820360208b015261035c565b90878203604089015261035c565b9401906001600160a01b03169052565b34610180576103f7610f2c610f27366004610194565b610e84565b90610f3994929460405190565b94859485610ebf565b805482101561044a57610441600491600052602060002090565b90600191600092610f6b815490565b821015610f8857610f7d929350610f42565b5090610e99826102da565b8380fd5b34610180576103f7610f2c610fa2366004610194565b610f5c565b909160a0828403126101805781356001600160401b0381116101805783610fcf91840161077b565b92909360208201356001600160401b0381116101805781610ff191840161077b565b9290936101a86110048460408501610185565b936110128160608601610185565b93608001610185565b610879611029366004610fa7565b9594909493919361177e565b6101a89136916104fc565b801515610179565b9050519061019282611040565b90602082820312610180576101a891611048565b919061038681611080816103909560209181520190565b80956104f0565b96959390946110b6886060956103c8956110a96101929a600060808601950152565b8b830360208d0152611069565b9188830360408a0152611069565b6040513d6000823e3d90fd5b906020819796959493926110e48888611035565b6110f66110ef825190565b9160200190565b2061114860006111257f0000000000000000000000000000000000000000000000000000000000000000610718565b92611153635f6970c3918b8b8b61113b60405190565b9b8c9a8b998a9860e01b90565b885260048801611087565b03925af180156111b85761116d9160009161118c57501590565b61117a5761019295611968565b604051631403112d60e21b8152600490fd5b6111ad915060203d81116111b1575b6111a581836102b4565b810190611055565b1590565b503d61119b565b6110c4565b9998969160a096946103c8966111f761120d946101929c978f95611205966111ea60c08201946000830152565b6020818503910152611069565b8d810360408f015291611069565b9360608b0152565b88830360808a0152611069565b969760209860009561123761129595969961128a999d959d611035565b6112426110ef825190565b209061126d7f0000000000000000000000000000000000000000000000000000000000000000610718565b99631876eed99761127d60405190565b9e8f9d8e9c8d9b60e01b90565b8b5260048b016111bd565b03925af180156111b8576112af9160009161118c57501590565b61117a57565b156112bc57565b60405162461bcd60e51b81526020600482015260076024820152665061792067617360c81b6044820152606490fd5b6101a8903690610624565b61088d6101a86101a89290565b610394906112f6565b9035601e1936839003018112156101805701602081359101916001600160401b0382116101805736829003831361018057565b506101a8906020810190610617565b906101a89060606113ba6113b061139561137a6080860161136f898061130c565b888303895290611069565b611387602089018961130c565b908783036020890152611069565b6113a2604088018861130c565b908683036040880152611069565b948281019061133f565b6001600160a01b0316910152565b916101a8926113df60408201936000830190611303565b602081840391015261134e565b9796949360809461142a8a610f01966101929a9661141d61143897600060a086019501906001600160a01b03169052565b8d830360208f0152611069565b918a830360408c0152611069565b90878203606089015261035c565b936114666101a896949261147494606088019188830360008a0152611069565b918583036020870152611069565b91604081840391015261035c565b90926114cc346114d86000976114a261149a8a6101ab565b845b116112b5565b6114b36114ae826112eb565b611d1d565b60016114be60405190565b9485926020840192836113c8565b908103825203836102b4565b6115017f0000000000000000000000000000000000000000000000000000000000000000610718565b630c93e3bb9061151030610718565b9033813b156101805787948b9461154a61153f93898b8f8f9061153260405190565b9c8d9b8c9a8b9960e01b90565b8952600489016113ec565b03925af180156111b8576115f5575b506115837f0000000000000000000000000000000000000000000000000000000000000000610718565b91631c92115f833b15610180576115bd6115b29389979388946115a560405190565b9a8b998a98899760e01b90565b875260048701611446565b03925af180156111b8576115cf575050565b8161019292903d106115ee575b6115e681836102b4565b8101906106f0565b503d6115dc565b61160b90873d89116115ee576115e681836102b4565b38611559565b9035601e1936839003018112156101805701602081359101916001600160401b03821161018057602082023603831361018057565b9037565b8183529091602001916001600160fb1b03811161018057829160206103909202938491611646565b506101a8906020810190610185565b906101a89060606116e66116c56116aa6080850161169f888061130c565b878303885290611069565b6116b76020880188611611565b90868303602088015261164a565b946116dd6116d66040830183611672565b6040860152565b82810190611672565b910152565b9392906103c86040916101929461170a606089019260008a0190611303565b8782036020890152611681565b91929093346114d860009761172e61149a8a6101ab565b60026114cc61173c60405190565b9586936020850193846116eb565b61177a6101929461177360609498979561176c608086019a6000870190611303565b6020850152565b6040830152565b0152565b9291939490946114d8349160009861179e6117988b6101ab565b8561149c565b6114cc6003916117ad60405190565b96879460208601948561174a565b919091604081840312610180576117d28382610185565b9260208201356001600160401b038111610180576101a89201610624565b608081830312610180576118048282610185565b926101a86118158460208501610185565b936118238160408601610185565b93606001610185565b6001600160401b0381116102d55760208091020190565b9092919261185361050c8261182c565b938185526020808601920283019281841161018057915b8383106118775750505050565b602080916118858486610185565b81520192019161186a565b9080601f83011215610180578160206101a893359101611843565b919091608081840312610180576118c260806104c0565b9281356001600160401b03811161018057816118df91840161052b565b84526020820135906001600160401b03821161018057611904816105ae938501611890565b6020860152604061191782828601610185565b908601526060809301610185565b90916060828403126101805761193b8383610185565b926020830135906001600160401b0382116101805761195f816101a89386016118ab565b93604001610185565b5050505090611979818301836117bb565b5061198460016101ab565b81036119a257508161199b916101929301906117bb565b9050611d1d565b6119ac60026101ab565b81036119cb5750816119c391610192930190611925565b909150612004565b6119d8610ac260036101ab565b146119e1575050565b816119f1916101929301906117f0565b92509061219d565b60208082526101a892910190610cfb565b6101a8906101ab565b6101a890611a3f611a2360405190565b8092611a336020830191826119f9565b908103825203826102b4565b611a4a6110ef825190565b20611a0a565b634e487b7160e01b600052600060045260246000fd5b9160001960089290920291821b911b5b9181191691161790565b9190611a916101a8611a99936101ab565b908354611a66565b9055565b6101929160005b91611a80565b818110611ab5575050565b80611ac36000600193611a9d565b01611aaa565b9190601f8111611ad857505050565b611aea61019293600052602060002090565b906020601f840181900483019310611b0c575b6020601f909101040190611aaa565b9091508190611afd565b9060001960089091021c191690565b81611b2f91611b16565b906002021790565b90611b40815190565b906001600160401b0382116102d557611b6382611b5d85546101e6565b85611ac9565b602090601f8311600114611b9157611a99929160009183611b86575b5050611b25565b015190503880611b7f565b601f19831691611ba685600052602060002090565b9260005b818110611be557509160029391856001969410611bcb575b50505002019055565b611bdb910151601f841690611b16565b9055388080611bc2565b91936020600181928787015181550195019201611baa565b9061019291611b37565b906001600160a01b0390611a76565b90611c266101a8611a9992610718565b8254611c07565b90611c856060600361019294611c5160008201611c4b600088015190565b90611bfd565b611c6360018201611c4b602088015190565b611c7560028201611c4b604088015190565b019201516001600160a01b031690565b90611c16565b9061019291611c2d565b9190611ca45761019291611c2d565b611a50565b80549190600160401b8310156102d55782611ccc91600161019295018155610f42565b90611c95565b634e487b7160e01b600052601160045260246000fd5b6000198114611cf75760010190565b611cd2565b9060001990611a76565b90611d166101a8611a99926101ab565b8254611cfc565b611d4490611d3d81611d38611d3182611a13565b60026101b8565b611c8b565b6001611ca9565b610192611d59611d546000610302565b611ce8565b6000611d06565b90611d6d61050c8361182c565b918252565b6101a860806104c0565b90610192611dd06003611d8d611d72565b94611d9e611d9a826102da565b8752565b611db4611dad600183016102da565b6020880152565b611dca611dc3600283016102da565b6040880152565b01610e7a565b6001600160a01b03166060840152565b6101a890611d7c565b90611df2825490565b611dfb81611d60565b92611e0f6020850191600052602060002090565b6000915b838310611e205750505050565b60046020600192611e3085611de0565b815201920192019190611e13565b6101a890611de9565b6101a86001611e3e565b929160206103c861019293604087019087820360008901526109ca565b611a3f6101a892611a3392611e81600090565b50604051938492602084019283611e51565b6101a89061088d565b6101a89054611e93565b15611ead57565b60405162461bcd60e51b8152602060048201526011602482015270159bdd1948185b1c9958591e4818d85cdd607a1b6044820152606490fd5b90611eff610aea611ef5845190565b8084529260200190565b9060005b818110611f105750505090565b909192611f2d611f266001928651815260200190565b9460200190565b929101611f03565b60408082526101a8939192611f4c9184019061035c565b916020818403910152611ee6565b15611f6157565b60405162461bcd60e51b815260206004820152600c60248201526b496e76616c696420766f746560a01b6044820152606490fd5b9060ff90611a76565b90611fae6101a8611a9992151590565b8254611f95565b90611d166101a8611a999290565b15611fca57565b60405162461bcd60e51b81526020600482015260126024820152712b37ba34b733903832b934b7b21037bb32b960711b6044820152606490fd5b60408201519160089261202a6120256111ad612020848861087e565b611e9c565b611ea6565b61203c6120376009610e7a565b610718565b93602063ea50d0e49560008501519061206c838701519861207761205f60405190565b9a8b958694859460e01b90565b845260048401611f35565b03915afa9081156111b85760606120dc946120b96120d4936120a86120ca966101929b6000916120ff575b50611f5a565b6120b48760019261087e565b611f9e565b6120cf6006956120ca338098610e08565b611fb5565b015190565b916007610e08565b6120f9610ac26101a860026120f3429560036101b8565b01610302565b10611fc3565b612117915060203d81116111b1576111a581836102b4565b386120a2565b1561212457565b60405162461bcd60e51b81526020600482015260156024820152742cb7ba9030b932903737ba103a3432903b37ba32b960591b6044820152606490fd5b1561216857565b60405162461bcd60e51b815260206004820152600d60248201526c159bdd19481b9bdd0818d85cdd609a1b6044820152606490fd5b916121ff612204926121dc6121d7612020610192976121d06121c96121c460063390610e08565b610302565b821461211d565b600861087e565b612161565b6121e660006101ab565b83148015612211575b6121f890611f5a565b60046101b8565b610434565b611aa4611d54828461045a565b506121f861221f60016101ab565b841490506121ef565b612234610ac260029390565b6000915b8383106122455750505050565b61226661225f60019261225785610302565b815260200190565b9260010190565b92019190612238565b9061039081604093612228565b906101926102f49261228d60405190565b9384809261226f565b6101a89061227c565b90600281101561044a576020020190565b6122c76122cc916122bf600090565b5060046101b8565b612296565b612303610ac26101a86122ee6122f26122ee6122e860016101ab565b8761229f565b5190565b946122fd60006101ab565b9061229f565b1190565b90612322612316611ef5845490565b92600052602060002090565b9060005b8181106123335750505090565b90919261234f61234860019261225787610302565b9460010190565b929101612326565b906101a891612307565b906101926102f49261237260405190565b93848092612357565b6101a890612361565b6101a860606104c0565b612396612384565b606080825260208201526000604082015290565b6101a861238e565b60005b8281106123c157505050565b6020906123cc6123aa565b81840152016123b5565b906101926123ec6123e684611d60565b9361182c565b601f1901602084016123b2565b90612402825190565b81101561044a576020809102010190565b906101926124406002612424612384565b94612431611d9a826102da565b6120f3611dad600183016102da565b6040840152565b6101a890612413565b61246761246c9161245f606090565b5060056101b8565b61237b565b61247c612477825190565b6123d6565b9061248760006101ab565b6124926101a8835190565b8110156124dd576124d8906124bd6124b860036124b26122ee85886123f9565b906101b8565b612447565b6124c782866123f9565b526124d281856123f9565b50611ce8565b612487565b505090565b6001600160401b0381116102d55760200290565b61050c6101a8916124e2565b369037565b9061019261251d612517846124f6565b936124e2565b83612502565b6101a86002612507565b6122c76101a8916122bf61252356fea2646970667358221220e8d9d234192af5e5e4a5a619b1b269db1a20cc23cf936fc66d43473dfc18a76d64736f6c63430008140033","opcodes":"PUSH1 0xC0 PUSH1 0x40 MSTORE CALLVALUE PUSH3 0x5F JUMPI PUSH3 0x1F PUSH3 0x18 PUSH3 0x122 JUMP JUMPDEST SWAP2 PUSH3 0x176 JUMP JUMPDEST PUSH1 0x40 MLOAD PUSH2 0x2572 PUSH3 0x290 DUP3 CODECOPY PUSH1 0x80 MLOAD DUP2 DUP2 DUP2 PUSH2 0x74F ADD MSTORE DUP2 DUP2 PUSH2 0x1101 ADD MSTORE DUP2 DUP2 PUSH2 0x1249 ADD MSTORE PUSH2 0x155F ADD MSTORE PUSH1 0xA0 MLOAD DUP2 DUP2 DUP2 PUSH2 0xC75 ADD MSTORE PUSH2 0x14DD ADD MSTORE PUSH2 0x2572 SWAP1 RETURN JUMPDEST PUSH1 0x0 DUP1 REVERT JUMPDEST PUSH4 0x4E487B71 PUSH1 0xE0 SHL PUSH1 0x0 MSTORE PUSH1 0x41 PUSH1 0x4 MSTORE PUSH1 0x24 PUSH1 0x0 REVERT JUMPDEST SWAP1 PUSH1 0x1F ADD PUSH1 0x1F NOT AND DUP2 ADD SWAP1 DUP2 LT PUSH1 0x1 PUSH1 0x1 PUSH1 0x40 SHL SUB DUP3 GT OR PUSH3 0x9C JUMPI PUSH1 0x40 MSTORE JUMP JUMPDEST PUSH3 0x64 JUMP JUMPDEST SWAP1 PUSH3 0xB9 PUSH3 0xB1 PUSH1 0x40 MLOAD SWAP1 JUMP JUMPDEST SWAP3 DUP4 PUSH3 0x7A JUMP JUMPDEST JUMP JUMPDEST PUSH1 0x1 PUSH1 0x1 PUSH1 0xA0 SHL SUB AND SWAP1 JUMP JUMPDEST SWAP1 JUMP JUMPDEST PUSH1 0x1 PUSH1 0x1 PUSH1 0xA0 SHL SUB DUP2 AND SUB PUSH3 0x5F JUMPI JUMP JUMPDEST SWAP1 POP MLOAD SWAP1 PUSH3 0xB9 DUP3 PUSH3 0xCA JUMP JUMPDEST SWAP1 SWAP2 PUSH1 0x60 DUP3 DUP5 SUB SLT PUSH3 0x5F JUMPI PUSH3 0xC7 PUSH3 0x108 DUP5 DUP5 PUSH3 0xDC JUMP JUMPDEST SWAP4 PUSH3 0x118 DUP2 PUSH1 0x20 DUP7 ADD PUSH3 0xDC JUMP JUMPDEST SWAP4 PUSH1 0x40 ADD PUSH3 0xDC JUMP JUMPDEST PUSH3 0x145 PUSH3 0x2802 DUP1 CODESIZE SUB DUP1 PUSH3 0x139 DUP2 PUSH3 0xA2 JUMP JUMPDEST SWAP3 DUP4 CODECOPY DUP2 ADD SWAP1 PUSH3 0xEB JUMP JUMPDEST SWAP1 SWAP2 SWAP3 JUMP JUMPDEST PUSH3 0xC7 SWAP1 PUSH3 0xBB SWAP1 PUSH1 0x1 PUSH1 0x1 PUSH1 0xA0 SHL SUB AND DUP3 JUMP JUMPDEST PUSH3 0xC7 SWAP1 PUSH3 0x14A JUMP JUMPDEST PUSH3 0xC7 SWAP1 PUSH3 0x160 JUMP JUMPDEST PUSH3 0x18C SWAP3 PUSH3 0x186 SWAP2 PUSH3 0x1AC JUMP JUMPDEST PUSH3 0x16B JUMP JUMPDEST PUSH1 0xA0 MSTORE JUMP JUMPDEST PUSH3 0xBB PUSH3 0xC7 PUSH3 0xC7 SWAP3 SWAP1 JUMP JUMPDEST PUSH3 0xC7 SWAP1 PUSH3 0x191 JUMP JUMPDEST SWAP1 PUSH3 0x1B8 SWAP1 PUSH3 0x1FA JUMP JUMPDEST PUSH3 0x1C8 PUSH3 0xBB PUSH1 0x0 PUSH3 0x1A1 JUMP JUMPDEST PUSH1 0x1 PUSH1 0x1 PUSH1 0xA0 SHL SUB DUP3 AND EQ PUSH3 0x1E8 JUMPI PUSH3 0x1E3 SWAP1 PUSH3 0x16B JUMP JUMPDEST PUSH1 0x80 MSTORE JUMP JUMPDEST PUSH1 0x40 MLOAD PUSH4 0xE6C4247B PUSH1 0xE0 SHL DUP2 MSTORE PUSH1 0x4 SWAP1 REVERT JUMPDEST PUSH3 0xB9 SWAP1 PUSH3 0x271 JUMP JUMPDEST SWAP1 PUSH1 0x0 NOT SWAP1 JUMPDEST SWAP2 DUP2 NOT AND SWAP2 AND OR SWAP1 JUMP JUMPDEST PUSH3 0xC7 PUSH3 0xC7 PUSH3 0xC7 SWAP3 SWAP1 JUMP JUMPDEST SWAP1 PUSH3 0x239 PUSH3 0xC7 PUSH3 0x241 SWAP3 PUSH3 0x215 JUMP JUMPDEST DUP3 SLOAD PUSH3 0x205 JUMP JUMPDEST SWAP1 SSTORE JUMP JUMPDEST SWAP1 PUSH1 0x1 PUSH1 0x1 PUSH1 0xA0 SHL SUB SWAP1 PUSH3 0x20B JUMP JUMPDEST SWAP1 PUSH3 0x269 PUSH3 0xC7 PUSH3 0x241 SWAP3 PUSH3 0x16B JUMP JUMPDEST DUP3 SLOAD PUSH3 0x245 JUMP JUMPDEST PUSH3 0x287 PUSH3 0xB9 SWAP2 PUSH3 0x186 PUSH1 0x0 DUP1 PUSH3 0x225 JUMP JUMPDEST PUSH1 0x9 PUSH3 0x255 JUMP INVALID PUSH1 0x80 PUSH1 0x40 MSTORE PUSH1 0x4 CALLDATASIZE LT ISZERO PUSH2 0x12 JUMPI PUSH1 0x0 DUP1 REVERT JUMPDEST PUSH1 0x0 CALLDATALOAD PUSH1 0xE0 SHR DUP1 PUSH4 0x13CF08B EQ PUSH2 0x172 JUMPI DUP1 PUSH4 0xD68EB9E EQ PUSH2 0x16D JUMPI DUP1 PUSH4 0xFACCAF1 EQ PUSH2 0x168 JUMPI DUP1 PUSH4 0x10BA5497 EQ PUSH2 0x163 JUMPI DUP1 PUSH4 0x116191B6 EQ PUSH2 0x15E JUMPI DUP1 PUSH4 0x1A98B2E0 EQ PUSH2 0x159 JUMPI DUP1 PUSH4 0x1B4613CB EQ PUSH2 0x154 JUMPI DUP1 PUSH4 0x1C0D850E EQ PUSH2 0x14F JUMPI DUP1 PUSH4 0x1F9735E5 EQ PUSH2 0x14A JUMPI DUP1 PUSH4 0x2B7AC3F3 EQ PUSH2 0x145 JUMPI DUP1 PUSH4 0x2C72FDFC EQ PUSH2 0x140 JUMPI DUP1 PUSH4 0x47C66140 EQ PUSH2 0x13B JUMPI DUP1 PUSH4 0x49160658 EQ PUSH2 0x136 JUMPI DUP1 PUSH4 0x5DE59280 EQ PUSH2 0x131 JUMPI DUP1 PUSH4 0x6A22D8CC EQ PUSH2 0x12C JUMPI DUP1 PUSH4 0x7092D2C0 EQ PUSH2 0x127 JUMPI DUP1 PUSH4 0xA1D36CE7 EQ PUSH2 0x122 JUMPI DUP1 PUSH4 0xB18F0DE2 EQ PUSH2 0x11D JUMPI DUP1 PUSH4 0xBBA7055E EQ PUSH2 0x118 JUMPI DUP1 PUSH4 0xCCBBD260 EQ PUSH2 0x113 JUMPI DUP1 PUSH4 0xE85F857E EQ PUSH2 0x10E JUMPI PUSH4 0xF8F8059A SUB PUSH2 0x180 JUMPI PUSH2 0x101B JUMP JUMPDEST PUSH2 0xF8C JUMP JUMPDEST PUSH2 0xF11 JUMP JUMPDEST PUSH2 0xE56 JUMP JUMPDEST PUSH2 0xE29 JUMP JUMPDEST PUSH2 0xDCD JUMP JUMPDEST PUSH2 0xCDF JUMP JUMPDEST PUSH2 0xC60 JUMP JUMPDEST PUSH2 0xC46 JUMP JUMPDEST PUSH2 0xBAE JUMP JUMPDEST PUSH2 0xB0A JUMP JUMPDEST PUSH2 0xA8F JUMP JUMPDEST PUSH2 0x9AF JUMP JUMPDEST PUSH2 0x974 JUMP JUMPDEST PUSH2 0x8E2 JUMP JUMPDEST PUSH2 0x8B5 JUMP JUMPDEST PUSH2 0x854 JUMP JUMPDEST PUSH2 0x73A JUMP JUMPDEST PUSH2 0x6D5 JUMP JUMPDEST PUSH2 0x5E0 JUMP JUMPDEST PUSH2 0x494 JUMP JUMPDEST PUSH2 0x3CD JUMP JUMPDEST DUP1 JUMPDEST SUB PUSH2 0x180 JUMPI JUMP JUMPDEST PUSH1 0x0 DUP1 REVERT JUMPDEST SWAP1 POP CALLDATALOAD SWAP1 PUSH2 0x192 DUP3 PUSH2 0x177 JUMP JUMPDEST JUMP JUMPDEST SWAP1 PUSH1 0x20 DUP3 DUP3 SUB SLT PUSH2 0x180 JUMPI PUSH2 0x1A8 SWAP2 PUSH2 0x185 JUMP JUMPDEST SWAP1 JUMP JUMPDEST PUSH2 0x1A8 PUSH2 0x1A8 PUSH2 0x1A8 SWAP3 SWAP1 JUMP JUMPDEST SWAP1 PUSH2 0x1C2 SWAP1 PUSH2 0x1AB JUMP JUMPDEST PUSH1 0x0 MSTORE PUSH1 0x20 MSTORE PUSH1 0x40 PUSH1 0x0 KECCAK256 SWAP1 JUMP JUMPDEST PUSH4 0x4E487B71 PUSH1 0xE0 SHL PUSH1 0x0 MSTORE PUSH1 0x22 PUSH1 0x4 MSTORE PUSH1 0x24 PUSH1 0x0 REVERT JUMPDEST SWAP1 PUSH1 0x1 PUSH1 0x2 DUP4 DIV SWAP3 AND DUP1 ISZERO PUSH2 0x206 JUMPI JUMPDEST PUSH1 0x20 DUP4 LT EQ PUSH2 0x201 JUMPI JUMP JUMPDEST PUSH2 0x1D0 JUMP JUMPDEST SWAP2 PUSH1 0x7F AND SWAP2 PUSH2 0x1F6 JUMP JUMPDEST DUP1 SLOAD PUSH1 0x0 SWAP4 SWAP3 SWAP2 PUSH2 0x22D PUSH2 0x223 DUP4 PUSH2 0x1E6 JUMP JUMPDEST DUP1 DUP6 MSTORE SWAP4 PUSH1 0x20 ADD SWAP1 JUMP JUMPDEST SWAP2 PUSH1 0x1 DUP2 AND SWAP1 DUP2 ISZERO PUSH2 0x27F JUMPI POP PUSH1 0x1 EQ PUSH2 0x246 JUMPI POP POP POP JUMP JUMPDEST PUSH2 0x259 SWAP2 SWAP3 SWAP4 SWAP5 POP PUSH1 0x0 MSTORE PUSH1 0x20 PUSH1 0x0 KECCAK256 SWAP1 JUMP JUMPDEST SWAP2 PUSH1 0x0 SWAP3 JUMPDEST DUP2 DUP5 LT PUSH2 0x26B JUMPI POP POP ADD SWAP1 JUMP JUMPDEST DUP1 SLOAD DUP5 DUP5 ADD MSTORE PUSH1 0x20 SWAP1 SWAP4 ADD SWAP3 PUSH1 0x1 ADD PUSH2 0x25E JUMP JUMPDEST SWAP3 SWAP5 SWAP6 POP POP POP PUSH1 0xFF NOT AND DUP3 MSTORE ISZERO ISZERO PUSH1 0x20 MUL ADD SWAP1 JUMP JUMPDEST SWAP1 PUSH2 0x1A8 SWAP2 PUSH2 0x210 JUMP JUMPDEST PUSH4 0x4E487B71 PUSH1 0xE0 SHL PUSH1 0x0 MSTORE PUSH1 0x41 PUSH1 0x4 MSTORE PUSH1 0x24 PUSH1 0x0 REVERT JUMPDEST SWAP1 PUSH1 0x1F ADD PUSH1 0x1F NOT AND DUP2 ADD SWAP1 DUP2 LT PUSH1 0x1 PUSH1 0x1 PUSH1 0x40 SHL SUB DUP3 GT OR PUSH2 0x2D5 JUMPI PUSH1 0x40 MSTORE JUMP JUMPDEST PUSH2 0x29E JUMP JUMPDEST SWAP1 PUSH2 0x192 PUSH2 0x2F4 SWAP3 PUSH2 0x2EB PUSH1 0x40 MLOAD SWAP1 JUMP JUMPDEST SWAP4 DUP5 DUP1 SWAP3 PUSH2 0x294 JUMP JUMPDEST SUB DUP4 PUSH2 0x2B4 JUMP JUMPDEST PUSH2 0x1A8 SWAP1 DUP2 JUMP JUMPDEST PUSH2 0x1A8 SWAP1 SLOAD PUSH2 0x2FB JUMP JUMPDEST PUSH2 0x317 SWAP1 PUSH1 0x3 PUSH2 0x1B8 JUMP JUMPDEST PUSH2 0x320 DUP2 PUSH2 0x2DA JUMP JUMPDEST SWAP2 PUSH2 0x1A8 PUSH1 0x2 PUSH2 0x332 PUSH1 0x1 DUP6 ADD PUSH2 0x2DA JUMP JUMPDEST SWAP4 ADD PUSH2 0x302 JUMP JUMPDEST PUSH1 0x0 JUMPDEST DUP4 DUP2 LT PUSH2 0x34C JUMPI POP POP PUSH1 0x0 SWAP2 ADD MSTORE JUMP JUMPDEST DUP2 DUP2 ADD MLOAD DUP4 DUP3 ADD MSTORE PUSH1 0x20 ADD PUSH2 0x33C JUMP JUMPDEST PUSH2 0x37D PUSH2 0x386 PUSH1 0x20 SWAP4 PUSH2 0x390 SWAP4 PUSH2 0x371 DUP2 MLOAD SWAP1 JUMP JUMPDEST DUP1 DUP4 MSTORE SWAP4 DUP5 SWAP3 PUSH1 0x20 ADD SWAP1 JUMP JUMPDEST SWAP6 DUP7 SWAP2 ADD PUSH2 0x339 JUMP JUMPDEST PUSH1 0x1F ADD PUSH1 0x1F NOT AND SWAP1 JUMP JUMPDEST ADD SWAP1 JUMP JUMPDEST SWAP1 MSTORE JUMP JUMPDEST SWAP4 SWAP3 SWAP1 PUSH2 0x3C8 PUSH2 0x192 SWAP4 PUSH2 0x3BA PUSH1 0x40 SWAP4 PUSH1 0x60 DUP10 ADD SWAP1 DUP10 DUP3 SUB PUSH1 0x0 DUP12 ADD MSTORE PUSH2 0x35C JUMP JUMPDEST SWAP1 DUP8 DUP3 SUB PUSH1 0x20 DUP10 ADD MSTORE PUSH2 0x35C JUMP JUMPDEST SWAP5 ADD MSTORE JUMP JUMPDEST CALLVALUE PUSH2 0x180 JUMPI PUSH2 0x3F7 PUSH2 0x3E8 PUSH2 0x3E3 CALLDATASIZE PUSH1 0x4 PUSH2 0x194 JUMP JUMPDEST PUSH2 0x30C JUMP JUMPDEST PUSH1 0x40 MLOAD SWAP2 SWAP4 SWAP2 SWAP4 DUP5 SWAP4 DUP5 PUSH2 0x398 JUMP JUMPDEST SUB SWAP1 RETURN JUMPDEST SWAP2 SWAP1 PUSH1 0x40 DUP4 DUP3 SUB SLT PUSH2 0x180 JUMPI PUSH2 0x1A8 SWAP1 PUSH2 0x415 DUP2 DUP6 PUSH2 0x185 JUMP JUMPDEST SWAP4 PUSH1 0x20 ADD PUSH2 0x185 JUMP JUMPDEST PUSH4 0x4E487B71 PUSH1 0xE0 SHL PUSH1 0x0 MSTORE PUSH1 0x32 PUSH1 0x4 MSTORE PUSH1 0x24 PUSH1 0x0 REVERT JUMPDEST PUSH1 0x2 DUP3 LT ISZERO PUSH2 0x44A JUMPI PUSH1 0x1 SWAP1 JUMPDEST SWAP2 MUL ADD SWAP1 PUSH1 0x0 SWAP1 JUMP JUMPDEST PUSH2 0x41E JUMP JUMPDEST PUSH2 0x1A8 SWAP2 PUSH1 0x8 MUL SHR DUP2 JUMP JUMPDEST SWAP1 PUSH2 0x1A8 SWAP2 SLOAD PUSH2 0x44F JUMP JUMPDEST PUSH2 0x473 PUSH1 0x4 SWAP2 PUSH1 0x0 SWAP3 PUSH2 0x1B8 JUMP JUMPDEST SWAP1 PUSH1 0x2 DUP4 LT ISZERO PUSH2 0x491 JUMPI POP PUSH2 0x1A8 SWAP2 PUSH2 0x48B SWAP2 PUSH2 0x434 JUMP JUMPDEST SWAP1 PUSH2 0x45A JUMP JUMPDEST DUP1 REVERT JUMPDEST CALLVALUE PUSH2 0x180 JUMPI PUSH2 0x3F7 PUSH2 0x4B0 PUSH2 0x4AA CALLDATASIZE PUSH1 0x4 PUSH2 0x3FB JUMP JUMPDEST SWAP1 PUSH2 0x465 JUMP JUMPDEST PUSH1 0x40 MLOAD SWAP2 DUP3 SWAP2 DUP3 SWAP1 DUP2 MSTORE PUSH1 0x20 ADD SWAP1 JUMP JUMPDEST SWAP1 PUSH2 0x192 PUSH2 0x4CD PUSH1 0x40 MLOAD SWAP1 JUMP JUMPDEST SWAP3 DUP4 PUSH2 0x2B4 JUMP JUMPDEST PUSH1 0x1 PUSH1 0x1 PUSH1 0x40 SHL SUB DUP2 GT PUSH2 0x2D5 JUMPI PUSH1 0x20 SWAP1 PUSH1 0x1F ADD PUSH1 0x1F NOT AND ADD SWAP1 JUMP JUMPDEST SWAP1 DUP3 PUSH1 0x0 SWAP4 SWAP3 DUP3 CALLDATACOPY ADD MSTORE JUMP JUMPDEST SWAP1 SWAP3 SWAP2 SWAP3 PUSH2 0x511 PUSH2 0x50C DUP3 PUSH2 0x4D4 JUMP JUMPDEST PUSH2 0x4C0 JUMP JUMPDEST SWAP4 DUP2 DUP6 MSTORE PUSH1 0x20 DUP6 ADD SWAP1 DUP3 DUP5 ADD GT PUSH2 0x180 JUMPI PUSH2 0x192 SWAP3 PUSH2 0x4F0 JUMP JUMPDEST SWAP1 DUP1 PUSH1 0x1F DUP4 ADD SLT ISZERO PUSH2 0x180 JUMPI DUP2 PUSH1 0x20 PUSH2 0x1A8 SWAP4 CALLDATALOAD SWAP2 ADD PUSH2 0x4FC JUMP JUMPDEST SWAP2 SWAP1 SWAP2 PUSH1 0x60 DUP2 DUP5 SUB SLT PUSH2 0x180 JUMPI PUSH2 0x55D PUSH1 0x60 PUSH2 0x4C0 JUMP JUMPDEST SWAP3 DUP2 CALLDATALOAD PUSH1 0x1 PUSH1 0x1 PUSH1 0x40 SHL SUB DUP2 GT PUSH2 0x180 JUMPI DUP2 PUSH2 0x57A SWAP2 DUP5 ADD PUSH2 0x52B JUMP JUMPDEST DUP5 MSTORE PUSH1 0x20 DUP3 ADD CALLDATALOAD SWAP1 PUSH1 0x1 PUSH1 0x1 PUSH1 0x40 SHL SUB DUP3 GT PUSH2 0x180 JUMPI PUSH2 0x59F DUP2 PUSH2 0x5AE SWAP4 DUP6 ADD PUSH2 0x52B JUMP JUMPDEST PUSH1 0x20 DUP7 ADD MSTORE PUSH1 0x40 DUP1 SWAP4 ADD PUSH2 0x185 JUMP JUMPDEST SWAP1 DUP4 ADD MSTORE JUMP JUMPDEST SWAP2 SWAP1 PUSH1 0x40 DUP4 DUP3 SUB SLT PUSH2 0x180 JUMPI DUP3 CALLDATALOAD SWAP1 PUSH1 0x1 PUSH1 0x1 PUSH1 0x40 SHL SUB DUP3 GT PUSH2 0x180 JUMPI PUSH2 0x415 DUP2 PUSH2 0x1A8 SWAP4 DUP7 ADD PUSH2 0x546 JUMP JUMPDEST CALLVALUE PUSH2 0x180 JUMPI PUSH2 0x3F7 PUSH2 0x4B0 PUSH2 0x5F6 CALLDATASIZE PUSH1 0x4 PUSH2 0x5B4 JUMP JUMPDEST SWAP1 PUSH2 0x1E6E JUMP JUMPDEST PUSH1 0x1 PUSH1 0x1 PUSH1 0xA0 SHL SUB AND SWAP1 JUMP JUMPDEST PUSH1 0x1 PUSH1 0x1 PUSH1 0xA0 SHL SUB DUP2 AND PUSH2 0x179 JUMP JUMPDEST SWAP1 POP CALLDATALOAD SWAP1 PUSH2 0x192 DUP3 PUSH2 0x608 JUMP JUMPDEST SWAP2 SWAP1 SWAP2 PUSH1 0x80 DUP2 DUP5 SUB SLT PUSH2 0x180 JUMPI PUSH2 0x63B PUSH1 0x80 PUSH2 0x4C0 JUMP JUMPDEST SWAP3 DUP2 CALLDATALOAD PUSH1 0x1 PUSH1 0x1 PUSH1 0x40 SHL SUB DUP2 GT PUSH2 0x180 JUMPI DUP2 PUSH2 0x658 SWAP2 DUP5 ADD PUSH2 0x52B JUMP JUMPDEST DUP5 MSTORE PUSH1 0x20 DUP3 ADD CALLDATALOAD PUSH1 0x1 PUSH1 0x1 PUSH1 0x40 SHL SUB DUP2 GT PUSH2 0x180 JUMPI DUP2 PUSH2 0x679 SWAP2 DUP5 ADD PUSH2 0x52B JUMP JUMPDEST PUSH1 0x20 DUP6 ADD MSTORE PUSH1 0x40 DUP3 ADD CALLDATALOAD SWAP1 PUSH1 0x1 PUSH1 0x1 PUSH1 0x40 SHL SUB DUP3 GT PUSH2 0x180 JUMPI PUSH2 0x6A1 DUP2 PUSH2 0x5AE SWAP4 DUP6 ADD PUSH2 0x52B JUMP JUMPDEST PUSH1 0x40 DUP7 ADD MSTORE PUSH1 0x60 DUP1 SWAP4 ADD PUSH2 0x617 JUMP JUMPDEST SWAP1 PUSH1 0x20 DUP3 DUP3 SUB SLT PUSH2 0x180 JUMPI DUP2 CALLDATALOAD PUSH1 0x1 PUSH1 0x1 PUSH1 0x40 SHL SUB DUP2 GT PUSH2 0x180 JUMPI PUSH2 0x1A8 SWAP3 ADD PUSH2 0x624 JUMP JUMPDEST CALLVALUE PUSH2 0x180 JUMPI PUSH2 0x3F7 PUSH2 0x4B0 PUSH2 0x6EB CALLDATASIZE PUSH1 0x4 PUSH2 0x6B0 JUMP JUMPDEST PUSH2 0x1A13 JUMP JUMPDEST PUSH1 0x0 SWAP2 SUB SLT PUSH2 0x180 JUMPI JUMP JUMPDEST PUSH2 0x1A8 SWAP1 PUSH2 0x5FC SWAP1 PUSH1 0x1 PUSH1 0x1 PUSH1 0xA0 SHL SUB AND DUP3 JUMP JUMPDEST PUSH2 0x1A8 SWAP1 PUSH2 0x6FB JUMP JUMPDEST PUSH2 0x1A8 SWAP1 PUSH2 0x70F JUMP JUMPDEST PUSH2 0x394 SWAP1 PUSH2 0x718 JUMP JUMPDEST PUSH1 0x20 DUP2 ADD SWAP3 SWAP2 PUSH2 0x192 SWAP2 SWAP1 PUSH2 0x721 JUMP JUMPDEST CALLVALUE PUSH2 0x180 JUMPI PUSH2 0x74A CALLDATASIZE PUSH1 0x4 PUSH2 0x6F0 JUMP JUMPDEST PUSH2 0x3F7 PUSH32 0x0 JUMPDEST PUSH1 0x40 MLOAD SWAP2 DUP3 SWAP2 DUP3 PUSH2 0x72A JUMP JUMPDEST SWAP1 SWAP2 DUP3 PUSH1 0x1F DUP4 ADD SLT ISZERO PUSH2 0x180 JUMPI DUP2 CALLDATALOAD SWAP2 PUSH1 0x1 PUSH1 0x1 PUSH1 0x40 SHL SUB DUP4 GT PUSH2 0x180 JUMPI PUSH1 0x20 ADD SWAP3 PUSH1 0x1 DUP4 MUL DUP5 ADD GT PUSH2 0x180 JUMPI JUMP JUMPDEST SWAP2 SWAP1 PUSH1 0xC0 DUP4 DUP3 SUB SLT PUSH2 0x180 JUMPI PUSH2 0x7C0 DUP2 DUP5 PUSH2 0x185 JUMP JUMPDEST SWAP3 PUSH1 0x20 DUP2 ADD CALLDATALOAD PUSH1 0x1 PUSH1 0x1 PUSH1 0x40 SHL SUB DUP2 GT PUSH2 0x180 JUMPI DUP3 PUSH2 0x7E0 SWAP2 DUP4 ADD PUSH2 0x77B JUMP JUMPDEST SWAP3 SWAP1 SWAP4 PUSH1 0x40 DUP4 ADD CALLDATALOAD PUSH1 0x1 PUSH1 0x1 PUSH1 0x40 SHL SUB DUP2 GT PUSH2 0x180 JUMPI DUP3 PUSH2 0x802 SWAP2 DUP6 ADD PUSH2 0x77B JUMP JUMPDEST SWAP3 SWAP1 SWAP4 PUSH1 0x60 DUP2 ADD CALLDATALOAD PUSH1 0x1 PUSH1 0x1 PUSH1 0x40 SHL SUB DUP2 GT PUSH2 0x180 JUMPI DUP3 PUSH2 0x824 SWAP2 DUP4 ADD PUSH2 0x77B JUMP JUMPDEST SWAP3 SWAP1 SWAP4 PUSH1 0x80 DUP4 ADD CALLDATALOAD PUSH1 0x1 PUSH1 0x1 PUSH1 0x40 SHL SUB DUP2 GT PUSH2 0x180 JUMPI PUSH2 0x849 DUP4 PUSH2 0x1A8 SWAP3 DUP7 ADD PUSH2 0x77B JUMP JUMPDEST SWAP4 SWAP1 SWAP5 PUSH1 0xA0 ADD PUSH2 0x185 JUMP JUMPDEST CALLVALUE PUSH2 0x180 JUMPI PUSH2 0x879 PUSH2 0x867 CALLDATASIZE PUSH1 0x4 PUSH2 0x7AA JUMP JUMPDEST SWAP9 SWAP8 SWAP1 SWAP8 SWAP7 SWAP2 SWAP7 SWAP6 SWAP3 SWAP6 SWAP5 SWAP4 SWAP5 PUSH2 0x121A JUMP JUMPDEST PUSH1 0x40 MLOAD STOP JUMPDEST SWAP1 PUSH2 0x1C2 JUMP JUMPDEST PUSH2 0x1A8 SWAP2 PUSH1 0x8 MUL SHR JUMPDEST PUSH1 0xFF AND SWAP1 JUMP JUMPDEST SWAP1 PUSH2 0x1A8 SWAP2 SLOAD PUSH2 0x884 JUMP JUMPDEST PUSH2 0x1A8 SWAP1 PUSH2 0x8B0 PUSH1 0x8 SWAP2 PUSH1 0x0 SWAP3 PUSH2 0x87E JUMP JUMPDEST PUSH2 0x893 JUMP JUMPDEST CALLVALUE PUSH2 0x180 JUMPI PUSH2 0x3F7 PUSH2 0x8D0 PUSH2 0x8CB CALLDATASIZE PUSH1 0x4 PUSH2 0x194 JUMP JUMPDEST PUSH2 0x89E JUMP JUMPDEST PUSH1 0x40 MLOAD SWAP2 DUP3 SWAP2 DUP3 SWAP1 ISZERO ISZERO DUP2 MSTORE PUSH1 0x20 ADD SWAP1 JUMP JUMPDEST CALLVALUE PUSH2 0x180 JUMPI PUSH2 0x3F7 PUSH2 0x8D0 PUSH2 0x8F8 CALLDATASIZE PUSH1 0x4 PUSH2 0x194 JUMP JUMPDEST PUSH2 0x22B0 JUMP JUMPDEST SWAP1 DUP2 PUSH1 0x80 SWAP2 SUB SLT PUSH2 0x180 JUMPI SWAP1 JUMP JUMPDEST SWAP1 PUSH1 0x60 DUP3 DUP3 SUB SLT PUSH2 0x180 JUMPI DUP2 CALLDATALOAD PUSH1 0x1 PUSH1 0x1 PUSH1 0x40 SHL SUB DUP2 GT PUSH2 0x180 JUMPI DUP2 PUSH2 0x932 SWAP2 DUP5 ADD PUSH2 0x77B JUMP JUMPDEST SWAP3 SWAP1 SWAP4 PUSH1 0x20 DUP3 ADD CALLDATALOAD PUSH1 0x1 PUSH1 0x1 PUSH1 0x40 SHL SUB DUP2 GT PUSH2 0x180 JUMPI DUP4 PUSH2 0x954 SWAP2 DUP5 ADD PUSH2 0x77B JUMP JUMPDEST SWAP3 SWAP1 SWAP4 PUSH1 0x40 DUP3 ADD CALLDATALOAD PUSH1 0x1 PUSH1 0x1 PUSH1 0x40 SHL SUB DUP2 GT PUSH2 0x180 JUMPI PUSH2 0x1A8 SWAP3 ADD PUSH2 0x8FD JUMP JUMPDEST PUSH2 0x879 PUSH2 0x982 CALLDATASIZE PUSH1 0x4 PUSH2 0x90B JUMP JUMPDEST SWAP4 SWAP3 SWAP1 SWAP3 PUSH2 0x1482 JUMP JUMPDEST PUSH2 0x1A8 SWAP2 PUSH1 0x8 MUL SHR PUSH2 0x5FC JUMP JUMPDEST SWAP1 PUSH2 0x1A8 SWAP2 SLOAD PUSH2 0x98B JUMP JUMPDEST PUSH2 0x1A8 PUSH1 0x0 PUSH1 0x9 PUSH2 0x998 JUMP JUMPDEST CALLVALUE PUSH2 0x180 JUMPI PUSH2 0x9BF CALLDATASIZE PUSH1 0x4 PUSH2 0x6F0 JUMP JUMPDEST PUSH2 0x3F7 PUSH2 0x76F PUSH2 0x9A3 JUMP JUMPDEST SWAP1 PUSH2 0x1A8 SWAP1 PUSH1 0x40 DUP1 PUSH2 0xA00 PUSH2 0x9EE PUSH1 0x60 DUP6 ADD PUSH1 0x0 DUP9 ADD MLOAD DUP7 DUP3 SUB PUSH1 0x0 DUP9 ADD MSTORE PUSH2 0x35C JUMP JUMPDEST PUSH1 0x20 DUP8 ADD MLOAD DUP6 DUP3 SUB PUSH1 0x20 DUP8 ADD MSTORE PUSH2 0x35C JUMP JUMPDEST SWAP5 ADD MLOAD SWAP2 ADD MSTORE JUMP JUMPDEST SWAP1 PUSH2 0x1A8 SWAP2 PUSH2 0x9CA JUMP JUMPDEST SWAP1 PUSH2 0xA28 PUSH2 0xA1E DUP4 MLOAD SWAP1 JUMP JUMPDEST DUP1 DUP4 MSTORE SWAP2 PUSH1 0x20 ADD SWAP1 JUMP JUMPDEST SWAP1 DUP2 PUSH2 0xA3A PUSH1 0x20 DUP4 MUL DUP5 ADD SWAP5 PUSH1 0x20 ADD SWAP1 JUMP JUMPDEST SWAP3 PUSH1 0x0 SWAP2 JUMPDEST DUP4 DUP4 LT PUSH2 0xA4E JUMPI POP POP POP POP POP SWAP1 JUMP JUMPDEST SWAP1 SWAP2 SWAP3 SWAP4 SWAP5 PUSH1 0x20 PUSH2 0xA71 PUSH2 0xA6A DUP4 DUP6 PUSH1 0x1 SWAP6 SUB DUP8 MSTORE DUP10 MLOAD PUSH2 0xA08 JUMP JUMPDEST SWAP8 PUSH1 0x20 ADD SWAP1 JUMP JUMPDEST SWAP4 ADD SWAP4 ADD SWAP2 SWAP4 SWAP3 SWAP1 PUSH2 0xA3F JUMP JUMPDEST PUSH1 0x20 DUP1 DUP3 MSTORE PUSH2 0x1A8 SWAP3 SWAP2 ADD SWAP1 PUSH2 0xA12 JUMP JUMPDEST CALLVALUE PUSH2 0x180 JUMPI PUSH2 0x3F7 PUSH2 0xAAA PUSH2 0xAA5 CALLDATASIZE PUSH1 0x4 PUSH2 0x194 JUMP JUMPDEST PUSH2 0x2450 JUMP JUMPDEST PUSH1 0x40 MLOAD SWAP2 DUP3 SWAP2 DUP3 PUSH2 0xA7E JUMP JUMPDEST PUSH2 0xAC6 PUSH2 0xAC2 PUSH1 0x2 SWAP4 SWAP1 JUMP JUMPDEST SWAP2 SWAP1 JUMP JUMPDEST PUSH1 0x0 SWAP2 JUMPDEST DUP4 DUP4 LT PUSH2 0xAD7 JUMPI POP POP POP POP JUMP JUMPDEST PUSH2 0xAF1 PUSH2 0xAEA PUSH1 0x1 SWAP3 DUP5 MLOAD DUP2 MSTORE PUSH1 0x20 ADD SWAP1 JUMP JUMPDEST SWAP3 PUSH1 0x20 ADD SWAP1 JUMP JUMPDEST SWAP3 ADD SWAP2 SWAP1 PUSH2 0xACA JUMP JUMPDEST PUSH1 0x40 DUP2 ADD SWAP3 SWAP2 PUSH2 0x192 SWAP2 SWAP1 PUSH2 0xAB6 JUMP JUMPDEST CALLVALUE PUSH2 0x180 JUMPI PUSH2 0x3F7 PUSH2 0xB25 PUSH2 0xB20 CALLDATASIZE PUSH1 0x4 PUSH2 0x194 JUMP JUMPDEST PUSH2 0x252D JUMP JUMPDEST PUSH1 0x40 MLOAD SWAP2 DUP3 SWAP2 DUP3 PUSH2 0xAFA JUMP JUMPDEST SWAP2 SWAP1 SWAP2 PUSH1 0x80 DUP2 DUP5 SUB SLT PUSH2 0x180 JUMPI PUSH2 0xB48 DUP4 DUP3 PUSH2 0x185 JUMP JUMPDEST SWAP3 PUSH1 0x20 DUP3 ADD CALLDATALOAD PUSH1 0x1 PUSH1 0x1 PUSH1 0x40 SHL SUB DUP2 GT PUSH2 0x180 JUMPI DUP2 PUSH2 0xB68 SWAP2 DUP5 ADD PUSH2 0x77B JUMP JUMPDEST SWAP3 SWAP1 SWAP4 PUSH1 0x40 DUP3 ADD CALLDATALOAD PUSH1 0x1 PUSH1 0x1 PUSH1 0x40 SHL SUB DUP2 GT PUSH2 0x180 JUMPI DUP4 PUSH2 0xB8A SWAP2 DUP5 ADD PUSH2 0x77B JUMP JUMPDEST SWAP3 SWAP1 SWAP4 PUSH1 0x60 DUP3 ADD CALLDATALOAD PUSH1 0x1 PUSH1 0x1 PUSH1 0x40 SHL SUB DUP2 GT PUSH2 0x180 JUMPI PUSH2 0xBAA SWAP3 ADD PUSH2 0x77B JUMP JUMPDEST SWAP1 SWAP2 JUMP JUMPDEST CALLVALUE PUSH2 0x180 JUMPI PUSH2 0x879 PUSH2 0xBC1 CALLDATASIZE PUSH1 0x4 PUSH2 0xB31 JUMP JUMPDEST SWAP6 SWAP5 SWAP1 SWAP5 SWAP4 SWAP2 SWAP4 PUSH2 0x10D0 JUMP JUMPDEST SWAP2 SWAP1 SWAP2 PUSH1 0x80 DUP2 DUP5 SUB SLT PUSH2 0x180 JUMPI DUP1 CALLDATALOAD PUSH1 0x1 PUSH1 0x1 PUSH1 0x40 SHL SUB DUP2 GT PUSH2 0x180 JUMPI DUP4 PUSH2 0xBF6 SWAP2 DUP4 ADD PUSH2 0x77B JUMP JUMPDEST SWAP3 SWAP1 SWAP4 PUSH1 0x20 DUP4 ADD CALLDATALOAD PUSH1 0x1 PUSH1 0x1 PUSH1 0x40 SHL SUB DUP2 GT PUSH2 0x180 JUMPI DUP2 PUSH2 0xC18 SWAP2 DUP6 ADD PUSH2 0x77B JUMP JUMPDEST SWAP3 SWAP1 SWAP4 PUSH2 0xC28 DUP4 PUSH1 0x40 DUP4 ADD PUSH2 0x185 JUMP JUMPDEST SWAP3 PUSH1 0x60 DUP3 ADD CALLDATALOAD PUSH1 0x1 PUSH1 0x1 PUSH1 0x40 SHL SUB DUP2 GT PUSH2 0x180 JUMPI PUSH2 0x1A8 SWAP3 ADD PUSH2 0x8FD JUMP JUMPDEST PUSH2 0x879 PUSH2 0xC54 CALLDATASIZE PUSH1 0x4 PUSH2 0xBCD JUMP JUMPDEST SWAP5 SWAP4 SWAP1 SWAP4 SWAP3 SWAP2 SWAP3 PUSH2 0x1717 JUMP JUMPDEST CALLVALUE PUSH2 0x180 JUMPI PUSH2 0xC70 CALLDATASIZE PUSH1 0x4 PUSH2 0x6F0 JUMP JUMPDEST PUSH2 0x3F7 PUSH32 0x0 PUSH2 0x76F JUMP JUMPDEST DUP1 SLOAD DUP3 LT ISZERO PUSH2 0x44A JUMPI PUSH2 0x441 PUSH1 0x1 SWAP2 PUSH1 0x0 MSTORE PUSH1 0x20 PUSH1 0x0 KECCAK256 SWAP1 JUMP JUMPDEST PUSH2 0xCC1 PUSH1 0x5 SWAP2 PUSH1 0x0 SWAP3 PUSH2 0x1B8 JUMP JUMPDEST SWAP1 PUSH2 0xCCA DUP3 SLOAD SWAP1 JUMP JUMPDEST DUP4 LT ISZERO PUSH2 0x491 JUMPI POP PUSH2 0x1A8 SWAP2 PUSH2 0x48B SWAP2 PUSH2 0xC99 JUMP JUMPDEST CALLVALUE PUSH2 0x180 JUMPI PUSH2 0x3F7 PUSH2 0x4B0 PUSH2 0xCF5 CALLDATASIZE PUSH1 0x4 PUSH2 0x3FB JUMP JUMPDEST SWAP1 PUSH2 0xCB3 JUMP JUMPDEST SWAP1 PUSH2 0x1A8 SWAP1 PUSH1 0x60 DUP1 PUSH2 0xD46 PUSH2 0xD34 PUSH2 0xD22 PUSH1 0x80 DUP7 ADD PUSH1 0x0 DUP10 ADD MLOAD DUP8 DUP3 SUB PUSH1 0x0 DUP10 ADD MSTORE PUSH2 0x35C JUMP JUMPDEST PUSH1 0x20 DUP9 ADD MLOAD DUP7 DUP3 SUB PUSH1 0x20 DUP9 ADD MSTORE PUSH2 0x35C JUMP JUMPDEST PUSH1 0x40 DUP8 ADD MLOAD DUP6 DUP3 SUB PUSH1 0x40 DUP8 ADD MSTORE PUSH2 0x35C JUMP JUMPDEST SWAP5 ADD MLOAD PUSH1 0x1 PUSH1 0x1 PUSH1 0xA0 SHL SUB AND SWAP2 ADD MSTORE JUMP JUMPDEST SWAP1 PUSH2 0x1A8 SWAP2 PUSH2 0xCFB JUMP JUMPDEST SWAP1 PUSH2 0xD6D PUSH2 0xA1E DUP4 MLOAD SWAP1 JUMP JUMPDEST SWAP1 DUP2 PUSH2 0xD7F PUSH1 0x20 DUP4 MUL DUP5 ADD SWAP5 PUSH1 0x20 ADD SWAP1 JUMP JUMPDEST SWAP3 PUSH1 0x0 SWAP2 JUMPDEST DUP4 DUP4 LT PUSH2 0xD93 JUMPI POP POP POP POP POP SWAP1 JUMP JUMPDEST SWAP1 SWAP2 SWAP3 SWAP4 SWAP5 PUSH1 0x20 PUSH2 0xDAF PUSH2 0xA6A DUP4 DUP6 PUSH1 0x1 SWAP6 SUB DUP8 MSTORE DUP10 MLOAD PUSH2 0xD57 JUMP JUMPDEST SWAP4 ADD SWAP4 ADD SWAP2 SWAP4 SWAP3 SWAP1 PUSH2 0xD84 JUMP JUMPDEST PUSH1 0x20 DUP1 DUP3 MSTORE PUSH2 0x1A8 SWAP3 SWAP2 ADD SWAP1 PUSH2 0xD61 JUMP JUMPDEST CALLVALUE PUSH2 0x180 JUMPI PUSH2 0xDDD CALLDATASIZE PUSH1 0x4 PUSH2 0x6F0 JUMP JUMPDEST PUSH2 0x3F7 PUSH2 0xDE8 PUSH2 0x1E47 JUMP JUMPDEST PUSH1 0x40 MLOAD SWAP2 DUP3 SWAP2 DUP3 PUSH2 0xDBC JUMP JUMPDEST SWAP1 PUSH1 0x20 DUP3 DUP3 SUB SLT PUSH2 0x180 JUMPI PUSH2 0x1A8 SWAP2 PUSH2 0x617 JUMP JUMPDEST SWAP1 PUSH2 0x1C2 SWAP1 PUSH2 0x718 JUMP JUMPDEST PUSH2 0x1A8 SWAP1 PUSH2 0xE24 PUSH1 0x7 SWAP2 PUSH1 0x0 SWAP3 PUSH2 0xE08 JUMP JUMPDEST PUSH2 0x45A JUMP JUMPDEST CALLVALUE PUSH2 0x180 JUMPI PUSH2 0x3F7 PUSH2 0x4B0 PUSH2 0xE3F CALLDATASIZE PUSH1 0x4 PUSH2 0xDF4 JUMP JUMPDEST PUSH2 0xE12 JUMP JUMPDEST PUSH2 0x1A8 SWAP1 PUSH2 0xE24 PUSH1 0x6 SWAP2 PUSH1 0x0 SWAP3 PUSH2 0xE08 JUMP JUMPDEST CALLVALUE PUSH2 0x180 JUMPI PUSH2 0x3F7 PUSH2 0x4B0 PUSH2 0xE6C CALLDATASIZE PUSH1 0x4 PUSH2 0xDF4 JUMP JUMPDEST PUSH2 0xE44 JUMP JUMPDEST PUSH2 0x1A8 SWAP1 PUSH2 0x5FC JUMP JUMPDEST PUSH2 0x1A8 SWAP1 SLOAD PUSH2 0xE71 JUMP JUMPDEST PUSH2 0xE8F SWAP1 PUSH1 0x2 PUSH2 0x1B8 JUMP JUMPDEST SWAP1 PUSH2 0xE99 DUP3 PUSH2 0x2DA JUMP JUMPDEST SWAP2 PUSH2 0xEA6 PUSH1 0x1 DUP3 ADD PUSH2 0x2DA JUMP JUMPDEST SWAP2 PUSH2 0x1A8 PUSH1 0x3 PUSH2 0xEB8 PUSH1 0x2 DUP6 ADD PUSH2 0x2DA JUMP JUMPDEST SWAP4 ADD PUSH2 0xE7A JUMP JUMPDEST SWAP5 SWAP4 SWAP2 PUSH2 0x192 SWAP4 PUSH2 0xEF3 PUSH2 0xF01 SWAP3 PUSH2 0xEE5 PUSH1 0x60 SWAP6 PUSH1 0x80 DUP12 ADD SWAP1 DUP12 DUP3 SUB PUSH1 0x0 DUP14 ADD MSTORE PUSH2 0x35C JUMP JUMPDEST SWAP1 DUP10 DUP3 SUB PUSH1 0x20 DUP12 ADD MSTORE PUSH2 0x35C JUMP JUMPDEST SWAP1 DUP8 DUP3 SUB PUSH1 0x40 DUP10 ADD MSTORE PUSH2 0x35C JUMP JUMPDEST SWAP5 ADD SWAP1 PUSH1 0x1 PUSH1 0x1 PUSH1 0xA0 SHL SUB AND SWAP1 MSTORE JUMP JUMPDEST CALLVALUE PUSH2 0x180 JUMPI PUSH2 0x3F7 PUSH2 0xF2C PUSH2 0xF27 CALLDATASIZE PUSH1 0x4 PUSH2 0x194 JUMP JUMPDEST PUSH2 0xE84 JUMP JUMPDEST SWAP1 PUSH2 0xF39 SWAP5 SWAP3 SWAP5 PUSH1 0x40 MLOAD SWAP1 JUMP JUMPDEST SWAP5 DUP6 SWAP5 DUP6 PUSH2 0xEBF JUMP JUMPDEST DUP1 SLOAD DUP3 LT ISZERO PUSH2 0x44A JUMPI PUSH2 0x441 PUSH1 0x4 SWAP2 PUSH1 0x0 MSTORE PUSH1 0x20 PUSH1 0x0 KECCAK256 SWAP1 JUMP JUMPDEST SWAP1 PUSH1 0x1 SWAP2 PUSH1 0x0 SWAP3 PUSH2 0xF6B DUP2 SLOAD SWAP1 JUMP JUMPDEST DUP3 LT ISZERO PUSH2 0xF88 JUMPI PUSH2 0xF7D SWAP3 SWAP4 POP PUSH2 0xF42 JUMP JUMPDEST POP SWAP1 PUSH2 0xE99 DUP3 PUSH2 0x2DA JUMP JUMPDEST DUP4 DUP1 REVERT JUMPDEST CALLVALUE PUSH2 0x180 JUMPI PUSH2 0x3F7 PUSH2 0xF2C PUSH2 0xFA2 CALLDATASIZE PUSH1 0x4 PUSH2 0x194 JUMP JUMPDEST PUSH2 0xF5C JUMP JUMPDEST SWAP1 SWAP2 PUSH1 0xA0 DUP3 DUP5 SUB SLT PUSH2 0x180 JUMPI DUP2 CALLDATALOAD PUSH1 0x1 PUSH1 0x1 PUSH1 0x40 SHL SUB DUP2 GT PUSH2 0x180 JUMPI DUP4 PUSH2 0xFCF SWAP2 DUP5 ADD PUSH2 0x77B JUMP JUMPDEST SWAP3 SWAP1 SWAP4 PUSH1 0x20 DUP3 ADD CALLDATALOAD PUSH1 0x1 PUSH1 0x1 PUSH1 0x40 SHL SUB DUP2 GT PUSH2 0x180 JUMPI DUP2 PUSH2 0xFF1 SWAP2 DUP5 ADD PUSH2 0x77B JUMP JUMPDEST SWAP3 SWAP1 SWAP4 PUSH2 0x1A8 PUSH2 0x1004 DUP5 PUSH1 0x40 DUP6 ADD PUSH2 0x185 JUMP JUMPDEST SWAP4 PUSH2 0x1012 DUP2 PUSH1 0x60 DUP7 ADD PUSH2 0x185 JUMP JUMPDEST SWAP4 PUSH1 0x80 ADD PUSH2 0x185 JUMP JUMPDEST PUSH2 0x879 PUSH2 0x1029 CALLDATASIZE PUSH1 0x4 PUSH2 0xFA7 JUMP JUMPDEST SWAP6 SWAP5 SWAP1 SWAP5 SWAP4 SWAP2 SWAP4 PUSH2 0x177E JUMP JUMPDEST PUSH2 0x1A8 SWAP2 CALLDATASIZE SWAP2 PUSH2 0x4FC JUMP JUMPDEST DUP1 ISZERO ISZERO PUSH2 0x179 JUMP JUMPDEST SWAP1 POP MLOAD SWAP1 PUSH2 0x192 DUP3 PUSH2 0x1040 JUMP JUMPDEST SWAP1 PUSH1 0x20 DUP3 DUP3 SUB SLT PUSH2 0x180 JUMPI PUSH2 0x1A8 SWAP2 PUSH2 0x1048 JUMP JUMPDEST SWAP2 SWAP1 PUSH2 0x386 DUP2 PUSH2 0x1080 DUP2 PUSH2 0x390 SWAP6 PUSH1 0x20 SWAP2 DUP2 MSTORE ADD SWAP1 JUMP JUMPDEST DUP1 SWAP6 PUSH2 0x4F0 JUMP JUMPDEST SWAP7 SWAP6 SWAP4 SWAP1 SWAP5 PUSH2 0x10B6 DUP9 PUSH1 0x60 SWAP6 PUSH2 0x3C8 SWAP6 PUSH2 0x10A9 PUSH2 0x192 SWAP11 PUSH1 0x0 PUSH1 0x80 DUP7 ADD SWAP6 ADD MSTORE JUMP JUMPDEST DUP12 DUP4 SUB PUSH1 0x20 DUP14 ADD MSTORE PUSH2 0x1069 JUMP JUMPDEST SWAP2 DUP9 DUP4 SUB PUSH1 0x40 DUP11 ADD MSTORE PUSH2 0x1069 JUMP JUMPDEST PUSH1 0x40 MLOAD RETURNDATASIZE PUSH1 0x0 DUP3 RETURNDATACOPY RETURNDATASIZE SWAP1 REVERT JUMPDEST SWAP1 PUSH1 0x20 DUP2 SWAP8 SWAP7 SWAP6 SWAP5 SWAP4 SWAP3 PUSH2 0x10E4 DUP9 DUP9 PUSH2 0x1035 JUMP JUMPDEST PUSH2 0x10F6 PUSH2 0x10EF DUP3 MLOAD SWAP1 JUMP JUMPDEST SWAP2 PUSH1 0x20 ADD SWAP1 JUMP JUMPDEST KECCAK256 PUSH2 0x1148 PUSH1 0x0 PUSH2 0x1125 PUSH32 0x0 PUSH2 0x718 JUMP JUMPDEST SWAP3 PUSH2 0x1153 PUSH4 0x5F6970C3 SWAP2 DUP12 DUP12 DUP12 PUSH2 0x113B PUSH1 0x40 MLOAD SWAP1 JUMP JUMPDEST SWAP12 DUP13 SWAP11 DUP12 SWAP10 DUP11 SWAP9 PUSH1 0xE0 SHL SWAP1 JUMP JUMPDEST DUP9 MSTORE PUSH1 0x4 DUP9 ADD PUSH2 0x1087 JUMP JUMPDEST SUB SWAP3 GAS CALL DUP1 ISZERO PUSH2 0x11B8 JUMPI PUSH2 0x116D SWAP2 PUSH1 0x0 SWAP2 PUSH2 0x118C JUMPI POP ISZERO SWAP1 JUMP JUMPDEST PUSH2 0x117A JUMPI PUSH2 0x192 SWAP6 PUSH2 0x1968 JUMP JUMPDEST PUSH1 0x40 MLOAD PUSH4 0x1403112D PUSH1 0xE2 SHL DUP2 MSTORE PUSH1 0x4 SWAP1 REVERT JUMPDEST PUSH2 0x11AD SWAP2 POP PUSH1 0x20 RETURNDATASIZE DUP2 GT PUSH2 0x11B1 JUMPI JUMPDEST PUSH2 0x11A5 DUP2 DUP4 PUSH2 0x2B4 JUMP JUMPDEST DUP2 ADD SWAP1 PUSH2 0x1055 JUMP JUMPDEST ISZERO SWAP1 JUMP JUMPDEST POP RETURNDATASIZE PUSH2 0x119B JUMP JUMPDEST PUSH2 0x10C4 JUMP JUMPDEST SWAP10 SWAP9 SWAP7 SWAP2 PUSH1 0xA0 SWAP7 SWAP5 PUSH2 0x3C8 SWAP7 PUSH2 0x11F7 PUSH2 0x120D SWAP5 PUSH2 0x192 SWAP13 SWAP8 DUP16 SWAP6 PUSH2 0x1205 SWAP7 PUSH2 0x11EA PUSH1 0xC0 DUP3 ADD SWAP5 PUSH1 0x0 DUP4 ADD MSTORE JUMP JUMPDEST PUSH1 0x20 DUP2 DUP6 SUB SWAP2 ADD MSTORE PUSH2 0x1069 JUMP JUMPDEST DUP14 DUP2 SUB PUSH1 0x40 DUP16 ADD MSTORE SWAP2 PUSH2 0x1069 JUMP JUMPDEST SWAP4 PUSH1 0x60 DUP12 ADD MSTORE JUMP JUMPDEST DUP9 DUP4 SUB PUSH1 0x80 DUP11 ADD MSTORE PUSH2 0x1069 JUMP JUMPDEST SWAP7 SWAP8 PUSH1 0x20 SWAP9 PUSH1 0x0 SWAP6 PUSH2 0x1237 PUSH2 0x1295 SWAP6 SWAP7 SWAP10 PUSH2 0x128A SWAP10 SWAP14 SWAP6 SWAP14 PUSH2 0x1035 JUMP JUMPDEST PUSH2 0x1242 PUSH2 0x10EF DUP3 MLOAD SWAP1 JUMP JUMPDEST KECCAK256 SWAP1 PUSH2 0x126D PUSH32 0x0 PUSH2 0x718 JUMP JUMPDEST SWAP10 PUSH4 0x1876EED9 SWAP8 PUSH2 0x127D PUSH1 0x40 MLOAD SWAP1 JUMP JUMPDEST SWAP15 DUP16 SWAP14 DUP15 SWAP13 DUP14 SWAP12 PUSH1 0xE0 SHL SWAP1 JUMP JUMPDEST DUP12 MSTORE PUSH1 0x4 DUP12 ADD PUSH2 0x11BD JUMP JUMPDEST SUB SWAP3 GAS CALL DUP1 ISZERO PUSH2 0x11B8 JUMPI PUSH2 0x12AF SWAP2 PUSH1 0x0 SWAP2 PUSH2 0x118C JUMPI POP ISZERO SWAP1 JUMP JUMPDEST PUSH2 0x117A JUMPI JUMP JUMPDEST ISZERO PUSH2 0x12BC JUMPI JUMP JUMPDEST PUSH1 0x40 MLOAD PUSH3 0x461BCD PUSH1 0xE5 SHL DUP2 MSTORE PUSH1 0x20 PUSH1 0x4 DUP3 ADD MSTORE PUSH1 0x7 PUSH1 0x24 DUP3 ADD MSTORE PUSH7 0x50617920676173 PUSH1 0xC8 SHL PUSH1 0x44 DUP3 ADD MSTORE PUSH1 0x64 SWAP1 REVERT JUMPDEST PUSH2 0x1A8 SWAP1 CALLDATASIZE SWAP1 PUSH2 0x624 JUMP JUMPDEST PUSH2 0x88D PUSH2 0x1A8 PUSH2 0x1A8 SWAP3 SWAP1 JUMP JUMPDEST PUSH2 0x394 SWAP1 PUSH2 0x12F6 JUMP JUMPDEST SWAP1 CALLDATALOAD PUSH1 0x1E NOT CALLDATASIZE DUP4 SWAP1 SUB ADD DUP2 SLT ISZERO PUSH2 0x180 JUMPI ADD PUSH1 0x20 DUP2 CALLDATALOAD SWAP2 ADD SWAP2 PUSH1 0x1 PUSH1 0x1 PUSH1 0x40 SHL SUB DUP3 GT PUSH2 0x180 JUMPI CALLDATASIZE DUP3 SWAP1 SUB DUP4 SGT PUSH2 0x180 JUMPI JUMP JUMPDEST POP PUSH2 0x1A8 SWAP1 PUSH1 0x20 DUP2 ADD SWAP1 PUSH2 0x617 JUMP JUMPDEST SWAP1 PUSH2 0x1A8 SWAP1 PUSH1 0x60 PUSH2 0x13BA PUSH2 0x13B0 PUSH2 0x1395 PUSH2 0x137A PUSH1 0x80 DUP7 ADD PUSH2 0x136F DUP10 DUP1 PUSH2 0x130C JUMP JUMPDEST DUP9 DUP4 SUB DUP10 MSTORE SWAP1 PUSH2 0x1069 JUMP JUMPDEST PUSH2 0x1387 PUSH1 0x20 DUP10 ADD DUP10 PUSH2 0x130C JUMP JUMPDEST SWAP1 DUP8 DUP4 SUB PUSH1 0x20 DUP10 ADD MSTORE PUSH2 0x1069 JUMP JUMPDEST PUSH2 0x13A2 PUSH1 0x40 DUP9 ADD DUP9 PUSH2 0x130C JUMP JUMPDEST SWAP1 DUP7 DUP4 SUB PUSH1 0x40 DUP9 ADD MSTORE PUSH2 0x1069 JUMP JUMPDEST SWAP5 DUP3 DUP2 ADD SWAP1 PUSH2 0x133F JUMP JUMPDEST PUSH1 0x1 PUSH1 0x1 PUSH1 0xA0 SHL SUB AND SWAP2 ADD MSTORE JUMP JUMPDEST SWAP2 PUSH2 0x1A8 SWAP3 PUSH2 0x13DF PUSH1 0x40 DUP3 ADD SWAP4 PUSH1 0x0 DUP4 ADD SWAP1 PUSH2 0x1303 JUMP JUMPDEST PUSH1 0x20 DUP2 DUP5 SUB SWAP2 ADD MSTORE PUSH2 0x134E JUMP JUMPDEST SWAP8 SWAP7 SWAP5 SWAP4 PUSH1 0x80 SWAP5 PUSH2 0x142A DUP11 PUSH2 0xF01 SWAP7 PUSH2 0x192 SWAP11 SWAP7 PUSH2 0x141D PUSH2 0x1438 SWAP8 PUSH1 0x0 PUSH1 0xA0 DUP7 ADD SWAP6 ADD SWAP1 PUSH1 0x1 PUSH1 0x1 PUSH1 0xA0 SHL SUB AND SWAP1 MSTORE JUMP JUMPDEST DUP14 DUP4 SUB PUSH1 0x20 DUP16 ADD MSTORE PUSH2 0x1069 JUMP JUMPDEST SWAP2 DUP11 DUP4 SUB PUSH1 0x40 DUP13 ADD MSTORE PUSH2 0x1069 JUMP JUMPDEST SWAP1 DUP8 DUP3 SUB PUSH1 0x60 DUP10 ADD MSTORE PUSH2 0x35C JUMP JUMPDEST SWAP4 PUSH2 0x1466 PUSH2 0x1A8 SWAP7 SWAP5 SWAP3 PUSH2 0x1474 SWAP5 PUSH1 0x60 DUP9 ADD SWAP2 DUP9 DUP4 SUB PUSH1 0x0 DUP11 ADD MSTORE PUSH2 0x1069 JUMP JUMPDEST SWAP2 DUP6 DUP4 SUB PUSH1 0x20 DUP8 ADD MSTORE PUSH2 0x1069 JUMP JUMPDEST SWAP2 PUSH1 0x40 DUP2 DUP5 SUB SWAP2 ADD MSTORE PUSH2 0x35C JUMP JUMPDEST SWAP1 SWAP3 PUSH2 0x14CC CALLVALUE PUSH2 0x14D8 PUSH1 0x0 SWAP8 PUSH2 0x14A2 PUSH2 0x149A DUP11 PUSH2 0x1AB JUMP JUMPDEST DUP5 JUMPDEST GT PUSH2 0x12B5 JUMP JUMPDEST PUSH2 0x14B3 PUSH2 0x14AE DUP3 PUSH2 0x12EB JUMP JUMPDEST PUSH2 0x1D1D JUMP JUMPDEST PUSH1 0x1 PUSH2 0x14BE PUSH1 0x40 MLOAD SWAP1 JUMP JUMPDEST SWAP5 DUP6 SWAP3 PUSH1 0x20 DUP5 ADD SWAP3 DUP4 PUSH2 0x13C8 JUMP JUMPDEST SWAP1 DUP2 SUB DUP3 MSTORE SUB DUP4 PUSH2 0x2B4 JUMP JUMPDEST PUSH2 0x1501 PUSH32 0x0 PUSH2 0x718 JUMP JUMPDEST PUSH4 0xC93E3BB SWAP1 PUSH2 0x1510 ADDRESS PUSH2 0x718 JUMP JUMPDEST SWAP1 CALLER DUP2 EXTCODESIZE ISZERO PUSH2 0x180 JUMPI DUP8 SWAP5 DUP12 SWAP5 PUSH2 0x154A PUSH2 0x153F SWAP4 DUP10 DUP12 DUP16 DUP16 SWAP1 PUSH2 0x1532 PUSH1 0x40 MLOAD SWAP1 JUMP JUMPDEST SWAP13 DUP14 SWAP12 DUP13 SWAP11 DUP12 SWAP10 PUSH1 0xE0 SHL SWAP1 JUMP JUMPDEST DUP10 MSTORE PUSH1 0x4 DUP10 ADD PUSH2 0x13EC JUMP JUMPDEST SUB SWAP3 GAS CALL DUP1 ISZERO PUSH2 0x11B8 JUMPI PUSH2 0x15F5 JUMPI JUMPDEST POP PUSH2 0x1583 PUSH32 0x0 PUSH2 0x718 JUMP JUMPDEST SWAP2 PUSH4 0x1C92115F DUP4 EXTCODESIZE ISZERO PUSH2 0x180 JUMPI PUSH2 0x15BD PUSH2 0x15B2 SWAP4 DUP10 SWAP8 SWAP4 DUP9 SWAP5 PUSH2 0x15A5 PUSH1 0x40 MLOAD SWAP1 JUMP JUMPDEST SWAP11 DUP12 SWAP10 DUP11 SWAP9 DUP10 SWAP8 PUSH1 0xE0 SHL SWAP1 JUMP JUMPDEST DUP8 MSTORE PUSH1 0x4 DUP8 ADD PUSH2 0x1446 JUMP JUMPDEST SUB SWAP3 GAS CALL DUP1 ISZERO PUSH2 0x11B8 JUMPI PUSH2 0x15CF JUMPI POP POP JUMP JUMPDEST DUP2 PUSH2 0x192 SWAP3 SWAP1 RETURNDATASIZE LT PUSH2 0x15EE JUMPI JUMPDEST PUSH2 0x15E6 DUP2 DUP4 PUSH2 0x2B4 JUMP JUMPDEST DUP2 ADD SWAP1 PUSH2 0x6F0 JUMP JUMPDEST POP RETURNDATASIZE PUSH2 0x15DC JUMP JUMPDEST PUSH2 0x160B SWAP1 DUP8 RETURNDATASIZE DUP10 GT PUSH2 0x15EE JUMPI PUSH2 0x15E6 DUP2 DUP4 PUSH2 0x2B4 JUMP JUMPDEST CODESIZE PUSH2 0x1559 JUMP JUMPDEST SWAP1 CALLDATALOAD PUSH1 0x1E NOT CALLDATASIZE DUP4 SWAP1 SUB ADD DUP2 SLT ISZERO PUSH2 0x180 JUMPI ADD PUSH1 0x20 DUP2 CALLDATALOAD SWAP2 ADD SWAP2 PUSH1 0x1 PUSH1 0x1 PUSH1 0x40 SHL SUB DUP3 GT PUSH2 0x180 JUMPI PUSH1 0x20 DUP3 MUL CALLDATASIZE SUB DUP4 SGT PUSH2 0x180 JUMPI JUMP JUMPDEST SWAP1 CALLDATACOPY JUMP JUMPDEST DUP2 DUP4 MSTORE SWAP1 SWAP2 PUSH1 0x20 ADD SWAP2 PUSH1 0x1 PUSH1 0x1 PUSH1 0xFB SHL SUB DUP2 GT PUSH2 0x180 JUMPI DUP3 SWAP2 PUSH1 0x20 PUSH2 0x390 SWAP3 MUL SWAP4 DUP5 SWAP2 PUSH2 0x1646 JUMP JUMPDEST POP PUSH2 0x1A8 SWAP1 PUSH1 0x20 DUP2 ADD SWAP1 PUSH2 0x185 JUMP JUMPDEST SWAP1 PUSH2 0x1A8 SWAP1 PUSH1 0x60 PUSH2 0x16E6 PUSH2 0x16C5 PUSH2 0x16AA PUSH1 0x80 DUP6 ADD PUSH2 0x169F DUP9 DUP1 PUSH2 0x130C JUMP JUMPDEST DUP8 DUP4 SUB DUP9 MSTORE SWAP1 PUSH2 0x1069 JUMP JUMPDEST PUSH2 0x16B7 PUSH1 0x20 DUP9 ADD DUP9 PUSH2 0x1611 JUMP JUMPDEST SWAP1 DUP7 DUP4 SUB PUSH1 0x20 DUP9 ADD MSTORE PUSH2 0x164A JUMP JUMPDEST SWAP5 PUSH2 0x16DD PUSH2 0x16D6 PUSH1 0x40 DUP4 ADD DUP4 PUSH2 0x1672 JUMP JUMPDEST PUSH1 0x40 DUP7 ADD MSTORE JUMP JUMPDEST DUP3 DUP2 ADD SWAP1 PUSH2 0x1672 JUMP JUMPDEST SWAP2 ADD MSTORE JUMP JUMPDEST SWAP4 SWAP3 SWAP1 PUSH2 0x3C8 PUSH1 0x40 SWAP2 PUSH2 0x192 SWAP5 PUSH2 0x170A PUSH1 0x60 DUP10 ADD SWAP3 PUSH1 0x0 DUP11 ADD SWAP1 PUSH2 0x1303 JUMP JUMPDEST DUP8 DUP3 SUB PUSH1 0x20 DUP10 ADD MSTORE PUSH2 0x1681 JUMP JUMPDEST SWAP2 SWAP3 SWAP1 SWAP4 CALLVALUE PUSH2 0x14D8 PUSH1 0x0 SWAP8 PUSH2 0x172E PUSH2 0x149A DUP11 PUSH2 0x1AB JUMP JUMPDEST PUSH1 0x2 PUSH2 0x14CC PUSH2 0x173C PUSH1 0x40 MLOAD SWAP1 JUMP JUMPDEST SWAP6 DUP7 SWAP4 PUSH1 0x20 DUP6 ADD SWAP4 DUP5 PUSH2 0x16EB JUMP JUMPDEST PUSH2 0x177A PUSH2 0x192 SWAP5 PUSH2 0x1773 PUSH1 0x60 SWAP5 SWAP9 SWAP8 SWAP6 PUSH2 0x176C PUSH1 0x80 DUP7 ADD SWAP11 PUSH1 0x0 DUP8 ADD SWAP1 PUSH2 0x1303 JUMP JUMPDEST PUSH1 0x20 DUP6 ADD MSTORE JUMP JUMPDEST PUSH1 0x40 DUP4 ADD MSTORE JUMP JUMPDEST ADD MSTORE JUMP JUMPDEST SWAP3 SWAP2 SWAP4 SWAP5 SWAP1 SWAP5 PUSH2 0x14D8 CALLVALUE SWAP2 PUSH1 0x0 SWAP9 PUSH2 0x179E PUSH2 0x1798 DUP12 PUSH2 0x1AB JUMP JUMPDEST DUP6 PUSH2 0x149C JUMP JUMPDEST PUSH2 0x14CC PUSH1 0x3 SWAP2 PUSH2 0x17AD PUSH1 0x40 MLOAD SWAP1 JUMP JUMPDEST SWAP7 DUP8 SWAP5 PUSH1 0x20 DUP7 ADD SWAP5 DUP6 PUSH2 0x174A JUMP JUMPDEST SWAP2 SWAP1 SWAP2 PUSH1 0x40 DUP2 DUP5 SUB SLT PUSH2 0x180 JUMPI PUSH2 0x17D2 DUP4 DUP3 PUSH2 0x185 JUMP JUMPDEST SWAP3 PUSH1 0x20 DUP3 ADD CALLDATALOAD PUSH1 0x1 PUSH1 0x1 PUSH1 0x40 SHL SUB DUP2 GT PUSH2 0x180 JUMPI PUSH2 0x1A8 SWAP3 ADD PUSH2 0x624 JUMP JUMPDEST PUSH1 0x80 DUP2 DUP4 SUB SLT PUSH2 0x180 JUMPI PUSH2 0x1804 DUP3 DUP3 PUSH2 0x185 JUMP JUMPDEST SWAP3 PUSH2 0x1A8 PUSH2 0x1815 DUP5 PUSH1 0x20 DUP6 ADD PUSH2 0x185 JUMP JUMPDEST SWAP4 PUSH2 0x1823 DUP2 PUSH1 0x40 DUP7 ADD PUSH2 0x185 JUMP JUMPDEST SWAP4 PUSH1 0x60 ADD PUSH2 0x185 JUMP JUMPDEST PUSH1 0x1 PUSH1 0x1 PUSH1 0x40 SHL SUB DUP2 GT PUSH2 0x2D5 JUMPI PUSH1 0x20 DUP1 SWAP2 MUL ADD SWAP1 JUMP JUMPDEST SWAP1 SWAP3 SWAP2 SWAP3 PUSH2 0x1853 PUSH2 0x50C DUP3 PUSH2 0x182C JUMP JUMPDEST SWAP4 DUP2 DUP6 MSTORE PUSH1 0x20 DUP1 DUP7 ADD SWAP3 MUL DUP4 ADD SWAP3 DUP2 DUP5 GT PUSH2 0x180 JUMPI SWAP2 JUMPDEST DUP4 DUP4 LT PUSH2 0x1877 JUMPI POP POP POP POP JUMP JUMPDEST PUSH1 0x20 DUP1 SWAP2 PUSH2 0x1885 DUP5 DUP7 PUSH2 0x185 JUMP JUMPDEST DUP2 MSTORE ADD SWAP3 ADD SWAP2 PUSH2 0x186A JUMP JUMPDEST SWAP1 DUP1 PUSH1 0x1F DUP4 ADD SLT ISZERO PUSH2 0x180 JUMPI DUP2 PUSH1 0x20 PUSH2 0x1A8 SWAP4 CALLDATALOAD SWAP2 ADD PUSH2 0x1843 JUMP JUMPDEST SWAP2 SWAP1 SWAP2 PUSH1 0x80 DUP2 DUP5 SUB SLT PUSH2 0x180 JUMPI PUSH2 0x18C2 PUSH1 0x80 PUSH2 0x4C0 JUMP JUMPDEST SWAP3 DUP2 CALLDATALOAD PUSH1 0x1 PUSH1 0x1 PUSH1 0x40 SHL SUB DUP2 GT PUSH2 0x180 JUMPI DUP2 PUSH2 0x18DF SWAP2 DUP5 ADD PUSH2 0x52B JUMP JUMPDEST DUP5 MSTORE PUSH1 0x20 DUP3 ADD CALLDATALOAD SWAP1 PUSH1 0x1 PUSH1 0x1 PUSH1 0x40 SHL SUB DUP3 GT PUSH2 0x180 JUMPI PUSH2 0x1904 DUP2 PUSH2 0x5AE SWAP4 DUP6 ADD PUSH2 0x1890 JUMP JUMPDEST PUSH1 0x20 DUP7 ADD MSTORE PUSH1 0x40 PUSH2 0x1917 DUP3 DUP3 DUP7 ADD PUSH2 0x185 JUMP JUMPDEST SWAP1 DUP7 ADD MSTORE PUSH1 0x60 DUP1 SWAP4 ADD PUSH2 0x185 JUMP JUMPDEST SWAP1 SWAP2 PUSH1 0x60 DUP3 DUP5 SUB SLT PUSH2 0x180 JUMPI PUSH2 0x193B DUP4 DUP4 PUSH2 0x185 JUMP JUMPDEST SWAP3 PUSH1 0x20 DUP4 ADD CALLDATALOAD SWAP1 PUSH1 0x1 PUSH1 0x1 PUSH1 0x40 SHL SUB DUP3 GT PUSH2 0x180 JUMPI PUSH2 0x195F DUP2 PUSH2 0x1A8 SWAP4 DUP7 ADD PUSH2 0x18AB JUMP JUMPDEST SWAP4 PUSH1 0x40 ADD PUSH2 0x185 JUMP JUMPDEST POP POP POP POP SWAP1 PUSH2 0x1979 DUP2 DUP4 ADD DUP4 PUSH2 0x17BB JUMP JUMPDEST POP PUSH2 0x1984 PUSH1 0x1 PUSH2 0x1AB JUMP JUMPDEST DUP2 SUB PUSH2 0x19A2 JUMPI POP DUP2 PUSH2 0x199B SWAP2 PUSH2 0x192 SWAP4 ADD SWAP1 PUSH2 0x17BB JUMP JUMPDEST SWAP1 POP PUSH2 0x1D1D JUMP JUMPDEST PUSH2 0x19AC PUSH1 0x2 PUSH2 0x1AB JUMP JUMPDEST DUP2 SUB PUSH2 0x19CB JUMPI POP DUP2 PUSH2 0x19C3 SWAP2 PUSH2 0x192 SWAP4 ADD SWAP1 PUSH2 0x1925 JUMP JUMPDEST SWAP1 SWAP2 POP PUSH2 0x2004 JUMP JUMPDEST PUSH2 0x19D8 PUSH2 0xAC2 PUSH1 0x3 PUSH2 0x1AB JUMP JUMPDEST EQ PUSH2 0x19E1 JUMPI POP POP JUMP JUMPDEST DUP2 PUSH2 0x19F1 SWAP2 PUSH2 0x192 SWAP4 ADD SWAP1 PUSH2 0x17F0 JUMP JUMPDEST SWAP3 POP SWAP1 PUSH2 0x219D JUMP JUMPDEST PUSH1 0x20 DUP1 DUP3 MSTORE PUSH2 0x1A8 SWAP3 SWAP2 ADD SWAP1 PUSH2 0xCFB JUMP JUMPDEST PUSH2 0x1A8 SWAP1 PUSH2 0x1AB JUMP JUMPDEST PUSH2 0x1A8 SWAP1 PUSH2 0x1A3F PUSH2 0x1A23 PUSH1 0x40 MLOAD SWAP1 JUMP JUMPDEST DUP1 SWAP3 PUSH2 0x1A33 PUSH1 0x20 DUP4 ADD SWAP2 DUP3 PUSH2 0x19F9 JUMP JUMPDEST SWAP1 DUP2 SUB DUP3 MSTORE SUB DUP3 PUSH2 0x2B4 JUMP JUMPDEST PUSH2 0x1A4A PUSH2 0x10EF DUP3 MLOAD SWAP1 JUMP JUMPDEST KECCAK256 PUSH2 0x1A0A JUMP JUMPDEST PUSH4 0x4E487B71 PUSH1 0xE0 SHL PUSH1 0x0 MSTORE PUSH1 0x0 PUSH1 0x4 MSTORE PUSH1 0x24 PUSH1 0x0 REVERT JUMPDEST SWAP2 PUSH1 0x0 NOT PUSH1 0x8 SWAP3 SWAP1 SWAP3 MUL SWAP2 DUP3 SHL SWAP2 SHL JUMPDEST SWAP2 DUP2 NOT AND SWAP2 AND OR SWAP1 JUMP JUMPDEST SWAP2 SWAP1 PUSH2 0x1A91 PUSH2 0x1A8 PUSH2 0x1A99 SWAP4 PUSH2 0x1AB JUMP JUMPDEST SWAP1 DUP4 SLOAD PUSH2 0x1A66 JUMP JUMPDEST SWAP1 SSTORE JUMP JUMPDEST PUSH2 0x192 SWAP2 PUSH1 0x0 JUMPDEST SWAP2 PUSH2 0x1A80 JUMP JUMPDEST DUP2 DUP2 LT PUSH2 0x1AB5 JUMPI POP POP JUMP JUMPDEST DUP1 PUSH2 0x1AC3 PUSH1 0x0 PUSH1 0x1 SWAP4 PUSH2 0x1A9D JUMP JUMPDEST ADD PUSH2 0x1AAA JUMP JUMPDEST SWAP2 SWAP1 PUSH1 0x1F DUP2 GT PUSH2 0x1AD8 JUMPI POP POP POP JUMP JUMPDEST PUSH2 0x1AEA PUSH2 0x192 SWAP4 PUSH1 0x0 MSTORE PUSH1 0x20 PUSH1 0x0 KECCAK256 SWAP1 JUMP JUMPDEST SWAP1 PUSH1 0x20 PUSH1 0x1F DUP5 ADD DUP2 SWAP1 DIV DUP4 ADD SWAP4 LT PUSH2 0x1B0C JUMPI JUMPDEST PUSH1 0x20 PUSH1 0x1F SWAP1 SWAP2 ADD DIV ADD SWAP1 PUSH2 0x1AAA JUMP JUMPDEST SWAP1 SWAP2 POP DUP2 SWAP1 PUSH2 0x1AFD JUMP JUMPDEST SWAP1 PUSH1 0x0 NOT PUSH1 0x8 SWAP1 SWAP2 MUL SHR NOT AND SWAP1 JUMP JUMPDEST DUP2 PUSH2 0x1B2F SWAP2 PUSH2 0x1B16 JUMP JUMPDEST SWAP1 PUSH1 0x2 MUL OR SWAP1 JUMP JUMPDEST SWAP1 PUSH2 0x1B40 DUP2 MLOAD SWAP1 JUMP JUMPDEST SWAP1 PUSH1 0x1 PUSH1 0x1 PUSH1 0x40 SHL SUB DUP3 GT PUSH2 0x2D5 JUMPI PUSH2 0x1B63 DUP3 PUSH2 0x1B5D DUP6 SLOAD PUSH2 0x1E6 JUMP JUMPDEST DUP6 PUSH2 0x1AC9 JUMP JUMPDEST PUSH1 0x20 SWAP1 PUSH1 0x1F DUP4 GT PUSH1 0x1 EQ PUSH2 0x1B91 JUMPI PUSH2 0x1A99 SWAP3 SWAP2 PUSH1 0x0 SWAP2 DUP4 PUSH2 0x1B86 JUMPI JUMPDEST POP POP PUSH2 0x1B25 JUMP JUMPDEST ADD MLOAD SWAP1 POP CODESIZE DUP1 PUSH2 0x1B7F JUMP JUMPDEST PUSH1 0x1F NOT DUP4 AND SWAP2 PUSH2 0x1BA6 DUP6 PUSH1 0x0 MSTORE PUSH1 0x20 PUSH1 0x0 KECCAK256 SWAP1 JUMP JUMPDEST SWAP3 PUSH1 0x0 JUMPDEST DUP2 DUP2 LT PUSH2 0x1BE5 JUMPI POP SWAP2 PUSH1 0x2 SWAP4 SWAP2 DUP6 PUSH1 0x1 SWAP7 SWAP5 LT PUSH2 0x1BCB JUMPI JUMPDEST POP POP POP MUL ADD SWAP1 SSTORE JUMP JUMPDEST PUSH2 0x1BDB SWAP2 ADD MLOAD PUSH1 0x1F DUP5 AND SWAP1 PUSH2 0x1B16 JUMP JUMPDEST SWAP1 SSTORE CODESIZE DUP1 DUP1 PUSH2 0x1BC2 JUMP JUMPDEST SWAP2 SWAP4 PUSH1 0x20 PUSH1 0x1 DUP2 SWAP3 DUP8 DUP8 ADD MLOAD DUP2 SSTORE ADD SWAP6 ADD SWAP3 ADD PUSH2 0x1BAA JUMP JUMPDEST SWAP1 PUSH2 0x192 SWAP2 PUSH2 0x1B37 JUMP JUMPDEST SWAP1 PUSH1 0x1 PUSH1 0x1 PUSH1 0xA0 SHL SUB SWAP1 PUSH2 0x1A76 JUMP JUMPDEST SWAP1 PUSH2 0x1C26 PUSH2 0x1A8 PUSH2 0x1A99 SWAP3 PUSH2 0x718 JUMP JUMPDEST DUP3 SLOAD PUSH2 0x1C07 JUMP JUMPDEST SWAP1 PUSH2 0x1C85 PUSH1 0x60 PUSH1 0x3 PUSH2 0x192 SWAP5 PUSH2 0x1C51 PUSH1 0x0 DUP3 ADD PUSH2 0x1C4B PUSH1 0x0 DUP9 ADD MLOAD SWAP1 JUMP JUMPDEST SWAP1 PUSH2 0x1BFD JUMP JUMPDEST PUSH2 0x1C63 PUSH1 0x1 DUP3 ADD PUSH2 0x1C4B PUSH1 0x20 DUP9 ADD MLOAD SWAP1 JUMP JUMPDEST PUSH2 0x1C75 PUSH1 0x2 DUP3 ADD PUSH2 0x1C4B PUSH1 0x40 DUP9 ADD MLOAD SWAP1 JUMP JUMPDEST ADD SWAP3 ADD MLOAD PUSH1 0x1 PUSH1 0x1 PUSH1 0xA0 SHL SUB AND SWAP1 JUMP JUMPDEST SWAP1 PUSH2 0x1C16 JUMP JUMPDEST SWAP1 PUSH2 0x192 SWAP2 PUSH2 0x1C2D JUMP JUMPDEST SWAP2 SWAP1 PUSH2 0x1CA4 JUMPI PUSH2 0x192 SWAP2 PUSH2 0x1C2D JUMP JUMPDEST PUSH2 0x1A50 JUMP JUMPDEST DUP1 SLOAD SWAP2 SWAP1 PUSH1 0x1 PUSH1 0x40 SHL DUP4 LT ISZERO PUSH2 0x2D5 JUMPI DUP3 PUSH2 0x1CCC SWAP2 PUSH1 0x1 PUSH2 0x192 SWAP6 ADD DUP2 SSTORE PUSH2 0xF42 JUMP JUMPDEST SWAP1 PUSH2 0x1C95 JUMP JUMPDEST PUSH4 0x4E487B71 PUSH1 0xE0 SHL PUSH1 0x0 MSTORE PUSH1 0x11 PUSH1 0x4 MSTORE PUSH1 0x24 PUSH1 0x0 REVERT JUMPDEST PUSH1 0x0 NOT DUP2 EQ PUSH2 0x1CF7 JUMPI PUSH1 0x1 ADD SWAP1 JUMP JUMPDEST PUSH2 0x1CD2 JUMP JUMPDEST SWAP1 PUSH1 0x0 NOT SWAP1 PUSH2 0x1A76 JUMP JUMPDEST SWAP1 PUSH2 0x1D16 PUSH2 0x1A8 PUSH2 0x1A99 SWAP3 PUSH2 0x1AB JUMP JUMPDEST DUP3 SLOAD PUSH2 0x1CFC JUMP JUMPDEST PUSH2 0x1D44 SWAP1 PUSH2 0x1D3D DUP2 PUSH2 0x1D38 PUSH2 0x1D31 DUP3 PUSH2 0x1A13 JUMP JUMPDEST PUSH1 0x2 PUSH2 0x1B8 JUMP JUMPDEST PUSH2 0x1C8B JUMP JUMPDEST PUSH1 0x1 PUSH2 0x1CA9 JUMP JUMPDEST PUSH2 0x192 PUSH2 0x1D59 PUSH2 0x1D54 PUSH1 0x0 PUSH2 0x302 JUMP JUMPDEST PUSH2 0x1CE8 JUMP JUMPDEST PUSH1 0x0 PUSH2 0x1D06 JUMP JUMPDEST SWAP1 PUSH2 0x1D6D PUSH2 0x50C DUP4 PUSH2 0x182C JUMP JUMPDEST SWAP2 DUP3 MSTORE JUMP JUMPDEST PUSH2 0x1A8 PUSH1 0x80 PUSH2 0x4C0 JUMP JUMPDEST SWAP1 PUSH2 0x192 PUSH2 0x1DD0 PUSH1 0x3 PUSH2 0x1D8D PUSH2 0x1D72 JUMP JUMPDEST SWAP5 PUSH2 0x1D9E PUSH2 0x1D9A DUP3 PUSH2 0x2DA JUMP JUMPDEST DUP8 MSTORE JUMP JUMPDEST PUSH2 0x1DB4 PUSH2 0x1DAD PUSH1 0x1 DUP4 ADD PUSH2 0x2DA JUMP JUMPDEST PUSH1 0x20 DUP9 ADD MSTORE JUMP JUMPDEST PUSH2 0x1DCA PUSH2 0x1DC3 PUSH1 0x2 DUP4 ADD PUSH2 0x2DA JUMP JUMPDEST PUSH1 0x40 DUP9 ADD MSTORE JUMP JUMPDEST ADD PUSH2 0xE7A JUMP JUMPDEST PUSH1 0x1 PUSH1 0x1 PUSH1 0xA0 SHL SUB AND PUSH1 0x60 DUP5 ADD MSTORE JUMP JUMPDEST PUSH2 0x1A8 SWAP1 PUSH2 0x1D7C JUMP JUMPDEST SWAP1 PUSH2 0x1DF2 DUP3 SLOAD SWAP1 JUMP JUMPDEST PUSH2 0x1DFB DUP2 PUSH2 0x1D60 JUMP JUMPDEST SWAP3 PUSH2 0x1E0F PUSH1 0x20 DUP6 ADD SWAP2 PUSH1 0x0 MSTORE PUSH1 0x20 PUSH1 0x0 KECCAK256 SWAP1 JUMP JUMPDEST PUSH1 0x0 SWAP2 JUMPDEST DUP4 DUP4 LT PUSH2 0x1E20 JUMPI POP POP POP POP JUMP JUMPDEST PUSH1 0x4 PUSH1 0x20 PUSH1 0x1 SWAP3 PUSH2 0x1E30 DUP6 PUSH2 0x1DE0 JUMP JUMPDEST DUP2 MSTORE ADD SWAP3 ADD SWAP3 ADD SWAP2 SWAP1 PUSH2 0x1E13 JUMP JUMPDEST PUSH2 0x1A8 SWAP1 PUSH2 0x1DE9 JUMP JUMPDEST PUSH2 0x1A8 PUSH1 0x1 PUSH2 0x1E3E JUMP JUMPDEST SWAP3 SWAP2 PUSH1 0x20 PUSH2 0x3C8 PUSH2 0x192 SWAP4 PUSH1 0x40 DUP8 ADD SWAP1 DUP8 DUP3 SUB PUSH1 0x0 DUP10 ADD MSTORE PUSH2 0x9CA JUMP JUMPDEST PUSH2 0x1A3F PUSH2 0x1A8 SWAP3 PUSH2 0x1A33 SWAP3 PUSH2 0x1E81 PUSH1 0x0 SWAP1 JUMP JUMPDEST POP PUSH1 0x40 MLOAD SWAP4 DUP5 SWAP3 PUSH1 0x20 DUP5 ADD SWAP3 DUP4 PUSH2 0x1E51 JUMP JUMPDEST PUSH2 0x1A8 SWAP1 PUSH2 0x88D JUMP JUMPDEST PUSH2 0x1A8 SWAP1 SLOAD PUSH2 0x1E93 JUMP JUMPDEST ISZERO PUSH2 0x1EAD JUMPI JUMP JUMPDEST PUSH1 0x40 MLOAD PUSH3 0x461BCD PUSH1 0xE5 SHL DUP2 MSTORE PUSH1 0x20 PUSH1 0x4 DUP3 ADD MSTORE PUSH1 0x11 PUSH1 0x24 DUP3 ADD MSTORE PUSH17 0x159BDD1948185B1C9958591E4818D85CDD PUSH1 0x7A SHL PUSH1 0x44 DUP3 ADD MSTORE PUSH1 0x64 SWAP1 REVERT JUMPDEST SWAP1 PUSH2 0x1EFF PUSH2 0xAEA PUSH2 0x1EF5 DUP5 MLOAD SWAP1 JUMP JUMPDEST DUP1 DUP5 MSTORE SWAP3 PUSH1 0x20 ADD SWAP1 JUMP JUMPDEST SWAP1 PUSH1 0x0 JUMPDEST DUP2 DUP2 LT PUSH2 0x1F10 JUMPI POP POP POP SWAP1 JUMP JUMPDEST SWAP1 SWAP2 SWAP3 PUSH2 0x1F2D PUSH2 0x1F26 PUSH1 0x1 SWAP3 DUP7 MLOAD DUP2 MSTORE PUSH1 0x20 ADD SWAP1 JUMP JUMPDEST SWAP5 PUSH1 0x20 ADD SWAP1 JUMP JUMPDEST SWAP3 SWAP2 ADD PUSH2 0x1F03 JUMP JUMPDEST PUSH1 0x40 DUP1 DUP3 MSTORE PUSH2 0x1A8 SWAP4 SWAP2 SWAP3 PUSH2 0x1F4C SWAP2 DUP5 ADD SWAP1 PUSH2 0x35C JUMP JUMPDEST SWAP2 PUSH1 0x20 DUP2 DUP5 SUB SWAP2 ADD MSTORE PUSH2 0x1EE6 JUMP JUMPDEST ISZERO PUSH2 0x1F61 JUMPI JUMP JUMPDEST PUSH1 0x40 MLOAD PUSH3 0x461BCD PUSH1 0xE5 SHL DUP2 MSTORE PUSH1 0x20 PUSH1 0x4 DUP3 ADD MSTORE PUSH1 0xC PUSH1 0x24 DUP3 ADD MSTORE PUSH12 0x496E76616C696420766F7465 PUSH1 0xA0 SHL PUSH1 0x44 DUP3 ADD MSTORE PUSH1 0x64 SWAP1 REVERT JUMPDEST SWAP1 PUSH1 0xFF SWAP1 PUSH2 0x1A76 JUMP JUMPDEST SWAP1 PUSH2 0x1FAE PUSH2 0x1A8 PUSH2 0x1A99 SWAP3 ISZERO ISZERO SWAP1 JUMP JUMPDEST DUP3 SLOAD PUSH2 0x1F95 JUMP JUMPDEST SWAP1 PUSH2 0x1D16 PUSH2 0x1A8 PUSH2 0x1A99 SWAP3 SWAP1 JUMP JUMPDEST ISZERO PUSH2 0x1FCA JUMPI JUMP JUMPDEST PUSH1 0x40 MLOAD PUSH3 0x461BCD PUSH1 0xE5 SHL DUP2 MSTORE PUSH1 0x20 PUSH1 0x4 DUP3 ADD MSTORE PUSH1 0x12 PUSH1 0x24 DUP3 ADD MSTORE PUSH18 0x2B37BA34B733903832B934B7B21037BB32B9 PUSH1 0x71 SHL PUSH1 0x44 DUP3 ADD MSTORE PUSH1 0x64 SWAP1 REVERT JUMPDEST PUSH1 0x40 DUP3 ADD MLOAD SWAP2 PUSH1 0x8 SWAP3 PUSH2 0x202A PUSH2 0x2025 PUSH2 0x11AD PUSH2 0x2020 DUP5 DUP9 PUSH2 0x87E JUMP JUMPDEST PUSH2 0x1E9C JUMP JUMPDEST PUSH2 0x1EA6 JUMP JUMPDEST PUSH2 0x203C PUSH2 0x2037 PUSH1 0x9 PUSH2 0xE7A JUMP JUMPDEST PUSH2 0x718 JUMP JUMPDEST SWAP4 PUSH1 0x20 PUSH4 0xEA50D0E4 SWAP6 PUSH1 0x0 DUP6 ADD MLOAD SWAP1 PUSH2 0x206C DUP4 DUP8 ADD MLOAD SWAP9 PUSH2 0x2077 PUSH2 0x205F PUSH1 0x40 MLOAD SWAP1 JUMP JUMPDEST SWAP11 DUP12 SWAP6 DUP7 SWAP5 DUP6 SWAP5 PUSH1 0xE0 SHL SWAP1 JUMP JUMPDEST DUP5 MSTORE PUSH1 0x4 DUP5 ADD PUSH2 0x1F35 JUMP JUMPDEST SUB SWAP2 GAS STATICCALL SWAP1 DUP2 ISZERO PUSH2 0x11B8 JUMPI PUSH1 0x60 PUSH2 0x20DC SWAP5 PUSH2 0x20B9 PUSH2 0x20D4 SWAP4 PUSH2 0x20A8 PUSH2 0x20CA SWAP7 PUSH2 0x192 SWAP12 PUSH1 0x0 SWAP2 PUSH2 0x20FF JUMPI JUMPDEST POP PUSH2 0x1F5A JUMP JUMPDEST PUSH2 0x20B4 DUP8 PUSH1 0x1 SWAP3 PUSH2 0x87E JUMP JUMPDEST PUSH2 0x1F9E JUMP JUMPDEST PUSH2 0x20CF PUSH1 0x6 SWAP6 PUSH2 0x20CA CALLER DUP1 SWAP9 PUSH2 0xE08 JUMP JUMPDEST PUSH2 0x1FB5 JUMP JUMPDEST ADD MLOAD SWAP1 JUMP JUMPDEST SWAP2 PUSH1 0x7 PUSH2 0xE08 JUMP JUMPDEST PUSH2 0x20F9 PUSH2 0xAC2 PUSH2 0x1A8 PUSH1 0x2 PUSH2 0x20F3 TIMESTAMP SWAP6 PUSH1 0x3 PUSH2 0x1B8 JUMP JUMPDEST ADD PUSH2 0x302 JUMP JUMPDEST LT PUSH2 0x1FC3 JUMP JUMPDEST PUSH2 0x2117 SWAP2 POP PUSH1 0x20 RETURNDATASIZE DUP2 GT PUSH2 0x11B1 JUMPI PUSH2 0x11A5 DUP2 DUP4 PUSH2 0x2B4 JUMP JUMPDEST CODESIZE PUSH2 0x20A2 JUMP JUMPDEST ISZERO PUSH2 0x2124 JUMPI JUMP JUMPDEST PUSH1 0x40 MLOAD PUSH3 0x461BCD PUSH1 0xE5 SHL DUP2 MSTORE PUSH1 0x20 PUSH1 0x4 DUP3 ADD MSTORE PUSH1 0x15 PUSH1 0x24 DUP3 ADD MSTORE PUSH21 0x2CB7BA9030B932903737BA103A3432903B37BA32B9 PUSH1 0x59 SHL PUSH1 0x44 DUP3 ADD MSTORE PUSH1 0x64 SWAP1 REVERT JUMPDEST ISZERO PUSH2 0x2168 JUMPI JUMP JUMPDEST PUSH1 0x40 MLOAD PUSH3 0x461BCD PUSH1 0xE5 SHL DUP2 MSTORE PUSH1 0x20 PUSH1 0x4 DUP3 ADD MSTORE PUSH1 0xD PUSH1 0x24 DUP3 ADD MSTORE PUSH13 0x159BDD19481B9BDD0818D85CDD PUSH1 0x9A SHL PUSH1 0x44 DUP3 ADD MSTORE PUSH1 0x64 SWAP1 REVERT JUMPDEST SWAP2 PUSH2 0x21FF PUSH2 0x2204 SWAP3 PUSH2 0x21DC PUSH2 0x21D7 PUSH2 0x2020 PUSH2 0x192 SWAP8 PUSH2 0x21D0 PUSH2 0x21C9 PUSH2 0x21C4 PUSH1 0x6 CALLER SWAP1 PUSH2 0xE08 JUMP JUMPDEST PUSH2 0x302 JUMP JUMPDEST DUP3 EQ PUSH2 0x211D JUMP JUMPDEST PUSH1 0x8 PUSH2 0x87E JUMP JUMPDEST PUSH2 0x2161 JUMP JUMPDEST PUSH2 0x21E6 PUSH1 0x0 PUSH2 0x1AB JUMP JUMPDEST DUP4 EQ DUP1 ISZERO PUSH2 0x2211 JUMPI JUMPDEST PUSH2 0x21F8 SWAP1 PUSH2 0x1F5A JUMP JUMPDEST PUSH1 0x4 PUSH2 0x1B8 JUMP JUMPDEST PUSH2 0x434 JUMP JUMPDEST PUSH2 0x1AA4 PUSH2 0x1D54 DUP3 DUP5 PUSH2 0x45A JUMP JUMPDEST POP PUSH2 0x21F8 PUSH2 0x221F PUSH1 0x1 PUSH2 0x1AB JUMP JUMPDEST DUP5 EQ SWAP1 POP PUSH2 0x21EF JUMP JUMPDEST PUSH2 0x2234 PUSH2 0xAC2 PUSH1 0x2 SWAP4 SWAP1 JUMP JUMPDEST PUSH1 0x0 SWAP2 JUMPDEST DUP4 DUP4 LT PUSH2 0x2245 JUMPI POP POP POP POP JUMP JUMPDEST PUSH2 0x2266 PUSH2 0x225F PUSH1 0x1 SWAP3 PUSH2 0x2257 DUP6 PUSH2 0x302 JUMP JUMPDEST DUP2 MSTORE PUSH1 0x20 ADD SWAP1 JUMP JUMPDEST SWAP3 PUSH1 0x1 ADD SWAP1 JUMP JUMPDEST SWAP3 ADD SWAP2 SWAP1 PUSH2 0x2238 JUMP JUMPDEST SWAP1 PUSH2 0x390 DUP2 PUSH1 0x40 SWAP4 PUSH2 0x2228 JUMP JUMPDEST SWAP1 PUSH2 0x192 PUSH2 0x2F4 SWAP3 PUSH2 0x228D PUSH1 0x40 MLOAD SWAP1 JUMP JUMPDEST SWAP4 DUP5 DUP1 SWAP3 PUSH2 0x226F JUMP JUMPDEST PUSH2 0x1A8 SWAP1 PUSH2 0x227C JUMP JUMPDEST SWAP1 PUSH1 0x2 DUP2 LT ISZERO PUSH2 0x44A JUMPI PUSH1 0x20 MUL ADD SWAP1 JUMP JUMPDEST PUSH2 0x22C7 PUSH2 0x22CC SWAP2 PUSH2 0x22BF PUSH1 0x0 SWAP1 JUMP JUMPDEST POP PUSH1 0x4 PUSH2 0x1B8 JUMP JUMPDEST PUSH2 0x2296 JUMP JUMPDEST PUSH2 0x2303 PUSH2 0xAC2 PUSH2 0x1A8 PUSH2 0x22EE PUSH2 0x22F2 PUSH2 0x22EE PUSH2 0x22E8 PUSH1 0x1 PUSH2 0x1AB JUMP JUMPDEST DUP8 PUSH2 0x229F JUMP JUMPDEST MLOAD SWAP1 JUMP JUMPDEST SWAP5 PUSH2 0x22FD PUSH1 0x0 PUSH2 0x1AB JUMP JUMPDEST SWAP1 PUSH2 0x229F JUMP JUMPDEST GT SWAP1 JUMP JUMPDEST SWAP1 PUSH2 0x2322 PUSH2 0x2316 PUSH2 0x1EF5 DUP5 SLOAD SWAP1 JUMP JUMPDEST SWAP3 PUSH1 0x0 MSTORE PUSH1 0x20 PUSH1 0x0 KECCAK256 SWAP1 JUMP JUMPDEST SWAP1 PUSH1 0x0 JUMPDEST DUP2 DUP2 LT PUSH2 0x2333 JUMPI POP POP POP SWAP1 JUMP JUMPDEST SWAP1 SWAP2 SWAP3 PUSH2 0x234F PUSH2 0x2348 PUSH1 0x1 SWAP3 PUSH2 0x2257 DUP8 PUSH2 0x302 JUMP JUMPDEST SWAP5 PUSH1 0x1 ADD SWAP1 JUMP JUMPDEST SWAP3 SWAP2 ADD PUSH2 0x2326 JUMP JUMPDEST SWAP1 PUSH2 0x1A8 SWAP2 PUSH2 0x2307 JUMP JUMPDEST SWAP1 PUSH2 0x192 PUSH2 0x2F4 SWAP3 PUSH2 0x2372 PUSH1 0x40 MLOAD SWAP1 JUMP JUMPDEST SWAP4 DUP5 DUP1 SWAP3 PUSH2 0x2357 JUMP JUMPDEST PUSH2 0x1A8 SWAP1 PUSH2 0x2361 JUMP JUMPDEST PUSH2 0x1A8 PUSH1 0x60 PUSH2 0x4C0 JUMP JUMPDEST PUSH2 0x2396 PUSH2 0x2384 JUMP JUMPDEST PUSH1 0x60 DUP1 DUP3 MSTORE PUSH1 0x20 DUP3 ADD MSTORE PUSH1 0x0 PUSH1 0x40 DUP3 ADD MSTORE SWAP1 JUMP JUMPDEST PUSH2 0x1A8 PUSH2 0x238E JUMP JUMPDEST PUSH1 0x0 JUMPDEST DUP3 DUP2 LT PUSH2 0x23C1 JUMPI POP POP POP JUMP JUMPDEST PUSH1 0x20 SWAP1 PUSH2 0x23CC PUSH2 0x23AA JUMP JUMPDEST DUP2 DUP5 ADD MSTORE ADD PUSH2 0x23B5 JUMP JUMPDEST SWAP1 PUSH2 0x192 PUSH2 0x23EC PUSH2 0x23E6 DUP5 PUSH2 0x1D60 JUMP JUMPDEST SWAP4 PUSH2 0x182C JUMP JUMPDEST PUSH1 0x1F NOT ADD PUSH1 0x20 DUP5 ADD PUSH2 0x23B2 JUMP JUMPDEST SWAP1 PUSH2 0x2402 DUP3 MLOAD SWAP1 JUMP JUMPDEST DUP2 LT ISZERO PUSH2 0x44A JUMPI PUSH1 0x20 DUP1 SWAP2 MUL ADD ADD SWAP1 JUMP JUMPDEST SWAP1 PUSH2 0x192 PUSH2 0x2440 PUSH1 0x2 PUSH2 0x2424 PUSH2 0x2384 JUMP JUMPDEST SWAP5 PUSH2 0x2431 PUSH2 0x1D9A DUP3 PUSH2 0x2DA JUMP JUMPDEST PUSH2 0x20F3 PUSH2 0x1DAD PUSH1 0x1 DUP4 ADD PUSH2 0x2DA JUMP JUMPDEST PUSH1 0x40 DUP5 ADD MSTORE JUMP JUMPDEST PUSH2 0x1A8 SWAP1 PUSH2 0x2413 JUMP JUMPDEST PUSH2 0x2467 PUSH2 0x246C SWAP2 PUSH2 0x245F PUSH1 0x60 SWAP1 JUMP JUMPDEST POP PUSH1 0x5 PUSH2 0x1B8 JUMP JUMPDEST PUSH2 0x237B JUMP JUMPDEST PUSH2 0x247C PUSH2 0x2477 DUP3 MLOAD SWAP1 JUMP JUMPDEST PUSH2 0x23D6 JUMP JUMPDEST SWAP1 PUSH2 0x2487 PUSH1 0x0 PUSH2 0x1AB JUMP JUMPDEST PUSH2 0x2492 PUSH2 0x1A8 DUP4 MLOAD SWAP1 JUMP JUMPDEST DUP2 LT ISZERO PUSH2 0x24DD JUMPI PUSH2 0x24D8 SWAP1 PUSH2 0x24BD PUSH2 0x24B8 PUSH1 0x3 PUSH2 0x24B2 PUSH2 0x22EE DUP6 DUP9 PUSH2 0x23F9 JUMP JUMPDEST SWAP1 PUSH2 0x1B8 JUMP JUMPDEST PUSH2 0x2447 JUMP JUMPDEST PUSH2 0x24C7 DUP3 DUP7 PUSH2 0x23F9 JUMP JUMPDEST MSTORE PUSH2 0x24D2 DUP2 DUP6 PUSH2 0x23F9 JUMP JUMPDEST POP PUSH2 0x1CE8 JUMP JUMPDEST PUSH2 0x2487 JUMP JUMPDEST POP POP SWAP1 JUMP JUMPDEST PUSH1 0x1 PUSH1 0x1 PUSH1 0x40 SHL SUB DUP2 GT PUSH2 0x2D5 JUMPI PUSH1 0x20 MUL SWAP1 JUMP JUMPDEST PUSH2 0x50C PUSH2 0x1A8 SWAP2 PUSH2 0x24E2 JUMP JUMPDEST CALLDATASIZE SWAP1 CALLDATACOPY JUMP JUMPDEST SWAP1 PUSH2 0x192 PUSH2 0x251D PUSH2 0x2517 DUP5 PUSH2 0x24F6 JUMP JUMPDEST SWAP4 PUSH2 0x24E2 JUMP JUMPDEST DUP4 PUSH2 0x2502 JUMP JUMPDEST PUSH2 0x1A8 PUSH1 0x2 PUSH2 0x2507 JUMP JUMPDEST PUSH2 0x22C7 PUSH2 0x1A8 SWAP2 PUSH2 0x22BF PUSH2 0x2523 JUMP INVALID LOG2 PUSH5 0x6970667358 0x22 SLT KECCAK256 0xE8 0xD9 0xD2 CALLVALUE NOT 0x2A CREATE2 0xE5 0xE4 0xA5 0xA6 NOT 0xB1 0xB2 PUSH10 0xDB1A20CC23CF936FC66D NUMBER SELFBALANCE RETURNDATASIZE 0xFC XOR 0xA7 PUSH14 0x64736F6C63430008140033000000 "},"methodIdentifiers":{"_deterministicDaoId((string,string,string,address))":"10ba5497","_deterministicProposalId((string,string,uint256),uint256)":"0faccaf1","allDaos(uint256)":"e85f857e","castVoteCrosschain(string,string,uint256,(bytes,bytes32[],bytes32,bytes32))":"5de59280","commitment(address)":"b18f0de2","createCrosschainDao(string,string,(string,string,string,address))":"1f9735e5","daos(uint256)":"ccbbd260","execute(bytes32,string,string,bytes)":"49160658","executeWithToken(bytes32,string,string,bytes,string,uint256)":"1a98b2e0","gasService()":"6a22d8cc","gateway()":"116191b6","getDaos()":"a1d36ce7","getProposalVotes(uint256)":"47c66140","getProposals(uint256)":"2c72fdfc","getVotingResult(uint256)":"1c0d850e","hasVoted(bytes32)":"1b4613cb","nullifiers(address)":"bba7055e","proposalVotes(uint256,uint256)":"0d68eb9e","proposals(uint256)":"013cf08b","proposalsByDao(uint256,uint256)":"7092d2c0","revealVoteCrosschain(string,string,bytes32,uint256,uint256)":"f8f8059a","verifier()":"2b7ac3f3"}}}}}