{"contracts/dao/DataConsumer.sol":{"DataConsumer":{"abi":[{"inputs":[],"stateMutability":"nonpayable","type":"constructor"},{"inputs":[],"name":"getEtherDataFeedLatest","outputs":[{"internalType":"int256","name":"","type":"int256"}],"stateMutability":"view","type":"function"},{"inputs":[],"name":"getMaticDataFeedLatest","outputs":[{"internalType":"int256","name":"","type":"int256"}],"stateMutability":"view","type":"function"}],"evm":{"bytecode":{"linkReferences":{},"object":"6080604052346100225761001161008c565b60405161026d6100dd823961026d90f35b600080fd5b61003b9061003e906001600160a01b031682565b90565b6001600160a01b031690565b61003b90610027565b61003b9061004a565b9061006c61003b61008892610053565b82546001600160a01b0319166001600160a01b03919091161790565b9055565b6100b36100ac730715a7794a1dc8e42615f059dd6e406a6594651a610053565b600061005c565b6100da6100d373d0d5e3db44de05e9f294bb0a3beeaf030de24ada610053565b600161005c565b56fe6080604052600436101561001257600080fd5b60003560e01c806380b5ceff1461003257638f52c443036100425761007d565b610052565b600091031261004257565b600080fd5b90815260200190565b565b3461004257610062366004610037565b61007961006d6101a6565b60405191829182610047565b0390f35b346100425761008d366004610037565b61007961006d610225565b6100a9905b6001600160a01b031690565b90565b6100a99054610098565b6100a99061009d906001600160a01b031682565b6100a9906100b6565b6100a9906100ca565b634e487b7160e01b600052604160045260246000fd5b90601f01601f1916810190811067ffffffffffffffff82111761011457604052565b6100dc565b69ffffffffffffffffffff81165b0361004257565b9050519061005082610119565b80610127565b905051906100508261013b565b919060a08382031261004257610164818461012e565b926101728260208301610141565b926100a96101838460408501610141565b936101918160608601610141565b9360800161012e565b6040513d6000823e3d90fd5b6101d560a06101bd6101b860006100ac565b6100d3565b63feaf968c906101cc60405190565b93849260e01b90565b825260049082905afa908115610220576000916101f0575090565b610211915060a03d8111610219575b61020981836100f2565b81019061014e565b505050905090565b503d6101ff565b61019a565b6101d560a06101bd6101b860016100ac56fea264697066735822122049b4487df5987f1b371c4381a6c34b8c32bcbe87290489129f9e76cb548b482264736f6c63430008140033","opcodes":"PUSH1 0x80 PUSH1 0x40 MSTORE CALLVALUE PUSH2 0x22 JUMPI PUSH2 0x11 PUSH2 0x8C JUMP JUMPDEST PUSH1 0x40 MLOAD PUSH2 0x26D PUSH2 0xDD DUP3 CODECOPY PUSH2 0x26D SWAP1 RETURN JUMPDEST PUSH1 0x0 DUP1 REVERT JUMPDEST PUSH2 0x3B SWAP1 PUSH2 0x3E SWAP1 PUSH1 0x1 PUSH1 0x1 PUSH1 0xA0 SHL SUB AND DUP3 JUMP JUMPDEST SWAP1 JUMP JUMPDEST PUSH1 0x1 PUSH1 0x1 PUSH1 0xA0 SHL SUB AND SWAP1 JUMP JUMPDEST PUSH2 0x3B SWAP1 PUSH2 0x27 JUMP JUMPDEST PUSH2 0x3B SWAP1 PUSH2 0x4A JUMP JUMPDEST SWAP1 PUSH2 0x6C PUSH2 0x3B PUSH2 0x88 SWAP3 PUSH2 0x53 JUMP JUMPDEST DUP3 SLOAD PUSH1 0x1 PUSH1 0x1 PUSH1 0xA0 SHL SUB NOT AND PUSH1 0x1 PUSH1 0x1 PUSH1 0xA0 SHL SUB SWAP2 SWAP1 SWAP2 AND OR SWAP1 JUMP JUMPDEST SWAP1 SSTORE JUMP JUMPDEST PUSH2 0xB3 PUSH2 0xAC PUSH20 0x715A7794A1DC8E42615F059DD6E406A6594651A PUSH2 0x53 JUMP JUMPDEST PUSH1 0x0 PUSH2 0x5C JUMP JUMPDEST PUSH2 0xDA PUSH2 0xD3 PUSH20 0xD0D5E3DB44DE05E9F294BB0A3BEEAF030DE24ADA PUSH2 0x53 JUMP JUMPDEST PUSH1 0x1 PUSH2 0x5C JUMP JUMPDEST JUMP INVALID PUSH1 0x80 PUSH1 0x40 MSTORE PUSH1 0x4 CALLDATASIZE LT ISZERO PUSH2 0x12 JUMPI PUSH1 0x0 DUP1 REVERT JUMPDEST PUSH1 0x0 CALLDATALOAD PUSH1 0xE0 SHR DUP1 PUSH4 0x80B5CEFF EQ PUSH2 0x32 JUMPI PUSH4 0x8F52C443 SUB PUSH2 0x42 JUMPI PUSH2 0x7D JUMP JUMPDEST PUSH2 0x52 JUMP JUMPDEST PUSH1 0x0 SWAP2 SUB SLT PUSH2 0x42 JUMPI JUMP JUMPDEST PUSH1 0x0 DUP1 REVERT JUMPDEST SWAP1 DUP2 MSTORE PUSH1 0x20 ADD SWAP1 JUMP JUMPDEST JUMP JUMPDEST CALLVALUE PUSH2 0x42 JUMPI PUSH2 0x62 CALLDATASIZE PUSH1 0x4 PUSH2 0x37 JUMP JUMPDEST PUSH2 0x79 PUSH2 0x6D PUSH2 0x1A6 JUMP JUMPDEST PUSH1 0x40 MLOAD SWAP2 DUP3 SWAP2 DUP3 PUSH2 0x47 JUMP JUMPDEST SUB SWAP1 RETURN JUMPDEST CALLVALUE PUSH2 0x42 JUMPI PUSH2 0x8D CALLDATASIZE PUSH1 0x4 PUSH2 0x37 JUMP JUMPDEST PUSH2 0x79 PUSH2 0x6D PUSH2 0x225 JUMP JUMPDEST PUSH2 0xA9 SWAP1 JUMPDEST PUSH1 0x1 PUSH1 0x1 PUSH1 0xA0 SHL SUB AND SWAP1 JUMP JUMPDEST SWAP1 JUMP JUMPDEST PUSH2 0xA9 SWAP1 SLOAD PUSH2 0x98 JUMP JUMPDEST PUSH2 0xA9 SWAP1 PUSH2 0x9D SWAP1 PUSH1 0x1 PUSH1 0x1 PUSH1 0xA0 SHL SUB AND DUP3 JUMP JUMPDEST PUSH2 0xA9 SWAP1 PUSH2 0xB6 JUMP JUMPDEST PUSH2 0xA9 SWAP1 PUSH2 0xCA JUMP JUMPDEST PUSH4 0x4E487B71 PUSH1 0xE0 SHL PUSH1 0x0 MSTORE PUSH1 0x41 PUSH1 0x4 MSTORE PUSH1 0x24 PUSH1 0x0 REVERT JUMPDEST SWAP1 PUSH1 0x1F ADD PUSH1 0x1F NOT AND DUP2 ADD SWAP1 DUP2 LT PUSH8 0xFFFFFFFFFFFFFFFF DUP3 GT OR PUSH2 0x114 JUMPI PUSH1 0x40 MSTORE JUMP JUMPDEST PUSH2 0xDC JUMP JUMPDEST PUSH10 0xFFFFFFFFFFFFFFFFFFFF DUP2 AND JUMPDEST SUB PUSH2 0x42 JUMPI JUMP JUMPDEST SWAP1 POP MLOAD SWAP1 PUSH2 0x50 DUP3 PUSH2 0x119 JUMP JUMPDEST DUP1 PUSH2 0x127 JUMP JUMPDEST SWAP1 POP MLOAD SWAP1 PUSH2 0x50 DUP3 PUSH2 0x13B JUMP JUMPDEST SWAP2 SWAP1 PUSH1 0xA0 DUP4 DUP3 SUB SLT PUSH2 0x42 JUMPI PUSH2 0x164 DUP2 DUP5 PUSH2 0x12E JUMP JUMPDEST SWAP3 PUSH2 0x172 DUP3 PUSH1 0x20 DUP4 ADD PUSH2 0x141 JUMP JUMPDEST SWAP3 PUSH2 0xA9 PUSH2 0x183 DUP5 PUSH1 0x40 DUP6 ADD PUSH2 0x141 JUMP JUMPDEST SWAP4 PUSH2 0x191 DUP2 PUSH1 0x60 DUP7 ADD PUSH2 0x141 JUMP JUMPDEST SWAP4 PUSH1 0x80 ADD PUSH2 0x12E JUMP JUMPDEST PUSH1 0x40 MLOAD RETURNDATASIZE PUSH1 0x0 DUP3 RETURNDATACOPY RETURNDATASIZE SWAP1 REVERT JUMPDEST PUSH2 0x1D5 PUSH1 0xA0 PUSH2 0x1BD PUSH2 0x1B8 PUSH1 0x0 PUSH2 0xAC JUMP JUMPDEST PUSH2 0xD3 JUMP JUMPDEST PUSH4 0xFEAF968C SWAP1 PUSH2 0x1CC PUSH1 0x40 MLOAD SWAP1 JUMP JUMPDEST SWAP4 DUP5 SWAP3 PUSH1 0xE0 SHL SWAP1 JUMP JUMPDEST DUP3 MSTORE PUSH1 0x4 SWAP1 DUP3 SWAP1 GAS STATICCALL SWAP1 DUP2 ISZERO PUSH2 0x220 JUMPI PUSH1 0x0 SWAP2 PUSH2 0x1F0 JUMPI POP SWAP1 JUMP JUMPDEST PUSH2 0x211 SWAP2 POP PUSH1 0xA0 RETURNDATASIZE DUP2 GT PUSH2 0x219 JUMPI JUMPDEST PUSH2 0x209 DUP2 DUP4 PUSH2 0xF2 JUMP JUMPDEST DUP2 ADD SWAP1 PUSH2 0x14E JUMP JUMPDEST POP POP POP SWAP1 POP SWAP1 JUMP JUMPDEST POP RETURNDATASIZE PUSH2 0x1FF JUMP JUMPDEST PUSH2 0x19A JUMP JUMPDEST PUSH2 0x1D5 PUSH1 0xA0 PUSH2 0x1BD PUSH2 0x1B8 PUSH1 0x1 PUSH2 0xAC JUMP INVALID LOG2 PUSH5 0x6970667358 0x22 SLT KECCAK256 0x49 0xB4 BASEFEE PUSH30 0xF5987F1B371C4381A6C34B8C32BCBE87290489129F9E76CB548B48226473 PUSH16 0x6C634300081400330000000000000000 "},"methodIdentifiers":{"getEtherDataFeedLatest()":"80b5ceff","getMaticDataFeedLatest()":"8f52c443"}}}}}