{"contracts/dao/DAOs.sol":{"Daos":{"abi":[{"inputs":[{"internalType":"address","name":"_verifier","type":"address"}],"stateMutability":"nonpayable","type":"constructor"},{"inputs":[{"components":[{"internalType":"string","name":"name","type":"string"},{"internalType":"string","name":"minInvestment","type":"string"},{"internalType":"string","name":"zkkyc","type":"string"},{"internalType":"address","name":"treasuryAddress","type":"address"}],"internalType":"struct dao_details","name":"_dao","type":"tuple"}],"name":"_deterministicDaoId","outputs":[{"internalType":"uint256","name":"","type":"uint256"}],"stateMutability":"pure","type":"function"},{"inputs":[{"components":[{"internalType":"string","name":"name","type":"string"},{"internalType":"string","name":"description","type":"string"},{"internalType":"uint256","name":"votingEnd","type":"uint256"}],"internalType":"struct proposal","name":"_proposal","type":"tuple"},{"internalType":"uint256","name":"daoId","type":"uint256"}],"name":"_deterministicProposalId","outputs":[{"internalType":"uint256","name":"","type":"uint256"}],"stateMutability":"pure","type":"function"},{"inputs":[{"internalType":"uint256","name":"","type":"uint256"}],"name":"allDaos","outputs":[{"internalType":"string","name":"name","type":"string"},{"internalType":"string","name":"minInvestment","type":"string"},{"internalType":"string","name":"zkkyc","type":"string"},{"internalType":"address","name":"treasuryAddress","type":"address"}],"stateMutability":"view","type":"function"},{"inputs":[{"internalType":"address","name":"","type":"address"}],"name":"commitment","outputs":[{"internalType":"bytes32","name":"","type":"bytes32"}],"stateMutability":"view","type":"function"},{"inputs":[{"internalType":"uint256","name":"","type":"uint256"}],"name":"daos","outputs":[{"internalType":"string","name":"name","type":"string"},{"internalType":"string","name":"minInvestment","type":"string"},{"internalType":"string","name":"zkkyc","type":"string"},{"internalType":"address","name":"treasuryAddress","type":"address"}],"stateMutability":"view","type":"function"},{"inputs":[],"name":"getDaos","outputs":[{"components":[{"internalType":"string","name":"name","type":"string"},{"internalType":"string","name":"minInvestment","type":"string"},{"internalType":"string","name":"zkkyc","type":"string"},{"internalType":"address","name":"treasuryAddress","type":"address"}],"internalType":"struct dao_details[]","name":"","type":"tuple[]"}],"stateMutability":"view","type":"function"},{"inputs":[{"internalType":"uint256","name":"proposalId","type":"uint256"}],"name":"getProposalVotes","outputs":[{"internalType":"uint256[2]","name":"","type":"uint256[2]"}],"stateMutability":"view","type":"function"},{"inputs":[{"internalType":"uint256","name":"daoId","type":"uint256"}],"name":"getProposals","outputs":[{"components":[{"internalType":"string","name":"name","type":"string"},{"internalType":"string","name":"description","type":"string"},{"internalType":"uint256","name":"votingEnd","type":"uint256"}],"internalType":"struct proposal[]","name":"","type":"tuple[]"}],"stateMutability":"view","type":"function"},{"inputs":[{"internalType":"uint256","name":"proposalId","type":"uint256"}],"name":"getVotingResult","outputs":[{"internalType":"bool","name":"","type":"bool"}],"stateMutability":"view","type":"function"},{"inputs":[{"internalType":"bytes32","name":"","type":"bytes32"}],"name":"hasVoted","outputs":[{"internalType":"bool","name":"","type":"bool"}],"stateMutability":"view","type":"function"},{"inputs":[{"internalType":"address","name":"","type":"address"}],"name":"nullifiers","outputs":[{"internalType":"bytes32","name":"","type":"bytes32"}],"stateMutability":"view","type":"function"},{"inputs":[{"internalType":"uint256","name":"","type":"uint256"},{"internalType":"uint256","name":"","type":"uint256"}],"name":"proposalVotes","outputs":[{"internalType":"uint256","name":"","type":"uint256"}],"stateMutability":"view","type":"function"},{"inputs":[{"internalType":"uint256","name":"","type":"uint256"}],"name":"proposals","outputs":[{"internalType":"string","name":"name","type":"string"},{"internalType":"string","name":"description","type":"string"},{"internalType":"uint256","name":"votingEnd","type":"uint256"}],"stateMutability":"view","type":"function"},{"inputs":[{"internalType":"uint256","name":"","type":"uint256"},{"internalType":"uint256","name":"","type":"uint256"}],"name":"proposalsByDao","outputs":[{"internalType":"uint256","name":"","type":"uint256"}],"stateMutability":"view","type":"function"},{"inputs":[],"name":"verifier","outputs":[{"internalType":"contract VoteVerifier","name":"","type":"address"}],"stateMutability":"view","type":"function"}],"evm":{"bytecode":{"linkReferences":{},"object":"60806040523462000030576200001e62000018620000d3565b6200018e565b60405161113b620001b3823961113b90f35b600080fd5b634e487b7160e01b600052604160045260246000fd5b90601f01601f191681019081106001600160401b038211176200006d57604052565b62000035565b906200008a6200008260405190565b92836200004b565b565b6001600160a01b031690565b90565b6001600160a01b038116036200003057565b905051906200008a826200009b565b9060208282031262000030576200009891620000ad565b62000098620012ee80380380620000ea8162000073565b928339810190620000bc565b90600019905b9181191691161790565b6200009862000098620000989290565b906200012a62000098620001329262000106565b8254620000f6565b9055565b62000098906200008c906001600160a01b031682565b620000989062000136565b62000098906200014c565b906001600160a01b0390620000fc565b906200018662000098620001329262000157565b825462000162565b620001aa6200008a91620001a460008062000116565b62000157565b60096200017256fe6080604052600436101561001257600080fd5b60003560e01c8063013cf08b146101025780630d68eb9e146100fd5780630faccaf1146100f857806310ba5497146100f35780631b4613cb146100ee5780631c0d850e146100e95780632b7ac3f3146100e45780632c72fdfc146100df57806347c66140146100da5780637092d2c0146100d5578063a1d36ce7146100d0578063b18f0de2146100cb578063bba7055e146100c6578063ccbbd260146100c15763e85f857e0361011057610bf4565b610b79565b610abe565b610a91565b610a35565b610947565b6108da565b61085f565b610773565b6106e3565b6106b6565b610665565b610570565b610424565b61035d565b805b0361011057565b600080fd5b9050359061012282610107565b565b906020828203126101105761013891610115565b90565b6101386101386101389290565b906101529061013b565b600052602052604060002090565b634e487b7160e01b600052602260045260246000fd5b9060016002830492168015610196575b602083101461019157565b610160565b91607f1691610186565b805460009392916101bd6101b383610176565b8085529360200190565b916001811690811561020f57506001146101d657505050565b6101e99192939450600052602060002090565b916000925b8184106101fb5750500190565b8054848401526020909301926001016101ee565b92949550505060ff1916825215156020020190565b90610138916101a0565b634e487b7160e01b600052604160045260246000fd5b90601f01601f191681019081106001600160401b0382111761026557604052565b61022e565b906101226102849261027b60405190565b93848092610224565b0383610244565b6101389081565b610138905461028b565b6102a7906003610148565b6102b08161026a565b9161013860026102c26001850161026a565b9301610292565b60005b8381106102dc5750506000910152565b81810151838201526020016102cc565b61030d61031660209361032093610301815190565b80835293849260200190565b958691016102c9565b601f01601f191690565b0190565b9052565b9392906103586101229361034a604093606089019089820360008b01526102ec565b9087820360208901526102ec565b940152565b3461011057610387610378610373366004610124565b61029c565b60405191939193849384610328565b0390f35b919060408382031261011057610138906103a58185610115565b93602001610115565b634e487b7160e01b600052603260045260246000fd5b60028210156103da576001905b91020190600090565b6103ae565b610138916008021c81565b9061013891546103df565b610403600491600092610148565b90600283101561042157506101389161041b916103c4565b906103ea565b80fd5b346101105761038761044061043a36600461038b565b906103f5565b6040519182918290815260200190565b9061012261045d60405190565b9283610244565b6001600160401b03811161026557602090601f01601f19160190565b90826000939282370152565b909291926104a161049c82610464565b610450565b938185526020850190828401116101105761012292610480565b9080601f83011215610110578160206101389335910161048c565b919091606081840312610110576104ed6060610450565b9281356001600160401b038111610110578161050a9184016104bb565b84526020820135906001600160401b0382116101105761052f8161053e9385016104bb565b60208601526040809301610115565b90830152565b9190604083820312610110578235906001600160401b038211610110576103a5816101389386016104d6565b3461011057610387610440610586366004610544565b90610d92565b6001600160a01b031690565b6001600160a01b038116610109565b9050359061012282610598565b919091608081840312610110576105cb6080610450565b9281356001600160401b03811161011057816105e89184016104bb565b845260208201356001600160401b03811161011057816106099184016104bb565b60208501526040820135906001600160401b038211610110576106318161053e9385016104bb565b604086015260608093016105a7565b906020828203126101105781356001600160401b0381116101105761013892016105b4565b346101105761038761044061067b366004610640565b610c29565b90610152565b610138916008021c60ff1690565b906101389154610686565b610138906106b1600891600092610680565b610694565b34610110576103876106d16106cc366004610124565b61069f565b60405191829182901515815260200190565b34610110576103876106d16106f9366004610124565b610e3f565b600091031261011057565b610138916008021c6001600160a01b031690565b906101389154610709565b6101386000600961071d565b6101389061058c906001600160a01b031682565b61013890610734565b61013890610748565b61032490610751565b602081019291610122919061075a565b34610110576107833660046106fe565b61038761078e610728565b60405191829182610763565b90610138906040806107d06107be60608501600088015186820360008801526102ec565b602087015185820360208701526102ec565b940151910152565b906101389161079a565b906107f86107ee835190565b8083529160200190565b908161080a6020830284019460200190565b926000915b83831061081e57505050505090565b9091929394602061084161083a838560019503875289516107d8565b9760200190565b930193019193929061080f565b6020808252610138929101906107e2565b346101105761038761087a610875366004610124565b611019565b6040519182918261084e565b61089661089260029390565b9190565b6000915b8383106108a75750505050565b6108c16108ba6001928451815260200190565b9260200190565b9201919061089a565b6040810192916101229190610886565b34610110576103876108f56108f0366004610124565b6110f6565b604051918291826108ca565b80548210156103da576103d1600191600052602060002090565b610929600591600092610148565b90610932825490565b83101561042157506101389161041b91610901565b346101105761038761044061095d36600461038b565b9061091b565b90610138906060806109ae61099c61098a60808601600089015187820360008901526102ec565b602088015186820360208801526102ec565b604087015185820360408701526102ec565b9401516001600160a01b0316910152565b9061013891610963565b906109d56107ee835190565b90816109e76020830284019460200190565b926000915b8383106109fb57505050505090565b90919293946020610a1761083a838560019503875289516109bf565b93019301919392906109ec565b6020808252610138929101906109c9565b3461011057610a453660046106fe565b610387610a50610d6b565b60405191829182610a24565b9060208282031261011057610138916105a7565b9061015290610751565b61013890610a8c600791600092610a70565b6103ea565b3461011057610387610440610aa7366004610a5c565b610a7a565b61013890610a8c600691600092610a70565b3461011057610387610440610ad4366004610a5c565b610aac565b6101389061058c565b6101389054610ad9565b610af7906002610148565b90610b018261026a565b91610b0e6001820161026a565b916101386003610b206002850161026a565b9301610ae2565b94939161012293610b5b610b6992610b4d60609560808b01908b820360008d01526102ec565b9089820360208b01526102ec565b9087820360408901526102ec565b9401906001600160a01b03169052565b3461011057610387610b94610b8f366004610124565b610aec565b90610ba194929460405190565b94859485610b27565b80548210156103da576103d1600491600052602060002090565b90600191600092610bd3815490565b821015610bf057610be5929350610baa565b5090610b018261026a565b8380fd5b3461011057610387610b94610c0a366004610124565b610bc4565b602080825261013892910190610963565b6101389061013b565b61013890610c55610c3960405190565b8092610c49602083019182610c0f565b90810382520382610244565b610c67610c60825190565b9160200190565b20610c20565b6001600160401b0381116102655760208091020190565b90610c9161049c83610c6d565b918252565b6101386080610450565b90610122610cf46003610cb1610c96565b94610cc2610cbe8261026a565b8752565b610cd8610cd16001830161026a565b6020880152565b610cee610ce76002830161026a565b6040880152565b01610ae2565b6001600160a01b03166060840152565b61013890610ca0565b90610d16825490565b610d1f81610c84565b92610d336020850191600052602060002090565b6000915b838310610d445750505050565b60046020600192610d5485610d04565b815201920192019190610d37565b61013890610d0d565b6101386001610d62565b92916020610358610122936040870190878203600089015261079a565b610c5561013892610c4992610da5600090565b50604051938492602084019283610d75565b610dc361089260029390565b6000915b838310610dd45750505050565b610df5610dee600192610de685610292565b815260200190565b9260010190565b92019190610dc7565b9061032081604093610db7565b9061012261028492610e1c60405190565b93848092610dfe565b61013890610e0b565b9060028110156103da576020020190565b610e56610e5b91610e4e600090565b506004610148565b610e25565b610e92610892610138610e7d610e81610e7d610e77600161013b565b87610e2e565b5190565b94610e8c600061013b565b90610e2e565b1190565b90610ebb610eaf610ea5845490565b8084529260200190565b92600052602060002090565b9060005b818110610ecc5750505090565b909192610ee8610ee1600192610de687610292565b9460010190565b929101610ebf565b9061013891610e96565b9061012261028492610f0b60405190565b93848092610ef0565b61013890610efa565b6101386060610450565b610f2f610f1d565b606080825260208201526000604082015290565b610138610f27565b60005b828110610f5a57505050565b602090610f65610f43565b8184015201610f4e565b90610122610f85610f7f84610c84565b93610c6d565b601f190160208401610f4b565b634e487b7160e01b600052601160045260246000fd5b6000198114610fb75760010190565b610f92565b90610fc5825190565b8110156103da576020809102010190565b906101226110096002610fe7610f1d565b94610ff4610cbe8261026a565b611003610cd16001830161026a565b01610292565b6040840152565b61013890610fd6565b61103061103591611028606090565b506005610148565b610f14565b611045611040825190565b610f6f565b90611050600061013b565b61105b610138835190565b8110156110a6576110a190611086611081600361107b610e7d8588610fbc565b90610148565b611010565b6110908286610fbc565b5261109b8185610fbc565b50610fa8565b611050565b505090565b6001600160401b0381116102655760200290565b61049c610138916110ab565b369037565b906101226110e66110e0846110bf565b936110ab565b836110cb565b61013860026110d0565b610e5661013891610e4e6110ec56fea2646970667358221220751f54c0a08e1c65df1bf6b053c4306909cd7164cabe27f4922cb3506b644e3f64736f6c63430008140033","opcodes":"PUSH1 0x80 PUSH1 0x40 MSTORE CALLVALUE PUSH3 0x30 JUMPI PUSH3 0x1E PUSH3 0x18 PUSH3 0xD3 JUMP JUMPDEST PUSH3 0x18E JUMP JUMPDEST PUSH1 0x40 MLOAD PUSH2 0x113B PUSH3 0x1B3 DUP3 CODECOPY PUSH2 0x113B SWAP1 RETURN JUMPDEST PUSH1 0x0 DUP1 REVERT JUMPDEST PUSH4 0x4E487B71 PUSH1 0xE0 SHL PUSH1 0x0 MSTORE PUSH1 0x41 PUSH1 0x4 MSTORE PUSH1 0x24 PUSH1 0x0 REVERT JUMPDEST SWAP1 PUSH1 0x1F ADD PUSH1 0x1F NOT AND DUP2 ADD SWAP1 DUP2 LT PUSH1 0x1 PUSH1 0x1 PUSH1 0x40 SHL SUB DUP3 GT OR PUSH3 0x6D JUMPI PUSH1 0x40 MSTORE JUMP JUMPDEST PUSH3 0x35 JUMP JUMPDEST SWAP1 PUSH3 0x8A PUSH3 0x82 PUSH1 0x40 MLOAD SWAP1 JUMP JUMPDEST SWAP3 DUP4 PUSH3 0x4B JUMP JUMPDEST JUMP JUMPDEST PUSH1 0x1 PUSH1 0x1 PUSH1 0xA0 SHL SUB AND SWAP1 JUMP JUMPDEST SWAP1 JUMP JUMPDEST PUSH1 0x1 PUSH1 0x1 PUSH1 0xA0 SHL SUB DUP2 AND SUB PUSH3 0x30 JUMPI JUMP JUMPDEST SWAP1 POP MLOAD SWAP1 PUSH3 0x8A DUP3 PUSH3 0x9B JUMP JUMPDEST SWAP1 PUSH1 0x20 DUP3 DUP3 SUB SLT PUSH3 0x30 JUMPI PUSH3 0x98 SWAP2 PUSH3 0xAD JUMP JUMPDEST PUSH3 0x98 PUSH3 0x12EE DUP1 CODESIZE SUB DUP1 PUSH3 0xEA DUP2 PUSH3 0x73 JUMP JUMPDEST SWAP3 DUP4 CODECOPY DUP2 ADD SWAP1 PUSH3 0xBC JUMP JUMPDEST SWAP1 PUSH1 0x0 NOT SWAP1 JUMPDEST SWAP2 DUP2 NOT AND SWAP2 AND OR SWAP1 JUMP JUMPDEST PUSH3 0x98 PUSH3 0x98 PUSH3 0x98 SWAP3 SWAP1 JUMP JUMPDEST SWAP1 PUSH3 0x12A PUSH3 0x98 PUSH3 0x132 SWAP3 PUSH3 0x106 JUMP JUMPDEST DUP3 SLOAD PUSH3 0xF6 JUMP JUMPDEST SWAP1 SSTORE JUMP JUMPDEST PUSH3 0x98 SWAP1 PUSH3 0x8C SWAP1 PUSH1 0x1 PUSH1 0x1 PUSH1 0xA0 SHL SUB AND DUP3 JUMP JUMPDEST PUSH3 0x98 SWAP1 PUSH3 0x136 JUMP JUMPDEST PUSH3 0x98 SWAP1 PUSH3 0x14C JUMP JUMPDEST SWAP1 PUSH1 0x1 PUSH1 0x1 PUSH1 0xA0 SHL SUB SWAP1 PUSH3 0xFC JUMP JUMPDEST SWAP1 PUSH3 0x186 PUSH3 0x98 PUSH3 0x132 SWAP3 PUSH3 0x157 JUMP JUMPDEST DUP3 SLOAD PUSH3 0x162 JUMP JUMPDEST PUSH3 0x1AA PUSH3 0x8A SWAP2 PUSH3 0x1A4 PUSH1 0x0 DUP1 PUSH3 0x116 JUMP JUMPDEST PUSH3 0x157 JUMP JUMPDEST PUSH1 0x9 PUSH3 0x172 JUMP INVALID PUSH1 0x80 PUSH1 0x40 MSTORE PUSH1 0x4 CALLDATASIZE LT ISZERO PUSH2 0x12 JUMPI PUSH1 0x0 DUP1 REVERT JUMPDEST PUSH1 0x0 CALLDATALOAD PUSH1 0xE0 SHR DUP1 PUSH4 0x13CF08B EQ PUSH2 0x102 JUMPI DUP1 PUSH4 0xD68EB9E EQ PUSH2 0xFD JUMPI DUP1 PUSH4 0xFACCAF1 EQ PUSH2 0xF8 JUMPI DUP1 PUSH4 0x10BA5497 EQ PUSH2 0xF3 JUMPI DUP1 PUSH4 0x1B4613CB EQ PUSH2 0xEE JUMPI DUP1 PUSH4 0x1C0D850E EQ PUSH2 0xE9 JUMPI DUP1 PUSH4 0x2B7AC3F3 EQ PUSH2 0xE4 JUMPI DUP1 PUSH4 0x2C72FDFC EQ PUSH2 0xDF JUMPI DUP1 PUSH4 0x47C66140 EQ PUSH2 0xDA JUMPI DUP1 PUSH4 0x7092D2C0 EQ PUSH2 0xD5 JUMPI DUP1 PUSH4 0xA1D36CE7 EQ PUSH2 0xD0 JUMPI DUP1 PUSH4 0xB18F0DE2 EQ PUSH2 0xCB JUMPI DUP1 PUSH4 0xBBA7055E EQ PUSH2 0xC6 JUMPI DUP1 PUSH4 0xCCBBD260 EQ PUSH2 0xC1 JUMPI PUSH4 0xE85F857E SUB PUSH2 0x110 JUMPI PUSH2 0xBF4 JUMP JUMPDEST PUSH2 0xB79 JUMP JUMPDEST PUSH2 0xABE JUMP JUMPDEST PUSH2 0xA91 JUMP JUMPDEST PUSH2 0xA35 JUMP JUMPDEST PUSH2 0x947 JUMP JUMPDEST PUSH2 0x8DA JUMP JUMPDEST PUSH2 0x85F JUMP JUMPDEST PUSH2 0x773 JUMP JUMPDEST PUSH2 0x6E3 JUMP JUMPDEST PUSH2 0x6B6 JUMP JUMPDEST PUSH2 0x665 JUMP JUMPDEST PUSH2 0x570 JUMP JUMPDEST PUSH2 0x424 JUMP JUMPDEST PUSH2 0x35D JUMP JUMPDEST DUP1 JUMPDEST SUB PUSH2 0x110 JUMPI JUMP JUMPDEST PUSH1 0x0 DUP1 REVERT JUMPDEST SWAP1 POP CALLDATALOAD SWAP1 PUSH2 0x122 DUP3 PUSH2 0x107 JUMP JUMPDEST JUMP JUMPDEST SWAP1 PUSH1 0x20 DUP3 DUP3 SUB SLT PUSH2 0x110 JUMPI PUSH2 0x138 SWAP2 PUSH2 0x115 JUMP JUMPDEST SWAP1 JUMP JUMPDEST PUSH2 0x138 PUSH2 0x138 PUSH2 0x138 SWAP3 SWAP1 JUMP JUMPDEST SWAP1 PUSH2 0x152 SWAP1 PUSH2 0x13B JUMP JUMPDEST PUSH1 0x0 MSTORE PUSH1 0x20 MSTORE PUSH1 0x40 PUSH1 0x0 KECCAK256 SWAP1 JUMP JUMPDEST PUSH4 0x4E487B71 PUSH1 0xE0 SHL PUSH1 0x0 MSTORE PUSH1 0x22 PUSH1 0x4 MSTORE PUSH1 0x24 PUSH1 0x0 REVERT JUMPDEST SWAP1 PUSH1 0x1 PUSH1 0x2 DUP4 DIV SWAP3 AND DUP1 ISZERO PUSH2 0x196 JUMPI JUMPDEST PUSH1 0x20 DUP4 LT EQ PUSH2 0x191 JUMPI JUMP JUMPDEST PUSH2 0x160 JUMP JUMPDEST SWAP2 PUSH1 0x7F AND SWAP2 PUSH2 0x186 JUMP JUMPDEST DUP1 SLOAD PUSH1 0x0 SWAP4 SWAP3 SWAP2 PUSH2 0x1BD PUSH2 0x1B3 DUP4 PUSH2 0x176 JUMP JUMPDEST DUP1 DUP6 MSTORE SWAP4 PUSH1 0x20 ADD SWAP1 JUMP JUMPDEST SWAP2 PUSH1 0x1 DUP2 AND SWAP1 DUP2 ISZERO PUSH2 0x20F JUMPI POP PUSH1 0x1 EQ PUSH2 0x1D6 JUMPI POP POP POP JUMP JUMPDEST PUSH2 0x1E9 SWAP2 SWAP3 SWAP4 SWAP5 POP PUSH1 0x0 MSTORE PUSH1 0x20 PUSH1 0x0 KECCAK256 SWAP1 JUMP JUMPDEST SWAP2 PUSH1 0x0 SWAP3 JUMPDEST DUP2 DUP5 LT PUSH2 0x1FB JUMPI POP POP ADD SWAP1 JUMP JUMPDEST DUP1 SLOAD DUP5 DUP5 ADD MSTORE PUSH1 0x20 SWAP1 SWAP4 ADD SWAP3 PUSH1 0x1 ADD PUSH2 0x1EE JUMP JUMPDEST SWAP3 SWAP5 SWAP6 POP POP POP PUSH1 0xFF NOT AND DUP3 MSTORE ISZERO ISZERO PUSH1 0x20 MUL ADD SWAP1 JUMP JUMPDEST SWAP1 PUSH2 0x138 SWAP2 PUSH2 0x1A0 JUMP JUMPDEST PUSH4 0x4E487B71 PUSH1 0xE0 SHL PUSH1 0x0 MSTORE PUSH1 0x41 PUSH1 0x4 MSTORE PUSH1 0x24 PUSH1 0x0 REVERT JUMPDEST SWAP1 PUSH1 0x1F ADD PUSH1 0x1F NOT AND DUP2 ADD SWAP1 DUP2 LT PUSH1 0x1 PUSH1 0x1 PUSH1 0x40 SHL SUB DUP3 GT OR PUSH2 0x265 JUMPI PUSH1 0x40 MSTORE JUMP JUMPDEST PUSH2 0x22E JUMP JUMPDEST SWAP1 PUSH2 0x122 PUSH2 0x284 SWAP3 PUSH2 0x27B PUSH1 0x40 MLOAD SWAP1 JUMP JUMPDEST SWAP4 DUP5 DUP1 SWAP3 PUSH2 0x224 JUMP JUMPDEST SUB DUP4 PUSH2 0x244 JUMP JUMPDEST PUSH2 0x138 SWAP1 DUP2 JUMP JUMPDEST PUSH2 0x138 SWAP1 SLOAD PUSH2 0x28B JUMP JUMPDEST PUSH2 0x2A7 SWAP1 PUSH1 0x3 PUSH2 0x148 JUMP JUMPDEST PUSH2 0x2B0 DUP2 PUSH2 0x26A JUMP JUMPDEST SWAP2 PUSH2 0x138 PUSH1 0x2 PUSH2 0x2C2 PUSH1 0x1 DUP6 ADD PUSH2 0x26A JUMP JUMPDEST SWAP4 ADD PUSH2 0x292 JUMP JUMPDEST PUSH1 0x0 JUMPDEST DUP4 DUP2 LT PUSH2 0x2DC JUMPI POP POP PUSH1 0x0 SWAP2 ADD MSTORE JUMP JUMPDEST DUP2 DUP2 ADD MLOAD DUP4 DUP3 ADD MSTORE PUSH1 0x20 ADD PUSH2 0x2CC JUMP JUMPDEST PUSH2 0x30D PUSH2 0x316 PUSH1 0x20 SWAP4 PUSH2 0x320 SWAP4 PUSH2 0x301 DUP2 MLOAD SWAP1 JUMP JUMPDEST DUP1 DUP4 MSTORE SWAP4 DUP5 SWAP3 PUSH1 0x20 ADD SWAP1 JUMP JUMPDEST SWAP6 DUP7 SWAP2 ADD PUSH2 0x2C9 JUMP JUMPDEST PUSH1 0x1F ADD PUSH1 0x1F NOT AND SWAP1 JUMP JUMPDEST ADD SWAP1 JUMP JUMPDEST SWAP1 MSTORE JUMP JUMPDEST SWAP4 SWAP3 SWAP1 PUSH2 0x358 PUSH2 0x122 SWAP4 PUSH2 0x34A PUSH1 0x40 SWAP4 PUSH1 0x60 DUP10 ADD SWAP1 DUP10 DUP3 SUB PUSH1 0x0 DUP12 ADD MSTORE PUSH2 0x2EC JUMP JUMPDEST SWAP1 DUP8 DUP3 SUB PUSH1 0x20 DUP10 ADD MSTORE PUSH2 0x2EC JUMP JUMPDEST SWAP5 ADD MSTORE JUMP JUMPDEST CALLVALUE PUSH2 0x110 JUMPI PUSH2 0x387 PUSH2 0x378 PUSH2 0x373 CALLDATASIZE PUSH1 0x4 PUSH2 0x124 JUMP JUMPDEST PUSH2 0x29C JUMP JUMPDEST PUSH1 0x40 MLOAD SWAP2 SWAP4 SWAP2 SWAP4 DUP5 SWAP4 DUP5 PUSH2 0x328 JUMP JUMPDEST SUB SWAP1 RETURN JUMPDEST SWAP2 SWAP1 PUSH1 0x40 DUP4 DUP3 SUB SLT PUSH2 0x110 JUMPI PUSH2 0x138 SWAP1 PUSH2 0x3A5 DUP2 DUP6 PUSH2 0x115 JUMP JUMPDEST SWAP4 PUSH1 0x20 ADD PUSH2 0x115 JUMP JUMPDEST PUSH4 0x4E487B71 PUSH1 0xE0 SHL PUSH1 0x0 MSTORE PUSH1 0x32 PUSH1 0x4 MSTORE PUSH1 0x24 PUSH1 0x0 REVERT JUMPDEST PUSH1 0x2 DUP3 LT ISZERO PUSH2 0x3DA JUMPI PUSH1 0x1 SWAP1 JUMPDEST SWAP2 MUL ADD SWAP1 PUSH1 0x0 SWAP1 JUMP JUMPDEST PUSH2 0x3AE JUMP JUMPDEST PUSH2 0x138 SWAP2 PUSH1 0x8 MUL SHR DUP2 JUMP JUMPDEST SWAP1 PUSH2 0x138 SWAP2 SLOAD PUSH2 0x3DF JUMP JUMPDEST PUSH2 0x403 PUSH1 0x4 SWAP2 PUSH1 0x0 SWAP3 PUSH2 0x148 JUMP JUMPDEST SWAP1 PUSH1 0x2 DUP4 LT ISZERO PUSH2 0x421 JUMPI POP PUSH2 0x138 SWAP2 PUSH2 0x41B SWAP2 PUSH2 0x3C4 JUMP JUMPDEST SWAP1 PUSH2 0x3EA JUMP JUMPDEST DUP1 REVERT JUMPDEST CALLVALUE PUSH2 0x110 JUMPI PUSH2 0x387 PUSH2 0x440 PUSH2 0x43A CALLDATASIZE PUSH1 0x4 PUSH2 0x38B JUMP JUMPDEST SWAP1 PUSH2 0x3F5 JUMP JUMPDEST PUSH1 0x40 MLOAD SWAP2 DUP3 SWAP2 DUP3 SWAP1 DUP2 MSTORE PUSH1 0x20 ADD SWAP1 JUMP JUMPDEST SWAP1 PUSH2 0x122 PUSH2 0x45D PUSH1 0x40 MLOAD SWAP1 JUMP JUMPDEST SWAP3 DUP4 PUSH2 0x244 JUMP JUMPDEST PUSH1 0x1 PUSH1 0x1 PUSH1 0x40 SHL SUB DUP2 GT PUSH2 0x265 JUMPI PUSH1 0x20 SWAP1 PUSH1 0x1F ADD PUSH1 0x1F NOT AND ADD SWAP1 JUMP JUMPDEST SWAP1 DUP3 PUSH1 0x0 SWAP4 SWAP3 DUP3 CALLDATACOPY ADD MSTORE JUMP JUMPDEST SWAP1 SWAP3 SWAP2 SWAP3 PUSH2 0x4A1 PUSH2 0x49C DUP3 PUSH2 0x464 JUMP JUMPDEST PUSH2 0x450 JUMP JUMPDEST SWAP4 DUP2 DUP6 MSTORE PUSH1 0x20 DUP6 ADD SWAP1 DUP3 DUP5 ADD GT PUSH2 0x110 JUMPI PUSH2 0x122 SWAP3 PUSH2 0x480 JUMP JUMPDEST SWAP1 DUP1 PUSH1 0x1F DUP4 ADD SLT ISZERO PUSH2 0x110 JUMPI DUP2 PUSH1 0x20 PUSH2 0x138 SWAP4 CALLDATALOAD SWAP2 ADD PUSH2 0x48C JUMP JUMPDEST SWAP2 SWAP1 SWAP2 PUSH1 0x60 DUP2 DUP5 SUB SLT PUSH2 0x110 JUMPI PUSH2 0x4ED PUSH1 0x60 PUSH2 0x450 JUMP JUMPDEST SWAP3 DUP2 CALLDATALOAD PUSH1 0x1 PUSH1 0x1 PUSH1 0x40 SHL SUB DUP2 GT PUSH2 0x110 JUMPI DUP2 PUSH2 0x50A SWAP2 DUP5 ADD PUSH2 0x4BB JUMP JUMPDEST DUP5 MSTORE PUSH1 0x20 DUP3 ADD CALLDATALOAD SWAP1 PUSH1 0x1 PUSH1 0x1 PUSH1 0x40 SHL SUB DUP3 GT PUSH2 0x110 JUMPI PUSH2 0x52F DUP2 PUSH2 0x53E SWAP4 DUP6 ADD PUSH2 0x4BB JUMP JUMPDEST PUSH1 0x20 DUP7 ADD MSTORE PUSH1 0x40 DUP1 SWAP4 ADD PUSH2 0x115 JUMP JUMPDEST SWAP1 DUP4 ADD MSTORE JUMP JUMPDEST SWAP2 SWAP1 PUSH1 0x40 DUP4 DUP3 SUB SLT PUSH2 0x110 JUMPI DUP3 CALLDATALOAD SWAP1 PUSH1 0x1 PUSH1 0x1 PUSH1 0x40 SHL SUB DUP3 GT PUSH2 0x110 JUMPI PUSH2 0x3A5 DUP2 PUSH2 0x138 SWAP4 DUP7 ADD PUSH2 0x4D6 JUMP JUMPDEST CALLVALUE PUSH2 0x110 JUMPI PUSH2 0x387 PUSH2 0x440 PUSH2 0x586 CALLDATASIZE PUSH1 0x4 PUSH2 0x544 JUMP JUMPDEST SWAP1 PUSH2 0xD92 JUMP JUMPDEST PUSH1 0x1 PUSH1 0x1 PUSH1 0xA0 SHL SUB AND SWAP1 JUMP JUMPDEST PUSH1 0x1 PUSH1 0x1 PUSH1 0xA0 SHL SUB DUP2 AND PUSH2 0x109 JUMP JUMPDEST SWAP1 POP CALLDATALOAD SWAP1 PUSH2 0x122 DUP3 PUSH2 0x598 JUMP JUMPDEST SWAP2 SWAP1 SWAP2 PUSH1 0x80 DUP2 DUP5 SUB SLT PUSH2 0x110 JUMPI PUSH2 0x5CB PUSH1 0x80 PUSH2 0x450 JUMP JUMPDEST SWAP3 DUP2 CALLDATALOAD PUSH1 0x1 PUSH1 0x1 PUSH1 0x40 SHL SUB DUP2 GT PUSH2 0x110 JUMPI DUP2 PUSH2 0x5E8 SWAP2 DUP5 ADD PUSH2 0x4BB JUMP JUMPDEST DUP5 MSTORE PUSH1 0x20 DUP3 ADD CALLDATALOAD PUSH1 0x1 PUSH1 0x1 PUSH1 0x40 SHL SUB DUP2 GT PUSH2 0x110 JUMPI DUP2 PUSH2 0x609 SWAP2 DUP5 ADD PUSH2 0x4BB JUMP JUMPDEST PUSH1 0x20 DUP6 ADD MSTORE PUSH1 0x40 DUP3 ADD CALLDATALOAD SWAP1 PUSH1 0x1 PUSH1 0x1 PUSH1 0x40 SHL SUB DUP3 GT PUSH2 0x110 JUMPI PUSH2 0x631 DUP2 PUSH2 0x53E SWAP4 DUP6 ADD PUSH2 0x4BB JUMP JUMPDEST PUSH1 0x40 DUP7 ADD MSTORE PUSH1 0x60 DUP1 SWAP4 ADD PUSH2 0x5A7 JUMP JUMPDEST SWAP1 PUSH1 0x20 DUP3 DUP3 SUB SLT PUSH2 0x110 JUMPI DUP2 CALLDATALOAD PUSH1 0x1 PUSH1 0x1 PUSH1 0x40 SHL SUB DUP2 GT PUSH2 0x110 JUMPI PUSH2 0x138 SWAP3 ADD PUSH2 0x5B4 JUMP JUMPDEST CALLVALUE PUSH2 0x110 JUMPI PUSH2 0x387 PUSH2 0x440 PUSH2 0x67B CALLDATASIZE PUSH1 0x4 PUSH2 0x640 JUMP JUMPDEST PUSH2 0xC29 JUMP JUMPDEST SWAP1 PUSH2 0x152 JUMP JUMPDEST PUSH2 0x138 SWAP2 PUSH1 0x8 MUL SHR PUSH1 0xFF AND SWAP1 JUMP JUMPDEST SWAP1 PUSH2 0x138 SWAP2 SLOAD PUSH2 0x686 JUMP JUMPDEST PUSH2 0x138 SWAP1 PUSH2 0x6B1 PUSH1 0x8 SWAP2 PUSH1 0x0 SWAP3 PUSH2 0x680 JUMP JUMPDEST PUSH2 0x694 JUMP JUMPDEST CALLVALUE PUSH2 0x110 JUMPI PUSH2 0x387 PUSH2 0x6D1 PUSH2 0x6CC CALLDATASIZE PUSH1 0x4 PUSH2 0x124 JUMP JUMPDEST PUSH2 0x69F JUMP JUMPDEST PUSH1 0x40 MLOAD SWAP2 DUP3 SWAP2 DUP3 SWAP1 ISZERO ISZERO DUP2 MSTORE PUSH1 0x20 ADD SWAP1 JUMP JUMPDEST CALLVALUE PUSH2 0x110 JUMPI PUSH2 0x387 PUSH2 0x6D1 PUSH2 0x6F9 CALLDATASIZE PUSH1 0x4 PUSH2 0x124 JUMP JUMPDEST PUSH2 0xE3F JUMP JUMPDEST PUSH1 0x0 SWAP2 SUB SLT PUSH2 0x110 JUMPI JUMP JUMPDEST PUSH2 0x138 SWAP2 PUSH1 0x8 MUL SHR PUSH1 0x1 PUSH1 0x1 PUSH1 0xA0 SHL SUB AND SWAP1 JUMP JUMPDEST SWAP1 PUSH2 0x138 SWAP2 SLOAD PUSH2 0x709 JUMP JUMPDEST PUSH2 0x138 PUSH1 0x0 PUSH1 0x9 PUSH2 0x71D JUMP JUMPDEST PUSH2 0x138 SWAP1 PUSH2 0x58C SWAP1 PUSH1 0x1 PUSH1 0x1 PUSH1 0xA0 SHL SUB AND DUP3 JUMP JUMPDEST PUSH2 0x138 SWAP1 PUSH2 0x734 JUMP JUMPDEST PUSH2 0x138 SWAP1 PUSH2 0x748 JUMP JUMPDEST PUSH2 0x324 SWAP1 PUSH2 0x751 JUMP JUMPDEST PUSH1 0x20 DUP2 ADD SWAP3 SWAP2 PUSH2 0x122 SWAP2 SWAP1 PUSH2 0x75A JUMP JUMPDEST CALLVALUE PUSH2 0x110 JUMPI PUSH2 0x783 CALLDATASIZE PUSH1 0x4 PUSH2 0x6FE JUMP JUMPDEST PUSH2 0x387 PUSH2 0x78E PUSH2 0x728 JUMP JUMPDEST PUSH1 0x40 MLOAD SWAP2 DUP3 SWAP2 DUP3 PUSH2 0x763 JUMP JUMPDEST SWAP1 PUSH2 0x138 SWAP1 PUSH1 0x40 DUP1 PUSH2 0x7D0 PUSH2 0x7BE PUSH1 0x60 DUP6 ADD PUSH1 0x0 DUP9 ADD MLOAD DUP7 DUP3 SUB PUSH1 0x0 DUP9 ADD MSTORE PUSH2 0x2EC JUMP JUMPDEST PUSH1 0x20 DUP8 ADD MLOAD DUP6 DUP3 SUB PUSH1 0x20 DUP8 ADD MSTORE PUSH2 0x2EC JUMP JUMPDEST SWAP5 ADD MLOAD SWAP2 ADD MSTORE JUMP JUMPDEST SWAP1 PUSH2 0x138 SWAP2 PUSH2 0x79A JUMP JUMPDEST SWAP1 PUSH2 0x7F8 PUSH2 0x7EE DUP4 MLOAD SWAP1 JUMP JUMPDEST DUP1 DUP4 MSTORE SWAP2 PUSH1 0x20 ADD SWAP1 JUMP JUMPDEST SWAP1 DUP2 PUSH2 0x80A PUSH1 0x20 DUP4 MUL DUP5 ADD SWAP5 PUSH1 0x20 ADD SWAP1 JUMP JUMPDEST SWAP3 PUSH1 0x0 SWAP2 JUMPDEST DUP4 DUP4 LT PUSH2 0x81E JUMPI POP POP POP POP POP SWAP1 JUMP JUMPDEST SWAP1 SWAP2 SWAP3 SWAP4 SWAP5 PUSH1 0x20 PUSH2 0x841 PUSH2 0x83A DUP4 DUP6 PUSH1 0x1 SWAP6 SUB DUP8 MSTORE DUP10 MLOAD PUSH2 0x7D8 JUMP JUMPDEST SWAP8 PUSH1 0x20 ADD SWAP1 JUMP JUMPDEST SWAP4 ADD SWAP4 ADD SWAP2 SWAP4 SWAP3 SWAP1 PUSH2 0x80F JUMP JUMPDEST PUSH1 0x20 DUP1 DUP3 MSTORE PUSH2 0x138 SWAP3 SWAP2 ADD SWAP1 PUSH2 0x7E2 JUMP JUMPDEST CALLVALUE PUSH2 0x110 JUMPI PUSH2 0x387 PUSH2 0x87A PUSH2 0x875 CALLDATASIZE PUSH1 0x4 PUSH2 0x124 JUMP JUMPDEST PUSH2 0x1019 JUMP JUMPDEST PUSH1 0x40 MLOAD SWAP2 DUP3 SWAP2 DUP3 PUSH2 0x84E JUMP JUMPDEST PUSH2 0x896 PUSH2 0x892 PUSH1 0x2 SWAP4 SWAP1 JUMP JUMPDEST SWAP2 SWAP1 JUMP JUMPDEST PUSH1 0x0 SWAP2 JUMPDEST DUP4 DUP4 LT PUSH2 0x8A7 JUMPI POP POP POP POP JUMP JUMPDEST PUSH2 0x8C1 PUSH2 0x8BA PUSH1 0x1 SWAP3 DUP5 MLOAD DUP2 MSTORE PUSH1 0x20 ADD SWAP1 JUMP JUMPDEST SWAP3 PUSH1 0x20 ADD SWAP1 JUMP JUMPDEST SWAP3 ADD SWAP2 SWAP1 PUSH2 0x89A JUMP JUMPDEST PUSH1 0x40 DUP2 ADD SWAP3 SWAP2 PUSH2 0x122 SWAP2 SWAP1 PUSH2 0x886 JUMP JUMPDEST CALLVALUE PUSH2 0x110 JUMPI PUSH2 0x387 PUSH2 0x8F5 PUSH2 0x8F0 CALLDATASIZE PUSH1 0x4 PUSH2 0x124 JUMP JUMPDEST PUSH2 0x10F6 JUMP JUMPDEST PUSH1 0x40 MLOAD SWAP2 DUP3 SWAP2 DUP3 PUSH2 0x8CA JUMP JUMPDEST DUP1 SLOAD DUP3 LT ISZERO PUSH2 0x3DA JUMPI PUSH2 0x3D1 PUSH1 0x1 SWAP2 PUSH1 0x0 MSTORE PUSH1 0x20 PUSH1 0x0 KECCAK256 SWAP1 JUMP JUMPDEST PUSH2 0x929 PUSH1 0x5 SWAP2 PUSH1 0x0 SWAP3 PUSH2 0x148 JUMP JUMPDEST SWAP1 PUSH2 0x932 DUP3 SLOAD SWAP1 JUMP JUMPDEST DUP4 LT ISZERO PUSH2 0x421 JUMPI POP PUSH2 0x138 SWAP2 PUSH2 0x41B SWAP2 PUSH2 0x901 JUMP JUMPDEST CALLVALUE PUSH2 0x110 JUMPI PUSH2 0x387 PUSH2 0x440 PUSH2 0x95D CALLDATASIZE PUSH1 0x4 PUSH2 0x38B JUMP JUMPDEST SWAP1 PUSH2 0x91B JUMP JUMPDEST SWAP1 PUSH2 0x138 SWAP1 PUSH1 0x60 DUP1 PUSH2 0x9AE PUSH2 0x99C PUSH2 0x98A PUSH1 0x80 DUP7 ADD PUSH1 0x0 DUP10 ADD MLOAD DUP8 DUP3 SUB PUSH1 0x0 DUP10 ADD MSTORE PUSH2 0x2EC JUMP JUMPDEST PUSH1 0x20 DUP9 ADD MLOAD DUP7 DUP3 SUB PUSH1 0x20 DUP9 ADD MSTORE PUSH2 0x2EC JUMP JUMPDEST PUSH1 0x40 DUP8 ADD MLOAD DUP6 DUP3 SUB PUSH1 0x40 DUP8 ADD MSTORE PUSH2 0x2EC JUMP JUMPDEST SWAP5 ADD MLOAD PUSH1 0x1 PUSH1 0x1 PUSH1 0xA0 SHL SUB AND SWAP2 ADD MSTORE JUMP JUMPDEST SWAP1 PUSH2 0x138 SWAP2 PUSH2 0x963 JUMP JUMPDEST SWAP1 PUSH2 0x9D5 PUSH2 0x7EE DUP4 MLOAD SWAP1 JUMP JUMPDEST SWAP1 DUP2 PUSH2 0x9E7 PUSH1 0x20 DUP4 MUL DUP5 ADD SWAP5 PUSH1 0x20 ADD SWAP1 JUMP JUMPDEST SWAP3 PUSH1 0x0 SWAP2 JUMPDEST DUP4 DUP4 LT PUSH2 0x9FB JUMPI POP POP POP POP POP SWAP1 JUMP JUMPDEST SWAP1 SWAP2 SWAP3 SWAP4 SWAP5 PUSH1 0x20 PUSH2 0xA17 PUSH2 0x83A DUP4 DUP6 PUSH1 0x1 SWAP6 SUB DUP8 MSTORE DUP10 MLOAD PUSH2 0x9BF JUMP JUMPDEST SWAP4 ADD SWAP4 ADD SWAP2 SWAP4 SWAP3 SWAP1 PUSH2 0x9EC JUMP JUMPDEST PUSH1 0x20 DUP1 DUP3 MSTORE PUSH2 0x138 SWAP3 SWAP2 ADD SWAP1 PUSH2 0x9C9 JUMP JUMPDEST CALLVALUE PUSH2 0x110 JUMPI PUSH2 0xA45 CALLDATASIZE PUSH1 0x4 PUSH2 0x6FE JUMP JUMPDEST PUSH2 0x387 PUSH2 0xA50 PUSH2 0xD6B JUMP JUMPDEST PUSH1 0x40 MLOAD SWAP2 DUP3 SWAP2 DUP3 PUSH2 0xA24 JUMP JUMPDEST SWAP1 PUSH1 0x20 DUP3 DUP3 SUB SLT PUSH2 0x110 JUMPI PUSH2 0x138 SWAP2 PUSH2 0x5A7 JUMP JUMPDEST SWAP1 PUSH2 0x152 SWAP1 PUSH2 0x751 JUMP JUMPDEST PUSH2 0x138 SWAP1 PUSH2 0xA8C PUSH1 0x7 SWAP2 PUSH1 0x0 SWAP3 PUSH2 0xA70 JUMP JUMPDEST PUSH2 0x3EA JUMP JUMPDEST CALLVALUE PUSH2 0x110 JUMPI PUSH2 0x387 PUSH2 0x440 PUSH2 0xAA7 CALLDATASIZE PUSH1 0x4 PUSH2 0xA5C JUMP JUMPDEST PUSH2 0xA7A JUMP JUMPDEST PUSH2 0x138 SWAP1 PUSH2 0xA8C PUSH1 0x6 SWAP2 PUSH1 0x0 SWAP3 PUSH2 0xA70 JUMP JUMPDEST CALLVALUE PUSH2 0x110 JUMPI PUSH2 0x387 PUSH2 0x440 PUSH2 0xAD4 CALLDATASIZE PUSH1 0x4 PUSH2 0xA5C JUMP JUMPDEST PUSH2 0xAAC JUMP JUMPDEST PUSH2 0x138 SWAP1 PUSH2 0x58C JUMP JUMPDEST PUSH2 0x138 SWAP1 SLOAD PUSH2 0xAD9 JUMP JUMPDEST PUSH2 0xAF7 SWAP1 PUSH1 0x2 PUSH2 0x148 JUMP JUMPDEST SWAP1 PUSH2 0xB01 DUP3 PUSH2 0x26A JUMP JUMPDEST SWAP2 PUSH2 0xB0E PUSH1 0x1 DUP3 ADD PUSH2 0x26A JUMP JUMPDEST SWAP2 PUSH2 0x138 PUSH1 0x3 PUSH2 0xB20 PUSH1 0x2 DUP6 ADD PUSH2 0x26A JUMP JUMPDEST SWAP4 ADD PUSH2 0xAE2 JUMP JUMPDEST SWAP5 SWAP4 SWAP2 PUSH2 0x122 SWAP4 PUSH2 0xB5B PUSH2 0xB69 SWAP3 PUSH2 0xB4D PUSH1 0x60 SWAP6 PUSH1 0x80 DUP12 ADD SWAP1 DUP12 DUP3 SUB PUSH1 0x0 DUP14 ADD MSTORE PUSH2 0x2EC JUMP JUMPDEST SWAP1 DUP10 DUP3 SUB PUSH1 0x20 DUP12 ADD MSTORE PUSH2 0x2EC JUMP JUMPDEST SWAP1 DUP8 DUP3 SUB PUSH1 0x40 DUP10 ADD MSTORE PUSH2 0x2EC JUMP JUMPDEST SWAP5 ADD SWAP1 PUSH1 0x1 PUSH1 0x1 PUSH1 0xA0 SHL SUB AND SWAP1 MSTORE JUMP JUMPDEST CALLVALUE PUSH2 0x110 JUMPI PUSH2 0x387 PUSH2 0xB94 PUSH2 0xB8F CALLDATASIZE PUSH1 0x4 PUSH2 0x124 JUMP JUMPDEST PUSH2 0xAEC JUMP JUMPDEST SWAP1 PUSH2 0xBA1 SWAP5 SWAP3 SWAP5 PUSH1 0x40 MLOAD SWAP1 JUMP JUMPDEST SWAP5 DUP6 SWAP5 DUP6 PUSH2 0xB27 JUMP JUMPDEST DUP1 SLOAD DUP3 LT ISZERO PUSH2 0x3DA JUMPI PUSH2 0x3D1 PUSH1 0x4 SWAP2 PUSH1 0x0 MSTORE PUSH1 0x20 PUSH1 0x0 KECCAK256 SWAP1 JUMP JUMPDEST SWAP1 PUSH1 0x1 SWAP2 PUSH1 0x0 SWAP3 PUSH2 0xBD3 DUP2 SLOAD SWAP1 JUMP JUMPDEST DUP3 LT ISZERO PUSH2 0xBF0 JUMPI PUSH2 0xBE5 SWAP3 SWAP4 POP PUSH2 0xBAA JUMP JUMPDEST POP SWAP1 PUSH2 0xB01 DUP3 PUSH2 0x26A JUMP JUMPDEST DUP4 DUP1 REVERT JUMPDEST CALLVALUE PUSH2 0x110 JUMPI PUSH2 0x387 PUSH2 0xB94 PUSH2 0xC0A CALLDATASIZE PUSH1 0x4 PUSH2 0x124 JUMP JUMPDEST PUSH2 0xBC4 JUMP JUMPDEST PUSH1 0x20 DUP1 DUP3 MSTORE PUSH2 0x138 SWAP3 SWAP2 ADD SWAP1 PUSH2 0x963 JUMP JUMPDEST PUSH2 0x138 SWAP1 PUSH2 0x13B JUMP JUMPDEST PUSH2 0x138 SWAP1 PUSH2 0xC55 PUSH2 0xC39 PUSH1 0x40 MLOAD SWAP1 JUMP JUMPDEST DUP1 SWAP3 PUSH2 0xC49 PUSH1 0x20 DUP4 ADD SWAP2 DUP3 PUSH2 0xC0F JUMP JUMPDEST SWAP1 DUP2 SUB DUP3 MSTORE SUB DUP3 PUSH2 0x244 JUMP JUMPDEST PUSH2 0xC67 PUSH2 0xC60 DUP3 MLOAD SWAP1 JUMP JUMPDEST SWAP2 PUSH1 0x20 ADD SWAP1 JUMP JUMPDEST KECCAK256 PUSH2 0xC20 JUMP JUMPDEST PUSH1 0x1 PUSH1 0x1 PUSH1 0x40 SHL SUB DUP2 GT PUSH2 0x265 JUMPI PUSH1 0x20 DUP1 SWAP2 MUL ADD SWAP1 JUMP JUMPDEST SWAP1 PUSH2 0xC91 PUSH2 0x49C DUP4 PUSH2 0xC6D JUMP JUMPDEST SWAP2 DUP3 MSTORE JUMP JUMPDEST PUSH2 0x138 PUSH1 0x80 PUSH2 0x450 JUMP JUMPDEST SWAP1 PUSH2 0x122 PUSH2 0xCF4 PUSH1 0x3 PUSH2 0xCB1 PUSH2 0xC96 JUMP JUMPDEST SWAP5 PUSH2 0xCC2 PUSH2 0xCBE DUP3 PUSH2 0x26A JUMP JUMPDEST DUP8 MSTORE JUMP JUMPDEST PUSH2 0xCD8 PUSH2 0xCD1 PUSH1 0x1 DUP4 ADD PUSH2 0x26A JUMP JUMPDEST PUSH1 0x20 DUP9 ADD MSTORE JUMP JUMPDEST PUSH2 0xCEE PUSH2 0xCE7 PUSH1 0x2 DUP4 ADD PUSH2 0x26A JUMP JUMPDEST PUSH1 0x40 DUP9 ADD MSTORE JUMP JUMPDEST ADD PUSH2 0xAE2 JUMP JUMPDEST PUSH1 0x1 PUSH1 0x1 PUSH1 0xA0 SHL SUB AND PUSH1 0x60 DUP5 ADD MSTORE JUMP JUMPDEST PUSH2 0x138 SWAP1 PUSH2 0xCA0 JUMP JUMPDEST SWAP1 PUSH2 0xD16 DUP3 SLOAD SWAP1 JUMP JUMPDEST PUSH2 0xD1F DUP2 PUSH2 0xC84 JUMP JUMPDEST SWAP3 PUSH2 0xD33 PUSH1 0x20 DUP6 ADD SWAP2 PUSH1 0x0 MSTORE PUSH1 0x20 PUSH1 0x0 KECCAK256 SWAP1 JUMP JUMPDEST PUSH1 0x0 SWAP2 JUMPDEST DUP4 DUP4 LT PUSH2 0xD44 JUMPI POP POP POP POP JUMP JUMPDEST PUSH1 0x4 PUSH1 0x20 PUSH1 0x1 SWAP3 PUSH2 0xD54 DUP6 PUSH2 0xD04 JUMP JUMPDEST DUP2 MSTORE ADD SWAP3 ADD SWAP3 ADD SWAP2 SWAP1 PUSH2 0xD37 JUMP JUMPDEST PUSH2 0x138 SWAP1 PUSH2 0xD0D JUMP JUMPDEST PUSH2 0x138 PUSH1 0x1 PUSH2 0xD62 JUMP JUMPDEST SWAP3 SWAP2 PUSH1 0x20 PUSH2 0x358 PUSH2 0x122 SWAP4 PUSH1 0x40 DUP8 ADD SWAP1 DUP8 DUP3 SUB PUSH1 0x0 DUP10 ADD MSTORE PUSH2 0x79A JUMP JUMPDEST PUSH2 0xC55 PUSH2 0x138 SWAP3 PUSH2 0xC49 SWAP3 PUSH2 0xDA5 PUSH1 0x0 SWAP1 JUMP JUMPDEST POP PUSH1 0x40 MLOAD SWAP4 DUP5 SWAP3 PUSH1 0x20 DUP5 ADD SWAP3 DUP4 PUSH2 0xD75 JUMP JUMPDEST PUSH2 0xDC3 PUSH2 0x892 PUSH1 0x2 SWAP4 SWAP1 JUMP JUMPDEST PUSH1 0x0 SWAP2 JUMPDEST DUP4 DUP4 LT PUSH2 0xDD4 JUMPI POP POP POP POP JUMP JUMPDEST PUSH2 0xDF5 PUSH2 0xDEE PUSH1 0x1 SWAP3 PUSH2 0xDE6 DUP6 PUSH2 0x292 JUMP JUMPDEST DUP2 MSTORE PUSH1 0x20 ADD SWAP1 JUMP JUMPDEST SWAP3 PUSH1 0x1 ADD SWAP1 JUMP JUMPDEST SWAP3 ADD SWAP2 SWAP1 PUSH2 0xDC7 JUMP JUMPDEST SWAP1 PUSH2 0x320 DUP2 PUSH1 0x40 SWAP4 PUSH2 0xDB7 JUMP JUMPDEST SWAP1 PUSH2 0x122 PUSH2 0x284 SWAP3 PUSH2 0xE1C PUSH1 0x40 MLOAD SWAP1 JUMP JUMPDEST SWAP4 DUP5 DUP1 SWAP3 PUSH2 0xDFE JUMP JUMPDEST PUSH2 0x138 SWAP1 PUSH2 0xE0B JUMP JUMPDEST SWAP1 PUSH1 0x2 DUP2 LT ISZERO PUSH2 0x3DA JUMPI PUSH1 0x20 MUL ADD SWAP1 JUMP JUMPDEST PUSH2 0xE56 PUSH2 0xE5B SWAP2 PUSH2 0xE4E PUSH1 0x0 SWAP1 JUMP JUMPDEST POP PUSH1 0x4 PUSH2 0x148 JUMP JUMPDEST PUSH2 0xE25 JUMP JUMPDEST PUSH2 0xE92 PUSH2 0x892 PUSH2 0x138 PUSH2 0xE7D PUSH2 0xE81 PUSH2 0xE7D PUSH2 0xE77 PUSH1 0x1 PUSH2 0x13B JUMP JUMPDEST DUP8 PUSH2 0xE2E JUMP JUMPDEST MLOAD SWAP1 JUMP JUMPDEST SWAP5 PUSH2 0xE8C PUSH1 0x0 PUSH2 0x13B JUMP JUMPDEST SWAP1 PUSH2 0xE2E JUMP JUMPDEST GT SWAP1 JUMP JUMPDEST SWAP1 PUSH2 0xEBB PUSH2 0xEAF PUSH2 0xEA5 DUP5 SLOAD SWAP1 JUMP JUMPDEST DUP1 DUP5 MSTORE SWAP3 PUSH1 0x20 ADD SWAP1 JUMP JUMPDEST SWAP3 PUSH1 0x0 MSTORE PUSH1 0x20 PUSH1 0x0 KECCAK256 SWAP1 JUMP JUMPDEST SWAP1 PUSH1 0x0 JUMPDEST DUP2 DUP2 LT PUSH2 0xECC JUMPI POP POP POP SWAP1 JUMP JUMPDEST SWAP1 SWAP2 SWAP3 PUSH2 0xEE8 PUSH2 0xEE1 PUSH1 0x1 SWAP3 PUSH2 0xDE6 DUP8 PUSH2 0x292 JUMP JUMPDEST SWAP5 PUSH1 0x1 ADD SWAP1 JUMP JUMPDEST SWAP3 SWAP2 ADD PUSH2 0xEBF JUMP JUMPDEST SWAP1 PUSH2 0x138 SWAP2 PUSH2 0xE96 JUMP JUMPDEST SWAP1 PUSH2 0x122 PUSH2 0x284 SWAP3 PUSH2 0xF0B PUSH1 0x40 MLOAD SWAP1 JUMP JUMPDEST SWAP4 DUP5 DUP1 SWAP3 PUSH2 0xEF0 JUMP JUMPDEST PUSH2 0x138 SWAP1 PUSH2 0xEFA JUMP JUMPDEST PUSH2 0x138 PUSH1 0x60 PUSH2 0x450 JUMP JUMPDEST PUSH2 0xF2F PUSH2 0xF1D JUMP JUMPDEST PUSH1 0x60 DUP1 DUP3 MSTORE PUSH1 0x20 DUP3 ADD MSTORE PUSH1 0x0 PUSH1 0x40 DUP3 ADD MSTORE SWAP1 JUMP JUMPDEST PUSH2 0x138 PUSH2 0xF27 JUMP JUMPDEST PUSH1 0x0 JUMPDEST DUP3 DUP2 LT PUSH2 0xF5A JUMPI POP POP POP JUMP JUMPDEST PUSH1 0x20 SWAP1 PUSH2 0xF65 PUSH2 0xF43 JUMP JUMPDEST DUP2 DUP5 ADD MSTORE ADD PUSH2 0xF4E JUMP JUMPDEST SWAP1 PUSH2 0x122 PUSH2 0xF85 PUSH2 0xF7F DUP5 PUSH2 0xC84 JUMP JUMPDEST SWAP4 PUSH2 0xC6D JUMP JUMPDEST PUSH1 0x1F NOT ADD PUSH1 0x20 DUP5 ADD PUSH2 0xF4B JUMP JUMPDEST PUSH4 0x4E487B71 PUSH1 0xE0 SHL PUSH1 0x0 MSTORE PUSH1 0x11 PUSH1 0x4 MSTORE PUSH1 0x24 PUSH1 0x0 REVERT JUMPDEST PUSH1 0x0 NOT DUP2 EQ PUSH2 0xFB7 JUMPI PUSH1 0x1 ADD SWAP1 JUMP JUMPDEST PUSH2 0xF92 JUMP JUMPDEST SWAP1 PUSH2 0xFC5 DUP3 MLOAD SWAP1 JUMP JUMPDEST DUP2 LT ISZERO PUSH2 0x3DA JUMPI PUSH1 0x20 DUP1 SWAP2 MUL ADD ADD SWAP1 JUMP JUMPDEST SWAP1 PUSH2 0x122 PUSH2 0x1009 PUSH1 0x2 PUSH2 0xFE7 PUSH2 0xF1D JUMP JUMPDEST SWAP5 PUSH2 0xFF4 PUSH2 0xCBE DUP3 PUSH2 0x26A JUMP JUMPDEST PUSH2 0x1003 PUSH2 0xCD1 PUSH1 0x1 DUP4 ADD PUSH2 0x26A JUMP JUMPDEST ADD PUSH2 0x292 JUMP JUMPDEST PUSH1 0x40 DUP5 ADD MSTORE JUMP JUMPDEST PUSH2 0x138 SWAP1 PUSH2 0xFD6 JUMP JUMPDEST PUSH2 0x1030 PUSH2 0x1035 SWAP2 PUSH2 0x1028 PUSH1 0x60 SWAP1 JUMP JUMPDEST POP PUSH1 0x5 PUSH2 0x148 JUMP JUMPDEST PUSH2 0xF14 JUMP JUMPDEST PUSH2 0x1045 PUSH2 0x1040 DUP3 MLOAD SWAP1 JUMP JUMPDEST PUSH2 0xF6F JUMP JUMPDEST SWAP1 PUSH2 0x1050 PUSH1 0x0 PUSH2 0x13B JUMP JUMPDEST PUSH2 0x105B PUSH2 0x138 DUP4 MLOAD SWAP1 JUMP JUMPDEST DUP2 LT ISZERO PUSH2 0x10A6 JUMPI PUSH2 0x10A1 SWAP1 PUSH2 0x1086 PUSH2 0x1081 PUSH1 0x3 PUSH2 0x107B PUSH2 0xE7D DUP6 DUP9 PUSH2 0xFBC JUMP JUMPDEST SWAP1 PUSH2 0x148 JUMP JUMPDEST PUSH2 0x1010 JUMP JUMPDEST PUSH2 0x1090 DUP3 DUP7 PUSH2 0xFBC JUMP JUMPDEST MSTORE PUSH2 0x109B DUP2 DUP6 PUSH2 0xFBC JUMP JUMPDEST POP PUSH2 0xFA8 JUMP JUMPDEST PUSH2 0x1050 JUMP JUMPDEST POP POP SWAP1 JUMP JUMPDEST PUSH1 0x1 PUSH1 0x1 PUSH1 0x40 SHL SUB DUP2 GT PUSH2 0x265 JUMPI PUSH1 0x20 MUL SWAP1 JUMP JUMPDEST PUSH2 0x49C PUSH2 0x138 SWAP2 PUSH2 0x10AB JUMP JUMPDEST CALLDATASIZE SWAP1 CALLDATACOPY JUMP JUMPDEST SWAP1 PUSH2 0x122 PUSH2 0x10E6 PUSH2 0x10E0 DUP5 PUSH2 0x10BF JUMP JUMPDEST SWAP4 PUSH2 0x10AB JUMP JUMPDEST DUP4 PUSH2 0x10CB JUMP JUMPDEST PUSH2 0x138 PUSH1 0x2 PUSH2 0x10D0 JUMP JUMPDEST PUSH2 0xE56 PUSH2 0x138 SWAP2 PUSH2 0xE4E PUSH2 0x10EC JUMP INVALID LOG2 PUSH5 0x6970667358 0x22 SLT KECCAK256 PUSH22 0x1F54C0A08E1C65DF1BF6B053C4306909CD7164CABE27 DELEGATECALL SWAP3 0x2C 0xB3 POP PUSH12 0x644E3F64736F6C6343000814 STOP CALLER "},"methodIdentifiers":{"_deterministicDaoId((string,string,string,address))":"10ba5497","_deterministicProposalId((string,string,uint256),uint256)":"0faccaf1","allDaos(uint256)":"e85f857e","commitment(address)":"b18f0de2","daos(uint256)":"ccbbd260","getDaos()":"a1d36ce7","getProposalVotes(uint256)":"47c66140","getProposals(uint256)":"2c72fdfc","getVotingResult(uint256)":"1c0d850e","hasVoted(bytes32)":"1b4613cb","nullifiers(address)":"bba7055e","proposalVotes(uint256,uint256)":"0d68eb9e","proposals(uint256)":"013cf08b","proposalsByDao(uint256,uint256)":"7092d2c0","verifier()":"2b7ac3f3"}}}}}