{
  "_format": "hh-sol-artifact-1",
  "contractName": "AxelarExecutable",
  "sourceName": "@axelar-network/axelar-gmp-sdk-solidity/contracts/executable/AxelarExecutable.sol",
  "abi": [
    {
      "inputs": [
        {
          "internalType": "address",
          "name": "gateway_",
          "type": "address"
        }
      ],
      "stateMutability": "nonpayable",
      "type": "constructor"
    },
    {
      "inputs": [],
      "name": "InvalidAddress",
      "type": "error"
    },
    {
      "inputs": [],
      "name": "NotApprovedByGateway",
      "type": "error"
    },
    {
      "inputs": [
        {
          "internalType": "bytes32",
          "name": "commandId",
          "type": "bytes32"
        },
        {
          "internalType": "string",
          "name": "sourceChain",
          "type": "string"
        },
        {
          "internalType": "string",
          "name": "sourceAddress",
          "type": "string"
        },
        {
          "internalType": "bytes",
          "name": "payload",
          "type": "bytes"
        }
      ],
      "name": "execute",
      "outputs": [],
      "stateMutability": "nonpayable",
      "type": "function"
    },
    {
      "inputs": [
        {
          "internalType": "bytes32",
          "name": "commandId",
          "type": "bytes32"
        },
        {
          "internalType": "string",
          "name": "sourceChain",
          "type": "string"
        },
        {
          "internalType": "string",
          "name": "sourceAddress",
          "type": "string"
        },
        {
          "internalType": "bytes",
          "name": "payload",
          "type": "bytes"
        },
        {
          "internalType": "string",
          "name": "tokenSymbol",
          "type": "string"
        },
        {
          "internalType": "uint256",
          "name": "amount",
          "type": "uint256"
        }
      ],
      "name": "executeWithToken",
      "outputs": [],
      "stateMutability": "nonpayable",
      "type": "function"
    },
    {
      "inputs": [],
      "name": "gateway",
      "outputs": [
        {
          "internalType": "contract IAxelarGateway",
          "name": "",
          "type": "address"
        }
      ],
      "stateMutability": "view",
      "type": "function"
    }
  ],
  "bytecode": "0x60a060405234610040576100196100146100d8565b610132565b6040516105e561016f823960805181818160c401528181610428015261056301526105e590f35b600080fd5b634e487b7160e01b600052604160045260246000fd5b90601f01601f191681019081106001600160401b0382111761007c57604052565b610045565b9061009561008e60405190565b928361005b565b565b6001600160a01b031690565b90565b6001600160a01b0381160361004057565b90505190610095826100a6565b90602082820312610040576100a3916100b7565b6100a3610754803803806100eb81610081565b9283398101906100c4565b6100976100a36100a39290565b6100a3906100f6565b6100a390610097906001600160a01b031682565b6100a39061010c565b6100a390610120565b61013f6100976000610103565b6001600160a01b0382161461015c5761015790610129565b608052565b60405163e6c4247b60e01b8152600490fdfe6080604052600436101561001257600080fd5b60003560e01c8063116191b6146100425780631a98b2e01461003d5763491606580361005257610283565b6101dc565b6100ab565b600091031261005257565b600080fd5b61006b9061006e906001600160a01b031682565b90565b6001600160a01b031690565b61006b90610057565b61006b9061007a565b61009590610083565b9052565b6020810192916100a9919061008c565b565b34610052576100bb366004610047565b604051806100e97f000000000000000000000000000000000000000000000000000000000000000082610099565b0390f35b805b0361005257565b905035906100a9826100ed565b909182601f83011215610052578135916001600160401b03831161005257602001926001830284011161005257565b919060c0838203126100525761014881846100f6565b9260208101356001600160401b0381116100525782610168918301610103565b92909360408301356001600160401b038111610052578261018a918501610103565b92909360608101356001600160401b03811161005257826101ac918301610103565b92909360808301356001600160401b038111610052576101d18361006b928601610103565b93909460a0016100f6565b34610052576102016101ef366004610132565b98979097969196959295949394610534565b604051005b9190916080818403126100525761021d83826100f6565b9260208201356001600160401b038111610052578161023d918401610103565b92909360408201356001600160401b038111610052578361025f918401610103565b92909360608201356001600160401b0381116100525761027f9201610103565b9091565b3461005257610201610296366004610206565b959490949391936103f7565b634e487b7160e01b600052604160045260246000fd5b90601f01601f191681019081106001600160401b038211176102d957604052565b6102a2565b906100a96102eb60405190565b92836102b8565b6001600160401b0381116102d957602090601f01601f19160190565b0190565b90826000939282370152565b9092919261033361032e826102f2565b6102de565b93818552602085019082840111610052576100a992610312565b61006b91369161031e565b8015156100ef565b905051906100a982610358565b906020828203126100525761006b91610360565b919061039f816103988161030e9560209181520190565b8095610312565b601f01601f191690565b96959390946103d8886060956103e6956103cb6100a99a600060808601950152565b8b830360208d0152610381565b9188830360408a0152610381565b940152565b6040513d6000823e3d90fd5b93916104746104699361040f6000949960209961034d565b61042161041a825190565b9160200190565b209061044c7f0000000000000000000000000000000000000000000000000000000000000000610083565b96635f6970c39461045c60405190565b9b8c9a8b998a9860e01b90565b8852600488016103a9565b03925af180156104d25761048e916000916104a657501590565b61049457565b604051631403112d60e21b8152600490fd5b6104c7915060203d81116104cb575b6104bf81836102b8565b81019061036d565b1590565b503d6104b5565b6103eb565b9998969160a096946103e696610511610527946100a99c978f9561051f9661050460c08201946000830152565b6020818503910152610381565b8d810360408f015291610381565b9360608b0152565b88830360808a0152610381565b96976020986000956105516104749596996105a4999d959d61034d565b61055c61041a825190565b20906105877f0000000000000000000000000000000000000000000000000000000000000000610083565b99631876eed99761059760405190565b9e8f9d8e9c8d9b60e01b90565b8b5260048b016104d756fea26469706673582212207cf8276c1b5e1e285a2614b8978d49d62a6db6b4bac9cab1514ccdc60fee66f264736f6c63430008140033",
  "linkReferences": {},
  "deployedLinkReferences": {}
}