{
  "_format": "hh-sol-artifact-1",
  "contractName": "DataConsumer",
  "sourceName": "contracts/dao/DataConsumer.sol",
  "abi": [
    {
      "inputs": [],
      "stateMutability": "nonpayable",
      "type": "constructor"
    },
    {
      "inputs": [],
      "name": "getEtherDataFeedLatest",
      "outputs": [
        {
          "internalType": "int256",
          "name": "",
          "type": "int256"
        }
      ],
      "stateMutability": "view",
      "type": "function"
    },
    {
      "inputs": [],
      "name": "getMaticDataFeedLatest",
      "outputs": [
        {
          "internalType": "int256",
          "name": "",
          "type": "int256"
        }
      ],
      "stateMutability": "view",
      "type": "function"
    }
  ],
  "bytecode": "0x6080604052346100225761001161008c565b60405161026d6100dd823961026d90f35b600080fd5b61003b9061003e906001600160a01b031682565b90565b6001600160a01b031690565b61003b90610027565b61003b9061004a565b9061006c61003b61008892610053565b82546001600160a01b0319166001600160a01b03919091161790565b9055565b6100b36100ac730715a7794a1dc8e42615f059dd6e406a6594651a610053565b600061005c565b6100da6100d373d0d5e3db44de05e9f294bb0a3beeaf030de24ada610053565b600161005c565b56fe6080604052600436101561001257600080fd5b60003560e01c806380b5ceff1461003257638f52c443036100425761007d565b610052565b600091031261004257565b600080fd5b90815260200190565b565b3461004257610062366004610037565b61007961006d6101a6565b60405191829182610047565b0390f35b346100425761008d366004610037565b61007961006d610225565b6100a9905b6001600160a01b031690565b90565b6100a99054610098565b6100a99061009d906001600160a01b031682565b6100a9906100b6565b6100a9906100ca565b634e487b7160e01b600052604160045260246000fd5b90601f01601f1916810190811067ffffffffffffffff82111761011457604052565b6100dc565b69ffffffffffffffffffff81165b0361004257565b9050519061005082610119565b80610127565b905051906100508261013b565b919060a08382031261004257610164818461012e565b926101728260208301610141565b926100a96101838460408501610141565b936101918160608601610141565b9360800161012e565b6040513d6000823e3d90fd5b6101d560a06101bd6101b860006100ac565b6100d3565b63feaf968c906101cc60405190565b93849260e01b90565b825260049082905afa908115610220576000916101f0575090565b610211915060a03d8111610219575b61020981836100f2565b81019061014e565b505050905090565b503d6101ff565b61019a565b6101d560a06101bd6101b860016100ac56fea264697066735822122049b4487df5987f1b371c4381a6c34b8c32bcbe87290489129f9e76cb548b482264736f6c63430008140033",
  "linkReferences": {},
  "deployedLinkReferences": {}
}