{
  "_format": "hh-sol-artifact-1",
  "contractName": "CrosschainDAO",
  "sourceName": "contracts/dao/CrosschainDAO.sol",
  "abi": [
    {
      "inputs": [
        {
          "internalType": "address",
          "name": "_gateway",
          "type": "address"
        },
        {
          "internalType": "address",
          "name": "_gasService",
          "type": "address"
        },
        {
          "internalType": "address",
          "name": "_verifier",
          "type": "address"
        }
      ],
      "stateMutability": "nonpayable",
      "type": "constructor"
    },
    {
      "inputs": [],
      "name": "InvalidAddress",
      "type": "error"
    },
    {
      "inputs": [],
      "name": "NotApprovedByGateway",
      "type": "error"
    },
    {
      "inputs": [
        {
          "components": [
            {
              "internalType": "string",
              "name": "name",
              "type": "string"
            },
            {
              "internalType": "string",
              "name": "minInvestment",
              "type": "string"
            },
            {
              "internalType": "string",
              "name": "zkkyc",
              "type": "string"
            },
            {
              "internalType": "address",
              "name": "treasuryAddress",
              "type": "address"
            }
          ],
          "internalType": "struct dao_details",
          "name": "_dao",
          "type": "tuple"
        }
      ],
      "name": "_deterministicDaoId",
      "outputs": [
        {
          "internalType": "uint256",
          "name": "",
          "type": "uint256"
        }
      ],
      "stateMutability": "pure",
      "type": "function"
    },
    {
      "inputs": [
        {
          "components": [
            {
              "internalType": "string",
              "name": "name",
              "type": "string"
            },
            {
              "internalType": "string",
              "name": "description",
              "type": "string"
            },
            {
              "internalType": "uint256",
              "name": "votingEnd",
              "type": "uint256"
            }
          ],
          "internalType": "struct proposal",
          "name": "_proposal",
          "type": "tuple"
        },
        {
          "internalType": "uint256",
          "name": "daoId",
          "type": "uint256"
        }
      ],
      "name": "_deterministicProposalId",
      "outputs": [
        {
          "internalType": "uint256",
          "name": "",
          "type": "uint256"
        }
      ],
      "stateMutability": "pure",
      "type": "function"
    },
    {
      "inputs": [
        {
          "internalType": "uint256",
          "name": "",
          "type": "uint256"
        }
      ],
      "name": "allDaos",
      "outputs": [
        {
          "internalType": "string",
          "name": "name",
          "type": "string"
        },
        {
          "internalType": "string",
          "name": "minInvestment",
          "type": "string"
        },
        {
          "internalType": "string",
          "name": "zkkyc",
          "type": "string"
        },
        {
          "internalType": "address",
          "name": "treasuryAddress",
          "type": "address"
        }
      ],
      "stateMutability": "view",
      "type": "function"
    },
    {
      "inputs": [
        {
          "internalType": "string",
          "name": "destinationChain",
          "type": "string"
        },
        {
          "internalType": "string",
          "name": "destinationAddress",
          "type": "string"
        },
        {
          "internalType": "uint256",
          "name": "pid",
          "type": "uint256"
        },
        {
          "components": [
            {
              "internalType": "bytes",
              "name": "zkProof",
              "type": "bytes"
            },
            {
              "internalType": "bytes32[]",
              "name": "publicInputs",
              "type": "bytes32[]"
            },
            {
              "internalType": "bytes32",
              "name": "nullifierHash",
              "type": "bytes32"
            },
            {
              "internalType": "bytes32",
              "name": "voteCommitment",
              "type": "bytes32"
            }
          ],
          "internalType": "struct zkVoting",
          "name": "_zkVoting",
          "type": "tuple"
        }
      ],
      "name": "castVoteCrosschain",
      "outputs": [],
      "stateMutability": "payable",
      "type": "function"
    },
    {
      "inputs": [
        {
          "internalType": "address",
          "name": "",
          "type": "address"
        }
      ],
      "name": "commitment",
      "outputs": [
        {
          "internalType": "bytes32",
          "name": "",
          "type": "bytes32"
        }
      ],
      "stateMutability": "view",
      "type": "function"
    },
    {
      "inputs": [
        {
          "internalType": "string",
          "name": "destinationChain",
          "type": "string"
        },
        {
          "internalType": "string",
          "name": "destinationAddress",
          "type": "string"
        },
        {
          "components": [
            {
              "internalType": "string",
              "name": "name",
              "type": "string"
            },
            {
              "internalType": "string",
              "name": "minInvestment",
              "type": "string"
            },
            {
              "internalType": "string",
              "name": "zkkyc",
              "type": "string"
            },
            {
              "internalType": "address",
              "name": "treasuryAddress",
              "type": "address"
            }
          ],
          "internalType": "struct dao_details",
          "name": "_dao_details",
          "type": "tuple"
        }
      ],
      "name": "createCrosschainDao",
      "outputs": [],
      "stateMutability": "payable",
      "type": "function"
    },
    {
      "inputs": [
        {
          "components": [
            {
              "internalType": "string",
              "name": "name",
              "type": "string"
            },
            {
              "internalType": "string",
              "name": "description",
              "type": "string"
            },
            {
              "internalType": "uint256",
              "name": "votingEnd",
              "type": "uint256"
            }
          ],
          "internalType": "struct proposal",
          "name": "_proposal",
          "type": "tuple"
        },
        {
          "internalType": "uint256",
          "name": "daoId",
          "type": "uint256"
        }
      ],
      "name": "createProposal",
      "outputs": [],
      "stateMutability": "nonpayable",
      "type": "function"
    },
    {
      "inputs": [
        {
          "internalType": "uint256",
          "name": "",
          "type": "uint256"
        }
      ],
      "name": "daos",
      "outputs": [
        {
          "internalType": "string",
          "name": "name",
          "type": "string"
        },
        {
          "internalType": "string",
          "name": "minInvestment",
          "type": "string"
        },
        {
          "internalType": "string",
          "name": "zkkyc",
          "type": "string"
        },
        {
          "internalType": "address",
          "name": "treasuryAddress",
          "type": "address"
        }
      ],
      "stateMutability": "view",
      "type": "function"
    },
    {
      "inputs": [
        {
          "internalType": "bytes32",
          "name": "commandId",
          "type": "bytes32"
        },
        {
          "internalType": "string",
          "name": "sourceChain",
          "type": "string"
        },
        {
          "internalType": "string",
          "name": "sourceAddress",
          "type": "string"
        },
        {
          "internalType": "bytes",
          "name": "payload",
          "type": "bytes"
        }
      ],
      "name": "execute",
      "outputs": [],
      "stateMutability": "nonpayable",
      "type": "function"
    },
    {
      "inputs": [
        {
          "internalType": "bytes32",
          "name": "commandId",
          "type": "bytes32"
        },
        {
          "internalType": "string",
          "name": "sourceChain",
          "type": "string"
        },
        {
          "internalType": "string",
          "name": "sourceAddress",
          "type": "string"
        },
        {
          "internalType": "bytes",
          "name": "payload",
          "type": "bytes"
        },
        {
          "internalType": "string",
          "name": "tokenSymbol",
          "type": "string"
        },
        {
          "internalType": "uint256",
          "name": "amount",
          "type": "uint256"
        }
      ],
      "name": "executeWithToken",
      "outputs": [],
      "stateMutability": "nonpayable",
      "type": "function"
    },
    {
      "inputs": [],
      "name": "gasService",
      "outputs": [
        {
          "internalType": "contract IAxelarGasService",
          "name": "",
          "type": "address"
        }
      ],
      "stateMutability": "view",
      "type": "function"
    },
    {
      "inputs": [],
      "name": "gateway",
      "outputs": [
        {
          "internalType": "contract IAxelarGateway",
          "name": "",
          "type": "address"
        }
      ],
      "stateMutability": "view",
      "type": "function"
    },
    {
      "inputs": [],
      "name": "getDaos",
      "outputs": [
        {
          "components": [
            {
              "internalType": "string",
              "name": "name",
              "type": "string"
            },
            {
              "internalType": "string",
              "name": "minInvestment",
              "type": "string"
            },
            {
              "internalType": "string",
              "name": "zkkyc",
              "type": "string"
            },
            {
              "internalType": "address",
              "name": "treasuryAddress",
              "type": "address"
            }
          ],
          "internalType": "struct dao_details[]",
          "name": "",
          "type": "tuple[]"
        }
      ],
      "stateMutability": "view",
      "type": "function"
    },
    {
      "inputs": [
        {
          "internalType": "uint256",
          "name": "proposalId",
          "type": "uint256"
        }
      ],
      "name": "getProposalVotes",
      "outputs": [
        {
          "internalType": "uint256[2]",
          "name": "",
          "type": "uint256[2]"
        }
      ],
      "stateMutability": "view",
      "type": "function"
    },
    {
      "inputs": [
        {
          "internalType": "uint256",
          "name": "daoId",
          "type": "uint256"
        }
      ],
      "name": "getProposals",
      "outputs": [
        {
          "components": [
            {
              "internalType": "string",
              "name": "name",
              "type": "string"
            },
            {
              "internalType": "string",
              "name": "description",
              "type": "string"
            },
            {
              "internalType": "uint256",
              "name": "votingEnd",
              "type": "uint256"
            }
          ],
          "internalType": "struct proposal[]",
          "name": "",
          "type": "tuple[]"
        }
      ],
      "stateMutability": "view",
      "type": "function"
    },
    {
      "inputs": [
        {
          "internalType": "uint256",
          "name": "proposalId",
          "type": "uint256"
        }
      ],
      "name": "getVotingResult",
      "outputs": [
        {
          "internalType": "bool",
          "name": "",
          "type": "bool"
        }
      ],
      "stateMutability": "view",
      "type": "function"
    },
    {
      "inputs": [
        {
          "internalType": "bytes32",
          "name": "",
          "type": "bytes32"
        }
      ],
      "name": "hasVoted",
      "outputs": [
        {
          "internalType": "bool",
          "name": "",
          "type": "bool"
        }
      ],
      "stateMutability": "view",
      "type": "function"
    },
    {
      "inputs": [
        {
          "internalType": "address",
          "name": "",
          "type": "address"
        }
      ],
      "name": "nullifiers",
      "outputs": [
        {
          "internalType": "bytes32",
          "name": "",
          "type": "bytes32"
        }
      ],
      "stateMutability": "view",
      "type": "function"
    },
    {
      "inputs": [
        {
          "internalType": "uint256",
          "name": "",
          "type": "uint256"
        },
        {
          "internalType": "uint256",
          "name": "",
          "type": "uint256"
        }
      ],
      "name": "proposalVotes",
      "outputs": [
        {
          "internalType": "uint256",
          "name": "",
          "type": "uint256"
        }
      ],
      "stateMutability": "view",
      "type": "function"
    },
    {
      "inputs": [
        {
          "internalType": "uint256",
          "name": "",
          "type": "uint256"
        }
      ],
      "name": "proposals",
      "outputs": [
        {
          "internalType": "string",
          "name": "name",
          "type": "string"
        },
        {
          "internalType": "string",
          "name": "description",
          "type": "string"
        },
        {
          "internalType": "uint256",
          "name": "votingEnd",
          "type": "uint256"
        }
      ],
      "stateMutability": "view",
      "type": "function"
    },
    {
      "inputs": [
        {
          "internalType": "uint256",
          "name": "",
          "type": "uint256"
        },
        {
          "internalType": "uint256",
          "name": "",
          "type": "uint256"
        }
      ],
      "name": "proposalsByDao",
      "outputs": [
        {
          "internalType": "uint256",
          "name": "",
          "type": "uint256"
        }
      ],
      "stateMutability": "view",
      "type": "function"
    },
    {
      "inputs": [
        {
          "internalType": "string",
          "name": "destinationChain",
          "type": "string"
        },
        {
          "internalType": "string",
          "name": "destinationAddress",
          "type": "string"
        },
        {
          "internalType": "bytes32",
          "name": "hash",
          "type": "bytes32"
        },
        {
          "internalType": "uint256",
          "name": "pid",
          "type": "uint256"
        },
        {
          "internalType": "uint256",
          "name": "vote",
          "type": "uint256"
        }
      ],
      "name": "revealVoteCrosschain",
      "outputs": [],
      "stateMutability": "payable",
      "type": "function"
    },
    {
      "inputs": [],
      "name": "verifier",
      "outputs": [
        {
          "internalType": "contract VoteVerifier",
          "name": "",
          "type": "address"
        }
      ],
      "stateMutability": "view",
      "type": "function"
    }
  ],
  "bytecode": "0x60c0604052346200005f576200001f6200001862000122565b9162000176565b60405161263f62000290823960805181818161075f0152818161112a015281816112720152611588015260a051818181610c850152611506015261263f90f35b600080fd5b634e487b7160e01b600052604160045260246000fd5b90601f01601f191681019081106001600160401b038211176200009c57604052565b62000064565b90620000b9620000b160405190565b92836200007a565b565b6001600160a01b031690565b90565b6001600160a01b038116036200005f57565b90505190620000b982620000ca565b90916060828403126200005f57620000c7620001088484620000dc565b93620001188160208601620000dc565b93604001620000dc565b62000145620028cf803803806200013981620000a2565b928339810190620000eb565b909192565b620000c790620000bb906001600160a01b031682565b620000c7906200014a565b620000c79062000160565b6200018c926200018691620001ac565b6200016b565b60a052565b620000bb620000c7620000c79290565b620000c79062000191565b90620001b890620001fa565b620001c8620000bb6000620001a1565b6001600160a01b03821614620001e857620001e3906200016b565b608052565b60405163e6c4247b60e01b8152600490fd5b620000b99062000271565b90600019905b9181191691161790565b620000c7620000c7620000c79290565b9062000239620000c7620002419262000215565b825462000205565b9055565b906001600160a01b03906200020b565b9062000269620000c762000241926200016b565b825462000245565b62000287620000b9916200018660008062000225565b60096200025556fe6080604052600436101561001257600080fd5b60003560e01c8063013cf08b146101825780630d68eb9e1461017d5780630faccaf11461017857806310ba549714610173578063116191b61461016e5780631a98b2e0146101695780631b4613cb146101645780631c0d850e1461015f5780631f9735e51461015a5780632b7ac3f3146101555780632c72fdfc1461015057806347c661401461014b57806349160658146101465780635de59280146101415780636a22d8cc1461013c5780637089b312146101375780637092d2c014610132578063a1d36ce71461012d578063b18f0de214610128578063bba7055e14610123578063ccbbd2601461011e578063e85f857e146101195763f8f8059a0361019057611044565b610fb5565b610f3a565b610e7f565b610e52565b610df6565b610d08565b610ca9565b610c70565b610c56565b610bbe565b610b1a565b610a9f565b6109bf565b610984565b6108f2565b6108c5565b610864565b61074a565b6106e5565b6105f0565b6104a4565b6103dd565b805b0361019057565b600080fd5b905035906101a282610187565b565b90602082820312610190576101b891610195565b90565b6101b86101b86101b89290565b906101d2906101bb565b600052602052604060002090565b634e487b7160e01b600052602260045260246000fd5b9060016002830492168015610216575b602083101461021157565b6101e0565b91607f1691610206565b8054600093929161023d610233836101f6565b8085529360200190565b916001811690811561028f575060011461025657505050565b6102699192939450600052602060002090565b916000925b81841061027b5750500190565b80548484015260209093019260010161026e565b92949550505060ff1916825215156020020190565b906101b891610220565b634e487b7160e01b600052604160045260246000fd5b90601f01601f191681019081106001600160401b038211176102e557604052565b6102ae565b906101a2610304926102fb60405190565b938480926102a4565b03836102c4565b6101b89081565b6101b8905461030b565b6103279060036101c8565b610330816102ea565b916101b86002610342600185016102ea565b9301610312565b60005b83811061035c5750506000910152565b818101518382015260200161034c565b61038d6103966020936103a093610381815190565b80835293849260200190565b95869101610349565b601f01601f191690565b0190565b9052565b9392906103d86101a2936103ca604093606089019089820360008b015261036c565b90878203602089015261036c565b940152565b34610190576104076103f86103f33660046101a4565b61031c565b604051919391938493846103a8565b0390f35b9190604083820312610190576101b8906104258185610195565b93602001610195565b634e487b7160e01b600052603260045260246000fd5b600282101561045a576001905b91020190600090565b61042e565b6101b8916008021c81565b906101b8915461045f565b6104836004916000926101c8565b9060028310156104a157506101b89161049b91610444565b9061046a565b80fd5b34610190576104076104c06104ba36600461040b565b90610475565b6040519182918290815260200190565b906101a26104dd60405190565b92836102c4565b6001600160401b0381116102e557602090601f01601f19160190565b90826000939282370152565b9092919261052161051c826104e4565b6104d0565b93818552602085019082840111610190576101a292610500565b9080601f83011215610190578160206101b89335910161050c565b9190916060818403126101905761056d60606104d0565b9281356001600160401b038111610190578161058a91840161053b565b84526020820135906001600160401b038211610190576105af816105be93850161053b565b60208601526040809301610195565b90830152565b9190604083820312610190578235906001600160401b03821161019057610425816101b8938601610556565b34610190576104076104c06106063660046105c4565b90611e97565b6001600160a01b031690565b6001600160a01b038116610189565b905035906101a282610618565b9190916080818403126101905761064b60806104d0565b9281356001600160401b038111610190578161066891840161053b565b845260208201356001600160401b038111610190578161068991840161053b565b60208501526040820135906001600160401b038211610190576106b1816105be93850161053b565b60408601526060809301610627565b906020828203126101905781356001600160401b038111610190576101b89201610634565b34610190576104076104c06106fb3660046106c0565b611a3c565b600091031261019057565b6101b89061060c906001600160a01b031682565b6101b89061070b565b6101b89061071f565b6103a490610728565b6020810192916101a29190610731565b346101905761075a366004610700565b6104077f00000000000000000000000000000000000000000000000000000000000000005b6040519182918261073a565b909182601f83011215610190578135916001600160401b03831161019057602001926001830284011161019057565b919060c083820312610190576107d08184610195565b9260208101356001600160401b03811161019057826107f091830161078b565b92909360408301356001600160401b038111610190578261081291850161078b565b92909360608101356001600160401b038111610190578261083491830161078b565b92909360808301356001600160401b03811161019057610859836101b892860161078b565b93909460a001610195565b34610190576108896108773660046107ba565b98979097969196959295949394611243565b604051005b906101d2565b6101b8916008021c5b60ff1690565b906101b89154610894565b6101b8906108c060089160009261088e565b6108a3565b34610190576104076108e06108db3660046101a4565b6108ae565b60405191829182901515815260200190565b34610190576104076108e06109083660046101a4565b61237d565b908160809103126101905790565b906060828203126101905781356001600160401b038111610190578161094291840161078b565b92909360208201356001600160401b038111610190578361096491840161078b565b92909360408201356001600160401b038111610190576101b8920161090d565b61088961099236600461091b565b939290926114ab565b6101b8916008021c61060c565b906101b8915461099b565b6101b8600060096109a8565b34610190576109cf366004610700565b61040761077f6109b3565b906101b890604080610a106109fe606085016000880151868203600088015261036c565b6020870151858203602087015261036c565b940151910152565b906101b8916109da565b90610a38610a2e835190565b8083529160200190565b9081610a4a6020830284019460200190565b926000915b838310610a5e57505050505090565b90919293946020610a81610a7a83856001950387528951610a18565b9760200190565b9301930191939290610a4f565b60208082526101b892910190610a22565b3461019057610407610aba610ab53660046101a4565b61251d565b60405191829182610a8e565b610ad6610ad260029390565b9190565b6000915b838310610ae75750505050565b610b01610afa6001928451815260200190565b9260200190565b92019190610ada565b6040810192916101a29190610ac6565b3461019057610407610b35610b303660046101a4565b6125fa565b60405191829182610b0a565b91909160808184031261019057610b588382610195565b9260208201356001600160401b0381116101905781610b7891840161078b565b92909360408201356001600160401b0381116101905783610b9a91840161078b565b92909360608201356001600160401b03811161019057610bba920161078b565b9091565b3461019057610889610bd1366004610b41565b959490949391936110f9565b9190916080818403126101905780356001600160401b0381116101905783610c0691830161078b565b92909360208301356001600160401b0381116101905781610c2891850161078b565b929093610c388360408301610195565b9260608201356001600160401b038111610190576101b8920161090d565b610889610c64366004610bdd565b94939093929192611740565b3461019057610c80366004610700565b6104077f000000000000000000000000000000000000000000000000000000000000000061077f565b3461019057610889610cbc3660046105c4565b90611f2c565b805482101561045a57610451600191600052602060002090565b610cea6005916000926101c8565b90610cf3825490565b8310156104a157506101b89161049b91610cc2565b34610190576104076104c0610d1e36600461040b565b90610cdc565b906101b890606080610d6f610d5d610d4b608086016000890151878203600089015261036c565b6020880151868203602088015261036c565b6040870151858203604087015261036c565b9401516001600160a01b0316910152565b906101b891610d24565b90610d96610a2e835190565b9081610da86020830284019460200190565b926000915b838310610dbc57505050505090565b90919293946020610dd8610a7a83856001950387528951610d80565b9301930191939290610dad565b60208082526101b892910190610d8a565b3461019057610e06366004610700565b610407610e11611e70565b60405191829182610de5565b90602082820312610190576101b891610627565b906101d290610728565b6101b890610e4d600791600092610e31565b61046a565b34610190576104076104c0610e68366004610e1d565b610e3b565b6101b890610e4d600691600092610e31565b34610190576104076104c0610e95366004610e1d565b610e6d565b6101b89061060c565b6101b89054610e9a565b610eb89060026101c8565b90610ec2826102ea565b91610ecf600182016102ea565b916101b86003610ee1600285016102ea565b9301610ea3565b9493916101a293610f1c610f2a92610f0e60609560808b01908b820360008d015261036c565b9089820360208b015261036c565b90878203604089015261036c565b9401906001600160a01b03169052565b3461019057610407610f55610f503660046101a4565b610ead565b90610f6294929460405190565b94859485610ee8565b805482101561045a57610451600491600052602060002090565b90600191600092610f94815490565b821015610fb157610fa6929350610f6b565b5090610ec2826102ea565b8380fd5b3461019057610407610f55610fcb3660046101a4565b610f85565b909160a0828403126101905781356001600160401b0381116101905783610ff891840161078b565b92909360208201356001600160401b038111610190578161101a91840161078b565b9290936101b861102d8460408501610195565b9361103b8160608601610195565b93608001610195565b610889611052366004610fd0565b959490949391936117a7565b6101b891369161050c565b801515610189565b905051906101a282611069565b90602082820312610190576101b891611071565b9190610396816110a9816103a09560209181520190565b8095610500565b96959390946110df886060956103d8956110d26101a29a600060808601950152565b8b830360208d0152611092565b9188830360408a0152611092565b6040513d6000823e3d90fd5b9060208197969594939261110d888861105e565b61111f611118825190565b9160200190565b20611171600061114e7f0000000000000000000000000000000000000000000000000000000000000000610728565b9261117c635f6970c3918b8b8b61116460405190565b9b8c9a8b998a9860e01b90565b8852600488016110b0565b03925af180156111e157611196916000916111b557501590565b6111a3576101a295611991565b604051631403112d60e21b8152600490fd5b6111d6915060203d81116111da575b6111ce81836102c4565b81019061107e565b1590565b503d6111c4565b6110ed565b9998969160a096946103d896611220611236946101a29c978f9561122e9661121360c08201946000830152565b6020818503910152611092565b8d810360408f015291611092565b9360608b0152565b88830360808a0152611092565b96976020986000956112606112be9596996112b3999d959d61105e565b61126b611118825190565b20906112967f0000000000000000000000000000000000000000000000000000000000000000610728565b99631876eed9976112a660405190565b9e8f9d8e9c8d9b60e01b90565b8b5260048b016111e6565b03925af180156111e1576112d8916000916111b557501590565b6111a357565b156112e557565b60405162461bcd60e51b81526020600482015260076024820152665061792067617360c81b6044820152606490fd5b6101b8903690610634565b61089d6101b86101b89290565b6103a49061131f565b9035601e1936839003018112156101905701602081359101916001600160401b0382116101905736829003831361019057565b506101b8906020810190610627565b906101b89060606113e36113d96113be6113a3608086016113988980611335565b888303895290611092565b6113b06020890189611335565b908783036020890152611092565b6113cb6040880188611335565b908683036040880152611092565b9482810190611368565b6001600160a01b0316910152565b916101b8926114086040820193600083019061132c565b6020818403910152611377565b979694936080946114538a610f2a966101a29a9661144661146197600060a086019501906001600160a01b03169052565b8d830360208f0152611092565b918a830360408c0152611092565b90878203606089015261036c565b9361148f6101b896949261149d94606088019188830360008a0152611092565b918583036020870152611092565b91604081840391015261036c565b90926114f5346115016000976114cb6114c38a6101bb565b845b116112de565b6114dc6114d782611314565b611d46565b60016114e760405190565b9485926020840192836113f1565b908103825203836102c4565b61152a7f0000000000000000000000000000000000000000000000000000000000000000610728565b630c93e3bb9061153930610728565b9033813b156101905787948b9461157361156893898b8f8f9061155b60405190565b9c8d9b8c9a8b9960e01b90565b895260048901611415565b03925af180156111e15761161e575b506115ac7f0000000000000000000000000000000000000000000000000000000000000000610728565b91631c92115f833b15610190576115e66115db9389979388946115ce60405190565b9a8b998a98899760e01b90565b87526004870161146f565b03925af180156111e1576115f8575050565b816101a292903d10611617575b61160f81836102c4565b810190610700565b503d611605565b61163490873d89116116175761160f81836102c4565b38611582565b9035601e1936839003018112156101905701602081359101916001600160401b03821161019057602082023603831361019057565b9037565b8183529091602001916001600160fb1b03811161019057829160206103a0920293849161166f565b506101b8906020810190610195565b906101b890606061170f6116ee6116d3608085016116c88880611335565b878303885290611092565b6116e0602088018861163a565b908683036020880152611673565b946117066116ff604083018361169b565b6040860152565b8281019061169b565b910152565b9392906103d86040916101a294611733606089019260008a019061132c565b87820360208901526116aa565b91929093346115016000976117576114c38a6101bb565b60026114f561176560405190565b958693602085019384611714565b6117a36101a29461179c606094989795611795608086019a600087019061132c565b6020850152565b6040830152565b0152565b92919394909461150134916000986117c76117c18b6101bb565b856114c5565b6114f56003916117d660405190565b968794602086019485611773565b919091604081840312610190576117fb8382610195565b9260208201356001600160401b038111610190576101b89201610634565b6080818303126101905761182d8282610195565b926101b861183e8460208501610195565b9361184c8160408601610195565b93606001610195565b6001600160401b0381116102e55760208091020190565b9092919261187c61051c82611855565b938185526020808601920283019281841161019057915b8383106118a05750505050565b602080916118ae8486610195565b815201920191611893565b9080601f83011215610190578160206101b89335910161186c565b919091608081840312610190576118eb60806104d0565b9281356001600160401b038111610190578161190891840161053b565b84526020820135906001600160401b0382116101905761192d816105be9385016118b9565b6020860152604061194082828601610195565b908601526060809301610195565b9091606082840312610190576119648383610195565b926020830135906001600160401b03821161019057611988816101b89386016118d4565b93604001610195565b50505050906119a2818301836117e4565b506119ad60016101bb565b81036119cb5750816119c4916101a29301906117e4565b9050611d46565b6119d560026101bb565b81036119f45750816119ec916101a293019061194e565b9091506120d1565b611a01610ad260036101bb565b14611a0a575050565b81611a1a916101a2930190611819565b92509061226a565b60208082526101b892910190610d24565b6101b8906101bb565b6101b890611a68611a4c60405190565b8092611a5c602083019182611a22565b908103825203826102c4565b611a73611118825190565b20611a33565b634e487b7160e01b600052600060045260246000fd5b9160001960089290920291821b911b5b9181191691161790565b9190611aba6101b8611ac2936101bb565b908354611a8f565b9055565b6101a29160005b91611aa9565b818110611ade575050565b80611aec6000600193611ac6565b01611ad3565b9190601f8111611b0157505050565b611b136101a293600052602060002090565b906020601f840181900483019310611b35575b6020601f909101040190611ad3565b9091508190611b26565b9060001960089091021c191690565b81611b5891611b3f565b906002021790565b90611b69815190565b906001600160401b0382116102e557611b8c82611b8685546101f6565b85611af2565b602090601f8311600114611bba57611ac2929160009183611baf575b5050611b4e565b015190503880611ba8565b601f19831691611bcf85600052602060002090565b9260005b818110611c0e57509160029391856001969410611bf4575b50505002019055565b611c04910151601f841690611b3f565b9055388080611beb565b91936020600181928787015181550195019201611bd3565b906101a291611b60565b906001600160a01b0390611a9f565b90611c4f6101b8611ac292610728565b8254611c30565b90611cae606060036101a294611c7a60008201611c74600088015190565b90611c26565b611c8c60018201611c74602088015190565b611c9e60028201611c74604088015190565b019201516001600160a01b031690565b90611c3f565b906101a291611c56565b9190611ccd576101a291611c56565b611a79565b80549190600160401b8310156102e55782611cf59160016101a295018155610f6b565b90611cbe565b634e487b7160e01b600052601160045260246000fd5b6000198114611d205760010190565b611cfb565b9060001990611a9f565b90611d3f6101b8611ac2926101bb565b8254611d25565b611d6d90611d6681611d61611d5a82611a3c565b60026101c8565b611cb4565b6001611cd2565b6101a2611d82611d7d6000610312565b611d11565b6000611d2f565b90611d9661051c83611855565b918252565b6101b860806104d0565b906101a2611df96003611db6611d9b565b94611dc7611dc3826102ea565b8752565b611ddd611dd6600183016102ea565b6020880152565b611df3611dec600283016102ea565b6040880152565b01610ea3565b6001600160a01b03166060840152565b6101b890611da5565b90611e1b825490565b611e2481611d89565b92611e386020850191600052602060002090565b6000915b838310611e495750505050565b60046020600192611e5985611e09565b815201920192019190611e3c565b6101b890611e12565b6101b86001611e67565b929160206103d86101a293604087019087820360008901526109da565b611a686101b892611a5c92611eaa600090565b50604051938492602084019283611e7a565b90611ef3604060026101a294611eda60008201611c74600088015190565b611eec60018201611c74602088015190565b0192015190565b90611d2f565b906101a291611ebc565b80549190600160401b8310156102e55782611f269160016101a295018155610cc2565b90611aa9565b611f5b6101b86101a293611f54611f438286611e97565b94611f4f8660036101c8565b611ef9565b60056101c8565b611f03565b6101b89061089d565b6101b89054611f60565b15611f7a57565b60405162461bcd60e51b8152602060048201526011602482015270159bdd1948185b1c9958591e4818d85cdd607a1b6044820152606490fd5b90611fcc610afa611fc2845190565b8084529260200190565b9060005b818110611fdd5750505090565b909192611ffa611ff36001928651815260200190565b9460200190565b929101611fd0565b60408082526101b89391926120199184019061036c565b916020818403910152611fb3565b1561202e57565b60405162461bcd60e51b815260206004820152600c60248201526b496e76616c696420766f746560a01b6044820152606490fd5b9060ff90611a9f565b9061207b6101b8611ac292151590565b8254612062565b90611d3f6101b8611ac29290565b1561209757565b60405162461bcd60e51b81526020600482015260126024820152712b37ba34b733903832b934b7b21037bb32b960711b6044820152606490fd5b6040820151916008926120f76120f26111d66120ed848861088e565b611f69565b611f73565b6121096121046009610ea3565b610728565b93602063ea50d0e495600085015190612139838701519861214461212c60405190565b9a8b958694859460e01b90565b845260048401612002565b03915afa9081156111e15760606121a9946121866121a193612175612197966101a29b6000916121cc575b50612027565b6121818760019261088e565b61206b565b61219c600695612197338098610e31565b612082565b015190565b916007610e31565b6121c6610ad26101b860026121c0429560036101c8565b01610312565b10612090565b6121e4915060203d81116111da576111ce81836102c4565b3861216f565b156121f157565b60405162461bcd60e51b81526020600482015260156024820152742cb7ba9030b932903737ba103a3432903b37ba32b960591b6044820152606490fd5b1561223557565b60405162461bcd60e51b815260206004820152600d60248201526c159bdd19481b9bdd0818d85cdd609a1b6044820152606490fd5b916122cc6122d1926122a96122a46120ed6101a29761229d61229661229160063390610e31565b610312565b82146121ea565b600861088e565b61222e565b6122b360006101bb565b831480156122de575b6122c590612027565b60046101c8565b610444565b611acd611d7d828461046a565b506122c56122ec60016101bb565b841490506122bc565b612301610ad260029390565b6000915b8383106123125750505050565b61233361232c60019261232485610312565b815260200190565b9260010190565b92019190612305565b906103a0816040936122f5565b906101a26103049261235a60405190565b9384809261233c565b6101b890612349565b90600281101561045a576020020190565b6123946123999161238c600090565b5060046101c8565b612363565b6123d0610ad26101b86123bb6123bf6123bb6123b560016101bb565b8761236c565b5190565b946123ca60006101bb565b9061236c565b1190565b906123ef6123e3611fc2845490565b92600052602060002090565b9060005b8181106124005750505090565b90919261241c61241560019261232487610312565b9460010190565b9291016123f3565b906101b8916123d4565b906101a26103049261243f60405190565b93848092612424565b6101b89061242e565b6101b860606104d0565b612463612451565b606080825260208201526000604082015290565b6101b861245b565b60005b82811061248e57505050565b602090612499612477565b8184015201612482565b906101a26124b96124b384611d89565b93611855565b601f19016020840161247f565b906124cf825190565b81101561045a576020809102010190565b906101a261250d60026124f1612451565b946124fe611dc3826102ea565b6121c0611dd6600183016102ea565b6040840152565b6101b8906124e0565b6125346125399161252c606090565b5060056101c8565b612448565b612549612544825190565b6124a3565b9061255460006101bb565b61255f6101b8835190565b8110156125aa576125a59061258a612585600361257f6123bb85886124c6565b906101c8565b612514565b61259482866124c6565b5261259f81856124c6565b50611d11565b612554565b505090565b6001600160401b0381116102e55760200290565b61051c6101b8916125af565b369037565b906101a26125ea6125e4846125c3565b936125af565b836125cf565b6101b860026125d4565b6123946101b89161238c6125f056fea2646970667358221220b9d2991ab5d5d503fc4b3ecd6802d6e75c0af943aa0637a5450186268ea8650864736f6c63430008140033",
  "linkReferences": {},
  "deployedLinkReferences": {}
}